{
  "_format": "hh-sol-artifact-1",
  "contractName": "FeeDistributor",
  "sourceName": "contracts/feeDistributor/FeeDistributor.sol",
  "abi": [
    {
      "anonymous": false,
      "inputs": [
        {
          "indexed": false,
          "internalType": "uint256",
          "name": "time",
          "type": "uint256"
        },
        {
          "indexed": false,
          "internalType": "uint256",
          "name": "tokens",
          "type": "uint256"
        }
      ],
      "name": "CheckpointToken",
      "type": "event"
    },
    {
      "anonymous": false,
      "inputs": [
        {
          "indexed": true,
          "internalType": "address",
          "name": "recipient",
          "type": "address"
        },
        {
          "indexed": false,
          "internalType": "uint256",
          "name": "amount",
          "type": "uint256"
        },
        {
          "indexed": false,
          "internalType": "uint256",
          "name": "claimEpoch",
          "type": "uint256"
        },
        {
          "indexed": false,
          "internalType": "uint256",
          "name": "maxEpoch",
          "type": "uint256"
        }
      ],
      "name": "Claimed",
      "type": "event"
    },
    {
      "anonymous": false,
      "inputs": [
        {
          "indexed": false,
          "internalType": "uint8",
          "name": "version",
          "type": "uint8"
        }
      ],
      "name": "Initialized",
      "type": "event"
    },
    {
      "anonymous": false,
      "inputs": [
        {
          "indexed": true,
          "internalType": "address",
          "name": "previousOwner",
          "type": "address"
        },
        {
          "indexed": true,
          "internalType": "address",
          "name": "newOwner",
          "type": "address"
        }
      ],
      "name": "OwnershipTransferStarted",
      "type": "event"
    },
    {
      "anonymous": false,
      "inputs": [
        {
          "indexed": true,
          "internalType": "address",
          "name": "previousOwner",
          "type": "address"
        },
        {
          "indexed": true,
          "internalType": "address",
          "name": "newOwner",
          "type": "address"
        }
      ],
      "name": "OwnershipTransferred",
      "type": "event"
    },
    {
      "anonymous": false,
      "inputs": [
        {
          "indexed": false,
          "internalType": "address",
          "name": "account",
          "type": "address"
        }
      ],
      "name": "Paused",
      "type": "event"
    },
    {
      "anonymous": false,
      "inputs": [
        {
          "indexed": true,
          "internalType": "address",
          "name": "token",
          "type": "address"
        },
        {
          "indexed": true,
          "internalType": "address",
          "name": "emergencyReturn",
          "type": "address"
        },
        {
          "indexed": false,
          "internalType": "uint256",
          "name": "amount",
          "type": "uint256"
        }
      ],
      "name": "RecoverBalance",
      "type": "event"
    },
    {
      "anonymous": false,
      "inputs": [
        {
          "indexed": true,
          "internalType": "address",
          "name": "emergencyReturn",
          "type": "address"
        }
      ],
      "name": "SetEmergencyReturn",
      "type": "event"
    },
    {
      "anonymous": false,
      "inputs": [
        {
          "indexed": false,
          "internalType": "bool",
          "name": "toggleFlag",
          "type": "bool"
        }
      ],
      "name": "ToggleAllowCheckpointToken",
      "type": "event"
    },
    {
      "anonymous": false,
      "inputs": [
        {
          "indexed": false,
          "internalType": "address",
          "name": "account",
          "type": "address"
        }
      ],
      "name": "Unpaused",
      "type": "event"
    },
    {
      "inputs": [],
      "name": "acceptOwnership",
      "outputs": [],
      "stateMutability": "nonpayable",
      "type": "function"
    },
    {
      "inputs": [
        {
          "internalType": "uint256",
          "name": "amount",
          "type": "uint256"
        }
      ],
      "name": "burn",
      "outputs": [
        {
          "internalType": "bool",
          "name": "",
          "type": "bool"
        }
      ],
      "stateMutability": "nonpayable",
      "type": "function"
    },
    {
      "inputs": [],
      "name": "canCheckpointToken",
      "outputs": [
        {
          "internalType": "bool",
          "name": "",
          "type": "bool"
        }
      ],
      "stateMutability": "view",
      "type": "function"
    },
    {
      "inputs": [],
      "name": "checkpointToken",
      "outputs": [],
      "stateMutability": "nonpayable",
      "type": "function"
    },
    {
      "inputs": [],
      "name": "checkpointTotalSupply",
      "outputs": [],
      "stateMutability": "nonpayable",
      "type": "function"
    },
    {
      "inputs": [
        {
          "internalType": "address",
          "name": "_addr",
          "type": "address"
        }
      ],
      "name": "claim",
      "outputs": [
        {
          "internalType": "uint256",
          "name": "",
          "type": "uint256"
        }
      ],
      "stateMutability": "nonpayable",
      "type": "function"
    },
    {
      "inputs": [
        {
          "internalType": "address[]",
          "name": "_receivers",
          "type": "address[]"
        }
      ],
      "name": "claimMany",
      "outputs": [
        {
          "internalType": "uint256",
          "name": "",
          "type": "uint256"
        }
      ],
      "stateMutability": "nonpayable",
      "type": "function"
    },
    {
      "inputs": [
        {
          "internalType": "address",
          "name": "_addr",
          "type": "address"
        }
      ],
      "name": "claimableToken",
      "outputs": [
        {
          "internalType": "uint256",
          "name": "",
          "type": "uint256"
        }
      ],
      "stateMutability": "nonpayable",
      "type": "function"
    },
    {
      "inputs": [],
      "name": "emergencyReturn",
      "outputs": [
        {
          "internalType": "address",
          "name": "",
          "type": "address"
        }
      ],
      "stateMutability": "view",
      "type": "function"
    },
    {
      "inputs": [
        {
          "internalType": "address",
          "name": "_votingEscrow",
          "type": "address"
        },
        {
          "internalType": "uint256",
          "name": "_startTime",
          "type": "uint256"
        },
        {
          "internalType": "address",
          "name": "_token",
          "type": "address"
        },
        {
          "internalType": "address",
          "name": "_stHOPE",
          "type": "address"
        },
        {
          "internalType": "address",
          "name": "_emergencyReturn",
          "type": "address"
        }
      ],
      "name": "initialize",
      "outputs": [],
      "stateMutability": "nonpayable",
      "type": "function"
    },
    {
      "inputs": [],
      "name": "lastTokenTime",
      "outputs": [
        {
          "internalType": "uint256",
          "name": "",
          "type": "uint256"
        }
      ],
      "stateMutability": "view",
      "type": "function"
    },
    {
      "inputs": [],
      "name": "owner",
      "outputs": [
        {
          "internalType": "address",
          "name": "",
          "type": "address"
        }
      ],
      "stateMutability": "view",
      "type": "function"
    },
    {
      "inputs": [],
      "name": "pause",
      "outputs": [],
      "stateMutability": "nonpayable",
      "type": "function"
    },
    {
      "inputs": [],
      "name": "paused",
      "outputs": [
        {
          "internalType": "bool",
          "name": "",
          "type": "bool"
        }
      ],
      "stateMutability": "view",
      "type": "function"
    },
    {
      "inputs": [],
      "name": "pendingOwner",
      "outputs": [
        {
          "internalType": "address",
          "name": "",
          "type": "address"
        }
      ],
      "stateMutability": "view",
      "type": "function"
    },
    {
      "inputs": [],
      "name": "recoverBalance",
      "outputs": [
        {
          "internalType": "bool",
          "name": "",
          "type": "bool"
        }
      ],
      "stateMutability": "nonpayable",
      "type": "function"
    },
    {
      "inputs": [],
      "name": "renounceOwnership",
      "outputs": [],
      "stateMutability": "nonpayable",
      "type": "function"
    },
    {
      "inputs": [
        {
          "internalType": "address",
          "name": "_addr",
          "type": "address"
        }
      ],
      "name": "setEmergencyReturn",
      "outputs": [],
      "stateMutability": "nonpayable",
      "type": "function"
    },
    {
      "inputs": [],
      "name": "stHOPE",
      "outputs": [
        {
          "internalType": "address",
          "name": "",
          "type": "address"
        }
      ],
      "stateMutability": "view",
      "type": "function"
    },
    {
      "inputs": [],
      "name": "startTime",
      "outputs": [
        {
          "internalType": "uint256",
          "name": "",
          "type": "uint256"
        }
      ],
      "stateMutability": "view",
      "type": "function"
    },
    {
      "inputs": [],
      "name": "timeCursor",
      "outputs": [
        {
          "internalType": "uint256",
          "name": "",
          "type": "uint256"
        }
      ],
      "stateMutability": "view",
      "type": "function"
    },
    {
      "inputs": [
        {
          "internalType": "address",
          "name": "",
          "type": "address"
        }
      ],
      "name": "timeCursorOf",
      "outputs": [
        {
          "internalType": "uint256",
          "name": "",
          "type": "uint256"
        }
      ],
      "stateMutability": "view",
      "type": "function"
    },
    {
      "inputs": [],
      "name": "toggleAllowCheckpointToken",
      "outputs": [],
      "stateMutability": "nonpayable",
      "type": "function"
    },
    {
      "inputs": [],
      "name": "token",
      "outputs": [
        {
          "internalType": "address",
          "name": "",
          "type": "address"
        }
      ],
      "stateMutability": "view",
      "type": "function"
    },
    {
      "inputs": [],
      "name": "tokenLastBalance",
      "outputs": [
        {
          "internalType": "uint256",
          "name": "",
          "type": "uint256"
        }
      ],
      "stateMutability": "view",
      "type": "function"
    },
    {
      "inputs": [
        {
          "internalType": "uint256",
          "name": "",
          "type": "uint256"
        }
      ],
      "name": "tokensPerWeek",
      "outputs": [
        {
          "internalType": "uint256",
          "name": "",
          "type": "uint256"
        }
      ],
      "stateMutability": "view",
      "type": "function"
    },
    {
      "inputs": [
        {
          "internalType": "address",
          "name": "newOwner",
          "type": "address"
        }
      ],
      "name": "transferOwnership",
      "outputs": [],
      "stateMutability": "nonpayable",
      "type": "function"
    },
    {
      "inputs": [],
      "name": "unpause",
      "outputs": [],
      "stateMutability": "nonpayable",
      "type": "function"
    },
    {
      "inputs": [
        {
          "internalType": "address",
          "name": "",
          "type": "address"
        }
      ],
      "name": "userEpochOf",
      "outputs": [
        {
          "internalType": "uint256",
          "name": "",
          "type": "uint256"
        }
      ],
      "stateMutability": "view",
      "type": "function"
    },
    {
      "inputs": [
        {
          "internalType": "address",
          "name": "_user",
          "type": "address"
        },
        {
          "internalType": "uint256",
          "name": "_timestamp",
          "type": "uint256"
        }
      ],
      "name": "veForAt",
      "outputs": [
        {
          "internalType": "uint256",
          "name": "",
          "type": "uint256"
        }
      ],
      "stateMutability": "view",
      "type": "function"
    },
    {
      "inputs": [
        {
          "internalType": "address",
          "name": "_user",
          "type": "address"
        },
        {
          "internalType": "uint256",
          "name": "_timestamp",
          "type": "uint256"
        }
      ],
      "name": "vePrecentageForAt",
      "outputs": [
        {
          "internalType": "uint256",
          "name": "",
          "type": "uint256"
        }
      ],
      "stateMutability": "nonpayable",
      "type": "function"
    },
    {
      "inputs": [
        {
          "internalType": "uint256",
          "name": "",
          "type": "uint256"
        }
      ],
      "name": "veSupply",
      "outputs": [
        {
          "internalType": "uint256",
          "name": "",
          "type": "uint256"
        }
      ],
      "stateMutability": "view",
      "type": "function"
    },
    {
      "inputs": [],
      "name": "votingEscrow",
      "outputs": [
        {
          "internalType": "address",
          "name": "",
          "type": "address"
        }
      ],
      "stateMutability": "view",
      "type": "function"
    }
  ],
  "bytecode": "0x608060405234801561001057600080fd5b5061217d806100206000396000f3fe608060405234801561001057600080fd5b50600436106101fb5760003560e01c80638736659b1161011a578063b26bb8c4116100ad578063e30c39781161007c578063e30c3978146103fa578063f2fde38b1461040b578063f36482411461041e578063f6e252aa14610431578063fc0c546a1461044457600080fd5b8063b26bb8c4146103ac578063bee5dc32146103bf578063c7f1ec50146103c7578063e12e05a7146103e757600080fd5b8063939ea66b116100e9578063939ea66b14610375578063a01ef25f1461037e578063a143e2da14610391578063b1850e94146103a457600080fd5b80638736659b14610332578063899519be1461033b5780638da5cb5b1461035b5780638ec8468a1461036c57600080fd5b80635c975abb1161019257806379ba50971161016157806379ba5097146103075780637e686e011461030f5780638456cb59146103225780638721b7851461032a57600080fd5b80635c975abb146102cb578063715018a6146102d6578063786479cd146102de57806378e97925146102fe57600080fd5b80633f4ba83a116101ce5780633f4ba83a1461026d57806342966c68146102755780634f2bfe5b146102885780635a4b8c1d146102b357600080fd5b80630cc672e4146102005780630f6592ef146102225780631e83409a14610250578063326a940714610263575b600080fd5b60d45461020d9060ff1681565b60405190151581526020015b60405180910390f35b610242610230366004611daf565b60d36020526000908152604090205481565b604051908152602001610219565b61024261025e366004611ddf565b610457565b61026b61050e565b005b61026b610518565b61020d610283366004611daf565b610528565b60d15461029b906001600160a01b031681565b6040516001600160a01b039091168152602001610219565b60d45461029b9061010090046001600160a01b031681565b60975460ff1661020d565b61026b610631565b6102426102ec366004611ddf565b60cc6020526000908152604090205481565b61024260c95481565b61026b610643565b61024261031d366004611e41565b6106bd565b61026b6107d2565b61026b6107e2565b61024260ca5481565b610242610349366004611daf565b60ce6020526000908152604090205481565b6033546001600160a01b031661029b565b61024260d25481565b61024260cd5481565b61026b61038c366004611eee565b610834565b60d05461029b906001600160a01b031681565b61020d610a31565b61026b6103ba366004611ddf565b610b24565b61026b610b7e565b6102426103d5366004611ddf565b60cb6020526000908152604090205481565b6102426103f5366004611ddf565b610bef565b6065546001600160a01b031661029b565b61026b610419366004611ddf565b610c6f565b61024261042c366004611f4c565b610ce0565b61024261043f366004611f4c565b610e19565b60cf5461029b906001600160a01b031681565b6000610461610ef4565b60ca54421061047257610472610f3a565b6001600160a01b038216610484573391505b60cd5460d45460ff1680156104a457506104a16201518082611f8c565b42115b156104b4576104b16110c0565b50425b6104bd816112d3565b60d1549091506000906104db9085906001600160a01b031684611305565b90508015610505576104ed8482611707565b8060d260008282546104ff9190611f9f565b90915550505b9150505b919050565b610516610f3a565b565b61052061180f565b610516611869565b6000610532610ef4565b81156106295760cf546040516323b872dd60e01b8152336004820152306024820152604481018490526001600160a01b03909116906323b872dd906064016020604051808303816000875af115801561058f573d6000803e3d6000fd5b505050506040513d601f19601f820116820180604052508101906105b39190611fb2565b6105fb5760405162461bcd60e51b81526020600482015260146024820152731514905394d1915497d19493d357d1905253115160621b60448201526064015b60405180910390fd5b60d45460ff16801561061c57506201518060cd546106199190611f8c565b42115b15610629576106296110c0565b506001919050565b61063961180f565b61051660006118bb565b60655433906001600160a01b031681146106b15760405162461bcd60e51b815260206004820152602960248201527f4f776e61626c6532537465703a2063616c6c6572206973206e6f7420746865206044820152683732bb9037bbb732b960b91b60648201526084016105f2565b6106ba816118bb565b50565b60006106c7610ef4565b60ca5442106106d8576106d8610f3a565b60cd5460d45460ff1680156106f857506106f56201518082611f8c565b42115b15610708576107056110c0565b50425b610711816112d3565b90506000805b8451811080156107275750603281105b156107b957600085828151811061074057610740611fd4565b6020026020010151905060006001600160a01b0316816001600160a01b03160361076a57506107b9565b60d1546000906107859083906001600160a01b031687611305565b905080156107a4576107978282611707565b6107a18185611f8c565b93505b505080806107b190611fea565b915050610717565b508015610505578060d260008282546104ff9190611f9f565b6107da61180f565b6105166118d4565b6107ea61180f565b60d4805460ff81161560ff1990911681179091556040518181527fdbe6ac1081ebd8e648718341126659456f4009fcadfe1c23f66f5e61522610b29060200160405180910390a150565b600054610100900460ff16158080156108545750600054600160ff909116105b8061086e5750303b15801561086e575060005460ff166001145b6108d15760405162461bcd60e51b815260206004820152602e60248201527f496e697469616c697a61626c653a20636f6e747261637420697320616c72656160448201526d191e481a5b9a5d1a585b1a5e995960921b60648201526084016105f2565b6000805460ff1916600117905580156108f4576000805461ff0019166101001790555b6001600160a01b03861661091a5760405162461bcd60e51b81526004016105f290612003565b6001600160a01b0384166109405760405162461bcd60e51b81526004016105f290612003565b6001600160a01b0383166109665760405162461bcd60e51b81526004016105f290612003565b61096e611911565b6000610979866112d3565b60c981905560cd81905560ca555060d48054610100600160a81b0319166101006001600160a01b03858116919091029190911790915560cf80546001600160a01b03199081168784161790915560d08054821686841617905560d180549091169188169190911790558015610a29576000805461ff0019169055604051600181527f7f26b83ff96e1f2b6a682f133852f6798a09c465da95921460cefb3847402498906020015b60405180910390a15b505050505050565b6000610a3b61180f565b60cf546040516370a0823160e01b81523060048201526000916001600160a01b0316906370a0823190602401602060405180830381865afa158015610a84573d6000803e3d6000fd5b505050506040513d601f19601f82011682018060405250810190610aa8919061202c565b60cf5460d454919250610ace916001600160a01b03918216916101009091041683611940565b60d45460cf546040518381526101009092046001600160a01b03908116929116907fd0a849a4b4c83176fa52813aff6ed8aa60f8756be6d3cc5cdf086614e3db6af49060200160405180910390a3600191505090565b610b2c61180f565b60d48054610100600160a81b0319166101006001600160a01b038416908102919091179091556040517fddf14d4001805d5c8783316f14c83a234cdb129ef6d8f0fc823cc2ee0828590a90600090a250565b6033546001600160a01b0316331480610bb3575060d45460ff168015610bb357506201518060cd54610bb09190611f8c565b42115b610be75760405162461bcd60e51b8152602060048201526005602482015264464430303160d81b60448201526064016105f2565b6105166110c0565b600060ca544210610c0257610c02610f3a565b6001600160a01b038216610c14573391505b60cd5460d45460ff168015610c345750610c316201518082611f8c565b42115b15610c4457610c416110c0565b50425b610c4d816112d3565b60d154909150610c689084906001600160a01b031683611305565b9392505050565b610c7761180f565b606580546001600160a01b0383166001600160a01b03199091168117909155610ca86033546001600160a01b031690565b6001600160a01b03167f38d16b8cac22d99fc7c124b9cd0de2d3fa1faef420bfe791d8c362d765e2270060405160405180910390a350565b60d1546040516381fc83bb60e01b81526001600160a01b03848116600483015260009283929116906381fc83bb90602401602060405180830381865afa158015610d2e573d6000803e3d6000fd5b505050506040513d601f19601f82011682018060405250810190610d52919061202c565b60d154909150600090610d70906001600160a01b0316868685611952565b60d154604051630d36406960e21b81526001600160a01b03888116600483015260248201849052929350600092909116906334d901a490604401608060405180830381865afa158015610dc7573d6000803e3d6000fd5b505050506040513d601f19601f82011682018060405250810190610deb9190612045565b805160208201516040830151929350610e0d92610e089089611f9f565b611a47565b93505050505b92915050565b600060ca544210610e2c57610e2c610f3a565b610e35826112d3565b60405163f364824160e01b81526001600160a01b038516600482015260248101829052909250600090309063f364824190604401602060405180830381865afa158015610e86573d6000803e3d6000fd5b505050506040513d601f19601f82011682018060405250810190610eaa919061202c565b600084815260d36020526040812054919250819003610ece57600092505050610e13565b80610ee183670de0b6b3a76400006120ab565b610eeb91906120c2565b95945050505050565b60975460ff16156105165760405162461bcd60e51b815260206004820152601060248201526f14185d5cd8589b194e881c185d5cd95960821b60448201526064016105f2565b60ca546000610f48426112d3565b905060d160009054906101000a90046001600160a01b03166001600160a01b0316637b7933b46040518163ffffffff1660e01b8152600401600060405180830381600087803b158015610f9a57600080fd5b505af1158015610fae573d6000803e3d6000fd5b5050505060005b60148112156110b9578183116110b95760d154600090610fde906001600160a01b031685611a7e565b60d1546040516318d45de760e11b8152600481018390529192506000916001600160a01b03909116906331a8bbce90602401608060405180830381865afa15801561102d573d6000803e3d6000fd5b505050506040513d601f19601f820116820180604052508101906110519190612045565b9050600081604001518611156110735760408201516110709087611f9f565b90505b6110868260000151836020015183611a47565b600087815260d360205260409020555050506110a562093a8084611f8c565b9250806110b1816120e4565b915050610fb5565b505060ca55565b60cf546040516370a0823160e01b81523060048201526000916001600160a01b0316906370a0823190602401602060405180830381865afa158015611109573d6000803e3d6000fd5b505050506040513d601f19601f8201168201806040525081019061112d919061202c565b9050600060d2548261113f9190611f9f565b60d283905560cd5490915060006111568242611f9f565b4260cd5590506000611167836112d3565b90506000805b601481101561129c5761118362093a8084611f8c565b915081421015611205578315801561119a57508442145b156111c857600083815260ce6020526040812080548892906111bd908490611f8c565b9091555061129c9050565b836111d38642611f9f565b6111dd90886120ab565b6111e791906120c2565b600084815260ce6020526040812080549091906111bd908490611f8c565b8315801561121257508482145b1561124057600083815260ce602052604081208054889290611235908490611f8c565b909155506112839050565b8361124b8684611f9f565b61125590886120ab565b61125f91906120c2565b600084815260ce60205260408120805490919061127d908490611f8c565b90915550505b819450819250808061129490611fea565b91505061116d565b5060408051428152602081018790527fce749457b74e10f393f2c6b1ce4261b78791376db5a3f501477a809f03f500d69101610a20565b60006112e36201518060076120ab565b6112f16201518060076120ab565b6112fb90846120c2565b610e1391906120ab565b6040516381fc83bb60e01b81526001600160a01b0384811660048301526000918291829182918716906381fc83bb90602401602060405180830381865afa158015611354573d6000803e3d6000fd5b505050506040513d601f19601f82011682018060405250810190611378919061202c565b60c9549091506000829003611394576000945050505050610c68565b6001600160a01b038816600090815260cb6020526040812054908190036113c8576113c1888a8486611952565b94506113e4565b6001600160a01b038916600090815260cc602052604090205494505b846000036113f157600194505b604051630d36406960e21b81526001600160a01b038a8116600483015260248201879052600091908a16906334d901a490604401608060405180830381865afa158015611442573d6000803e3d6000fd5b505050506040513d601f19601f820116820180604052508101906114669190612045565b90508160000361149a57611497600162093a8083604001516114889190611f8c565b6114929190611f9f565b6112d3565b91505b8782106114b05760009650505050505050610c68565b828210156114bc578291505b600060405180608001604052806000815260200160008152602001600081526020016000815250905060005b60328112156116785789841015611678578260400151841015801561150d5750858811155b156115ce5761151d600189611f8c565b97508291508588111561155657604051806080016040528060008152602001600081526020016000815260200160008152509250611666565b604051630d36406960e21b81526001600160a01b038d81166004830152602482018a90528c16906334d901a490604401608060405180830381865afa1580156115a3573d6000803e3d6000fd5b505050506040513d601f19601f820116820180604052508101906115c79190612045565b9250611666565b60008260400151856115e09190611f9f565b905060006115f78460000151856020015184611a47565b9050801580156116065750878a115b15611612575050611678565b801561165457600086815260d3602090815260408083205460ce9092529091205461163d90836120ab565b61164791906120c2565b611651908a611f8c565b98505b61166162093a8087611f8c565b955050505b80611670816120e4565b9150506114e8565b5061168d8561168860018a611f9f565b611bd3565b6001600160a01b038c16600081815260cc6020908152604080832085905560cb82529182902087905581518a8152908101849052908101889052919850907f9cdcf2f7714cca3508c7f0110b04a90a80a3a8dd0e35de99689db74d28c5383e9060600160405180910390a250939998505050505050505050565b60cf5460d054611724916001600160a01b03908116911683611be9565b60d0546040516373dd055560e01b815260048101839052600060248201819052604482018190526080606483015260848201819052916001600160a01b0316906373dd05559060a4016020604051808303816000875af115801561178c573d6000803e3d6000fd5b505050506040513d601f19601f820116820180604052508101906117b09190611fb2565b9050806117f35760405162461bcd60e51b81526020600482015260116024820152701cdd185ada5b99c81a1bdc194819985a5b607a1b60448201526064016105f2565b60d05461180a906001600160a01b03168484611940565b505050565b6033546001600160a01b031633146105165760405162461bcd60e51b815260206004820181905260248201527f4f776e61626c653a2063616c6c6572206973206e6f7420746865206f776e657260448201526064016105f2565b611871611bf5565b6097805460ff191690557f5db9ee0a495bf2e6ff9c91a7834c1ba4fdd244a5e8aa4e537bd38aeae4b073aa335b6040516001600160a01b03909116815260200160405180910390a1565b606580546001600160a01b03191690556106ba81611c3e565b6118dc610ef4565b6097805460ff191660011790557f62e78cea01bee320cd4e420270b5ea74000d11b0c9f74754ebdbfc544b05a25861189e3390565b600054610100900460ff166119385760405162461bcd60e51b81526004016105f2906120fc565b610516611c90565b8261194c818484611cc0565b50505050565b60008082815b6080811215611a3b5781831015611a3b57600060026119778486611f8c565b611982906002611f8c565b61198c91906120c2565b604051630d36406960e21b81526001600160a01b038a81166004830152602482018390529192506000918b16906334d901a490604401608060405180830381865afa1580156119df573d6000803e3d6000fd5b505050506040513d601f19601f82011682018060405250810190611a039190612045565b905087816040015111611a1857819450611a26565b611a23600183611f9f565b93505b50508080611a33906120e4565b915050611958565b50909695505050505050565b600080611a5483856120ab565b90508480821115611a6a57600092505050610c68565b611a748282611f9f565b9695505050505050565b600080600090506000846001600160a01b031663900cf0cf6040518163ffffffff1660e01b8152600401602060405180830381865afa158015611ac5573d6000803e3d6000fd5b505050506040513d601f19601f82011682018060405250810190611ae9919061202c565b905060005b6080811215611bc95781831015611bc95760006002611b0d8486611f8c565b611b18906002611f8c565b611b2291906120c2565b6040516318d45de760e11b8152600481018290529091506000906001600160a01b038916906331a8bbce90602401608060405180830381865afa158015611b6d573d6000803e3d6000fd5b505050506040513d601f19601f82011682018060405250810190611b919190612045565b905086816040015111611ba657819450611bb4565b611bb1600183611f9f565b93505b50508080611bc1906120e4565b915050611aee565b5090949350505050565b6000818310611be25781610c68565b5090919050565b8261194c818484611d38565b60975460ff166105165760405162461bcd60e51b815260206004820152601460248201527314185d5cd8589b194e881b9bdd081c185d5cd95960621b60448201526064016105f2565b603380546001600160a01b038381166001600160a01b0319831681179093556040519116919082907f8be0079c531659141344cd1fd0a4f28419497f9722a3daafe3b4186f6b6457e090600090a35050565b600054610100900460ff16611cb75760405162461bcd60e51b81526004016105f2906120fc565b610516336118bb565b600060405163a9059cbb60e01b8152836004820152826024820152602060006044836000895af13d15601f3d116001600051141617169150508061194c5760405162461bcd60e51b815260206004820152600f60248201526e1514905394d1915497d19052531151608a1b60448201526064016105f2565b600060405163095ea7b360e01b8152836004820152826024820152602060006044836000895af13d15601f3d116001600051141617169150508061194c5760405162461bcd60e51b815260206004820152600e60248201526d1054141493d59157d1905253115160921b60448201526064016105f2565b600060208284031215611dc157600080fd5b5035919050565b80356001600160a01b038116811461050957600080fd5b600060208284031215611df157600080fd5b610c6882611dc8565b634e487b7160e01b600052604160045260246000fd5b604051601f8201601f1916810167ffffffffffffffff81118282101715611e3957611e39611dfa565b604052919050565b60006020808385031215611e5457600080fd5b823567ffffffffffffffff80821115611e6c57600080fd5b818501915085601f830112611e8057600080fd5b813581811115611e9257611e92611dfa565b8060051b9150611ea3848301611e10565b8181529183018401918481019088841115611ebd57600080fd5b938501935b83851015611ee257611ed385611dc8565b82529385019390850190611ec2565b98975050505050505050565b600080600080600060a08688031215611f0657600080fd5b611f0f86611dc8565b945060208601359350611f2460408701611dc8565b9250611f3260608701611dc8565b9150611f4060808701611dc8565b90509295509295909350565b60008060408385031215611f5f57600080fd5b611f6883611dc8565b946020939093013593505050565b634e487b7160e01b600052601160045260246000fd5b80820180821115610e1357610e13611f76565b81810381811115610e1357610e13611f76565b600060208284031215611fc457600080fd5b81518015158114610c6857600080fd5b634e487b7160e01b600052603260045260246000fd5b600060018201611ffc57611ffc611f76565b5060010190565b6020808252600f908201526e496e76616c6964204164647265737360881b604082015260600190565b60006020828403121561203e57600080fd5b5051919050565b60006080828403121561205757600080fd5b6040516080810181811067ffffffffffffffff8211171561207a5761207a611dfa565b8060405250825181526020830151602082015260408301516040820152606083015160608201528091505092915050565b8082028115828204841417610e1357610e13611f76565b6000826120df57634e487b7160e01b600052601260045260246000fd5b500490565b60006001600160ff1b018201611ffc57611ffc611f76565b6020808252602b908201527f496e697469616c697a61626c653a20636f6e7472616374206973206e6f74206960408201526a6e697469616c697a696e6760a81b60608201526080019056fea26469706673582212202d40ba9213a7fc470e4510d859868859c18730c186c0504e927a81843727497964736f6c63430008110033",
  "linkReferences": {},
  "deployedLinkReferences": {}
}