{
  "_format": "hh-sol-artifact-1",
  "contractName": "GaugeController",
  "sourceName": "contracts/GuageController.sol",
  "abi": [
    {
      "inputs": [
        {
          "internalType": "address",
          "name": "tokenAddress",
          "type": "address"
        },
        {
          "internalType": "address",
          "name": "votingEscrowAddress",
          "type": "address"
        }
      ],
      "stateMutability": "nonpayable",
      "type": "constructor"
    },
    {
      "anonymous": false,
      "inputs": [
        {
          "indexed": false,
          "internalType": "string",
          "name": "name",
          "type": "string"
        },
        {
          "indexed": false,
          "internalType": "int128",
          "name": "type_id",
          "type": "int128"
        }
      ],
      "name": "AddType",
      "type": "event"
    },
    {
      "anonymous": false,
      "inputs": [
        {
          "indexed": true,
          "internalType": "address",
          "name": "gauge_address",
          "type": "address"
        },
        {
          "indexed": false,
          "internalType": "int128",
          "name": "gauge_type",
          "type": "int128"
        },
        {
          "indexed": false,
          "internalType": "uint256",
          "name": "weight",
          "type": "uint256"
        }
      ],
      "name": "NewGauge",
      "type": "event"
    },
    {
      "anonymous": false,
      "inputs": [
        {
          "indexed": true,
          "internalType": "address",
          "name": "gauge_address",
          "type": "address"
        },
        {
          "indexed": false,
          "internalType": "uint256",
          "name": "time",
          "type": "uint256"
        },
        {
          "indexed": false,
          "internalType": "uint256",
          "name": "weight",
          "type": "uint256"
        },
        {
          "indexed": false,
          "internalType": "uint256",
          "name": "total_weight",
          "type": "uint256"
        }
      ],
      "name": "NewGaugeWeight",
      "type": "event"
    },
    {
      "anonymous": false,
      "inputs": [
        {
          "indexed": true,
          "internalType": "int128",
          "name": "type_id",
          "type": "int128"
        },
        {
          "indexed": false,
          "internalType": "uint256",
          "name": "time",
          "type": "uint256"
        },
        {
          "indexed": false,
          "internalType": "uint256",
          "name": "weight",
          "type": "uint256"
        },
        {
          "indexed": false,
          "internalType": "uint256",
          "name": "total_weight",
          "type": "uint256"
        }
      ],
      "name": "NewTypeWeight",
      "type": "event"
    },
    {
      "anonymous": false,
      "inputs": [
        {
          "indexed": true,
          "internalType": "address",
          "name": "previousOwner",
          "type": "address"
        },
        {
          "indexed": true,
          "internalType": "address",
          "name": "newOwner",
          "type": "address"
        }
      ],
      "name": "OwnershipTransferStarted",
      "type": "event"
    },
    {
      "anonymous": false,
      "inputs": [
        {
          "indexed": true,
          "internalType": "address",
          "name": "previousOwner",
          "type": "address"
        },
        {
          "indexed": true,
          "internalType": "address",
          "name": "newOwner",
          "type": "address"
        }
      ],
      "name": "OwnershipTransferred",
      "type": "event"
    },
    {
      "anonymous": false,
      "inputs": [
        {
          "indexed": true,
          "internalType": "address",
          "name": "user",
          "type": "address"
        },
        {
          "indexed": true,
          "internalType": "address",
          "name": "gauge_address",
          "type": "address"
        },
        {
          "indexed": false,
          "internalType": "uint256",
          "name": "time",
          "type": "uint256"
        },
        {
          "indexed": false,
          "internalType": "uint256",
          "name": "weight",
          "type": "uint256"
        }
      ],
      "name": "VoteForGauge",
      "type": "event"
    },
    {
      "inputs": [],
      "name": "acceptOwnership",
      "outputs": [],
      "stateMutability": "nonpayable",
      "type": "function"
    },
    {
      "inputs": [
        {
          "internalType": "address",
          "name": "addr",
          "type": "address"
        },
        {
          "internalType": "int128",
          "name": "gaugeType",
          "type": "int128"
        },
        {
          "internalType": "uint256",
          "name": "weight",
          "type": "uint256"
        }
      ],
      "name": "addGauge",
      "outputs": [],
      "stateMutability": "nonpayable",
      "type": "function"
    },
    {
      "inputs": [
        {
          "internalType": "string",
          "name": "_name",
          "type": "string"
        },
        {
          "internalType": "uint256",
          "name": "weight",
          "type": "uint256"
        }
      ],
      "name": "addType",
      "outputs": [],
      "stateMutability": "nonpayable",
      "type": "function"
    },
    {
      "inputs": [
        {
          "internalType": "address[]",
          "name": "gaugeAddressList",
          "type": "address[]"
        },
        {
          "internalType": "uint256[]",
          "name": "userWeightList",
          "type": "uint256[]"
        }
      ],
      "name": "batchVoteForGaugeWeights",
      "outputs": [],
      "stateMutability": "nonpayable",
      "type": "function"
    },
    {
      "inputs": [
        {
          "internalType": "address",
          "name": "gaugeAddress",
          "type": "address"
        },
        {
          "internalType": "uint256",
          "name": "weight",
          "type": "uint256"
        }
      ],
      "name": "changeGaugeWeight",
      "outputs": [],
      "stateMutability": "nonpayable",
      "type": "function"
    },
    {
      "inputs": [
        {
          "internalType": "int128",
          "name": "typeId",
          "type": "int128"
        },
        {
          "internalType": "uint256",
          "name": "weight",
          "type": "uint256"
        }
      ],
      "name": "changeTypeWeight",
      "outputs": [],
      "stateMutability": "nonpayable",
      "type": "function"
    },
    {
      "inputs": [
        {
          "internalType": "int128",
          "name": "",
          "type": "int128"
        },
        {
          "internalType": "uint256",
          "name": "",
          "type": "uint256"
        }
      ],
      "name": "changesSum",
      "outputs": [
        {
          "internalType": "uint256",
          "name": "",
          "type": "uint256"
        }
      ],
      "stateMutability": "view",
      "type": "function"
    },
    {
      "inputs": [],
      "name": "checkpoint",
      "outputs": [],
      "stateMutability": "nonpayable",
      "type": "function"
    },
    {
      "inputs": [
        {
          "internalType": "address",
          "name": "addr",
          "type": "address"
        }
      ],
      "name": "checkpointGauge",
      "outputs": [],
      "stateMutability": "nonpayable",
      "type": "function"
    },
    {
      "inputs": [
        {
          "internalType": "address",
          "name": "gaugeAddress",
          "type": "address"
        },
        {
          "internalType": "uint256",
          "name": "time",
          "type": "uint256"
        }
      ],
      "name": "gaugeRelativeWeight",
      "outputs": [
        {
          "internalType": "uint256",
          "name": "",
          "type": "uint256"
        }
      ],
      "stateMutability": "view",
      "type": "function"
    },
    {
      "inputs": [
        {
          "internalType": "address",
          "name": "gaugeAddress",
          "type": "address"
        },
        {
          "internalType": "uint256",
          "name": "time",
          "type": "uint256"
        }
      ],
      "name": "gaugeRelativeWeightWrite",
      "outputs": [
        {
          "internalType": "uint256",
          "name": "",
          "type": "uint256"
        }
      ],
      "stateMutability": "nonpayable",
      "type": "function"
    },
    {
      "inputs": [
        {
          "internalType": "int128",
          "name": "",
          "type": "int128"
        }
      ],
      "name": "gaugeTypeNames",
      "outputs": [
        {
          "internalType": "string",
          "name": "",
          "type": "string"
        }
      ],
      "stateMutability": "view",
      "type": "function"
    },
    {
      "inputs": [
        {
          "internalType": "address",
          "name": "_addr",
          "type": "address"
        }
      ],
      "name": "gaugeTypes",
      "outputs": [
        {
          "internalType": "int128",
          "name": "",
          "type": "int128"
        }
      ],
      "stateMutability": "view",
      "type": "function"
    },
    {
      "inputs": [
        {
          "internalType": "uint256",
          "name": "",
          "type": "uint256"
        }
      ],
      "name": "gauges",
      "outputs": [
        {
          "internalType": "address",
          "name": "",
          "type": "address"
        }
      ],
      "stateMutability": "view",
      "type": "function"
    },
    {
      "inputs": [
        {
          "internalType": "address",
          "name": "addr",
          "type": "address"
        }
      ],
      "name": "getGaugeWeight",
      "outputs": [
        {
          "internalType": "uint256",
          "name": "",
          "type": "uint256"
        }
      ],
      "stateMutability": "view",
      "type": "function"
    },
    {
      "inputs": [],
      "name": "getTotalWeight",
      "outputs": [
        {
          "internalType": "uint256",
          "name": "",
          "type": "uint256"
        }
      ],
      "stateMutability": "view",
      "type": "function"
    },
    {
      "inputs": [
        {
          "internalType": "int128",
          "name": "typeId",
          "type": "int128"
        }
      ],
      "name": "getTypeWeight",
      "outputs": [
        {
          "internalType": "uint256",
          "name": "",
          "type": "uint256"
        }
      ],
      "stateMutability": "view",
      "type": "function"
    },
    {
      "inputs": [
        {
          "internalType": "int128",
          "name": "typeId",
          "type": "int128"
        }
      ],
      "name": "getWeightsSumPreType",
      "outputs": [
        {
          "internalType": "uint256",
          "name": "",
          "type": "uint256"
        }
      ],
      "stateMutability": "view",
      "type": "function"
    },
    {
      "inputs": [
        {
          "internalType": "address",
          "name": "",
          "type": "address"
        },
        {
          "internalType": "address",
          "name": "",
          "type": "address"
        }
      ],
      "name": "lastUserVote",
      "outputs": [
        {
          "internalType": "uint256",
          "name": "",
          "type": "uint256"
        }
      ],
      "stateMutability": "view",
      "type": "function"
    },
    {
      "inputs": [
        {
          "internalType": "address",
          "name": "",
          "type": "address"
        },
        {
          "internalType": "address",
          "name": "",
          "type": "address"
        }
      ],
      "name": "lastVoteVeLtPointEpoch",
      "outputs": [
        {
          "internalType": "uint256",
          "name": "",
          "type": "uint256"
        }
      ],
      "stateMutability": "view",
      "type": "function"
    },
    {
      "inputs": [],
      "name": "nGauge",
      "outputs": [
        {
          "internalType": "int128",
          "name": "",
          "type": "int128"
        }
      ],
      "stateMutability": "view",
      "type": "function"
    },
    {
      "inputs": [],
      "name": "nGaugeTypes",
      "outputs": [
        {
          "internalType": "int128",
          "name": "",
          "type": "int128"
        }
      ],
      "stateMutability": "view",
      "type": "function"
    },
    {
      "inputs": [],
      "name": "owner",
      "outputs": [
        {
          "internalType": "address",
          "name": "",
          "type": "address"
        }
      ],
      "stateMutability": "view",
      "type": "function"
    },
    {
      "inputs": [],
      "name": "pendingOwner",
      "outputs": [
        {
          "internalType": "address",
          "name": "",
          "type": "address"
        }
      ],
      "stateMutability": "view",
      "type": "function"
    },
    {
      "inputs": [
        {
          "internalType": "int128",
          "name": "",
          "type": "int128"
        },
        {
          "internalType": "uint256",
          "name": "",
          "type": "uint256"
        }
      ],
      "name": "pointsSum",
      "outputs": [
        {
          "internalType": "uint256",
          "name": "bias",
          "type": "uint256"
        },
        {
          "internalType": "uint256",
          "name": "slope",
          "type": "uint256"
        }
      ],
      "stateMutability": "view",
      "type": "function"
    },
    {
      "inputs": [
        {
          "internalType": "uint256",
          "name": "",
          "type": "uint256"
        }
      ],
      "name": "pointsTotal",
      "outputs": [
        {
          "internalType": "uint256",
          "name": "",
          "type": "uint256"
        }
      ],
      "stateMutability": "view",
      "type": "function"
    },
    {
      "inputs": [
        {
          "internalType": "int128",
          "name": "",
          "type": "int128"
        },
        {
          "internalType": "uint256",
          "name": "",
          "type": "uint256"
        }
      ],
      "name": "pointsTypeWeight",
      "outputs": [
        {
          "internalType": "uint256",
          "name": "",
          "type": "uint256"
        }
      ],
      "stateMutability": "view",
      "type": "function"
    },
    {
      "inputs": [
        {
          "internalType": "address",
          "name": "",
          "type": "address"
        },
        {
          "internalType": "uint256",
          "name": "",
          "type": "uint256"
        }
      ],
      "name": "pointsWeight",
      "outputs": [
        {
          "internalType": "uint256",
          "name": "bias",
          "type": "uint256"
        },
        {
          "internalType": "uint256",
          "name": "slope",
          "type": "uint256"
        }
      ],
      "stateMutability": "view",
      "type": "function"
    },
    {
      "inputs": [],
      "name": "renounceOwnership",
      "outputs": [],
      "stateMutability": "nonpayable",
      "type": "function"
    },
    {
      "inputs": [
        {
          "internalType": "uint256",
          "name": "",
          "type": "uint256"
        }
      ],
      "name": "timeSum",
      "outputs": [
        {
          "internalType": "uint256",
          "name": "",
          "type": "uint256"
        }
      ],
      "stateMutability": "view",
      "type": "function"
    },
    {
      "inputs": [],
      "name": "timeTotal",
      "outputs": [
        {
          "internalType": "uint256",
          "name": "",
          "type": "uint256"
        }
      ],
      "stateMutability": "view",
      "type": "function"
    },
    {
      "inputs": [
        {
          "internalType": "uint256",
          "name": "",
          "type": "uint256"
        }
      ],
      "name": "timeTypeWeight",
      "outputs": [
        {
          "internalType": "uint256",
          "name": "",
          "type": "uint256"
        }
      ],
      "stateMutability": "view",
      "type": "function"
    },
    {
      "inputs": [
        {
          "internalType": "address",
          "name": "",
          "type": "address"
        }
      ],
      "name": "timeWeight",
      "outputs": [
        {
          "internalType": "uint256",
          "name": "",
          "type": "uint256"
        }
      ],
      "stateMutability": "view",
      "type": "function"
    },
    {
      "inputs": [],
      "name": "token",
      "outputs": [
        {
          "internalType": "address",
          "name": "",
          "type": "address"
        }
      ],
      "stateMutability": "view",
      "type": "function"
    },
    {
      "inputs": [
        {
          "internalType": "address",
          "name": "newOwner",
          "type": "address"
        }
      ],
      "name": "transferOwnership",
      "outputs": [],
      "stateMutability": "nonpayable",
      "type": "function"
    },
    {
      "inputs": [
        {
          "internalType": "address",
          "name": "gaugeAddress",
          "type": "address"
        },
        {
          "internalType": "uint256",
          "name": "userWeight",
          "type": "uint256"
        }
      ],
      "name": "voteForGaugeWeights",
      "outputs": [],
      "stateMutability": "nonpayable",
      "type": "function"
    },
    {
      "inputs": [
        {
          "internalType": "address",
          "name": "",
          "type": "address"
        }
      ],
      "name": "voteUserPower",
      "outputs": [
        {
          "internalType": "uint256",
          "name": "",
          "type": "uint256"
        }
      ],
      "stateMutability": "view",
      "type": "function"
    },
    {
      "inputs": [
        {
          "internalType": "address",
          "name": "",
          "type": "address"
        },
        {
          "internalType": "address",
          "name": "",
          "type": "address"
        }
      ],
      "name": "voteUserSlopes",
      "outputs": [
        {
          "internalType": "uint256",
          "name": "slope",
          "type": "uint256"
        },
        {
          "internalType": "uint256",
          "name": "power",
          "type": "uint256"
        },
        {
          "internalType": "uint256",
          "name": "end",
          "type": "uint256"
        }
      ],
      "stateMutability": "view",
      "type": "function"
    },
    {
      "inputs": [
        {
          "internalType": "address",
          "name": "",
          "type": "address"
        },
        {
          "internalType": "address",
          "name": "",
          "type": "address"
        },
        {
          "internalType": "uint256",
          "name": "",
          "type": "uint256"
        }
      ],
      "name": "voteVeLtPointHistory",
      "outputs": [
        {
          "internalType": "uint256",
          "name": "bias",
          "type": "uint256"
        },
        {
          "internalType": "uint256",
          "name": "slope",
          "type": "uint256"
        },
        {
          "internalType": "uint256",
          "name": "ts",
          "type": "uint256"
        },
        {
          "internalType": "uint256",
          "name": "blk",
          "type": "uint256"
        }
      ],
      "stateMutability": "view",
      "type": "function"
    },
    {
      "inputs": [],
      "name": "votingEscrow",
      "outputs": [
        {
          "internalType": "address",
          "name": "",
          "type": "address"
        }
      ],
      "stateMutability": "view",
      "type": "function"
    }
  ],
  "bytecode": "0x60c06040523480156200001157600080fd5b5060405162002bc338038062002bc38339810160408190526200003491620001d0565b6200003f33620000f9565b6001600160a01b038216620000835760405162461bcd60e51b8152602060048201526005602482015264043453030360dc1b60448201526064015b60405180910390fd5b6001600160a01b038116620000c35760405162461bcd60e51b8152602060048201526005602482015264043453030360dc1b60448201526064016200007a565b6001600160a01b03828116608052811660a052620000ed4262000123602090811b6200184317901c565b60125550620002519050565b600180546001600160a01b0319169055620001208162000163602090811b6200187517901c565b50565b60006200013562015180600762000208565b6200014562015180600762000208565b6200015190846200022e565b6200015d919062000208565b92915050565b600080546001600160a01b038381166001600160a01b0319831681178455604051919092169283917f8be0079c531659141344cd1fd0a4f28419497f9722a3daafe3b4186f6b6457e09190a35050565b80516001600160a01b0381168114620001cb57600080fd5b919050565b60008060408385031215620001e457600080fd5b620001ef83620001b3565b9150620001ff60208401620001b3565b90509250929050565b80820281158282048414176200015d57634e487b7160e01b600052601160045260246000fd5b6000826200024c57634e487b7160e01b600052601260045260246000fd5b500490565b60805160a05161293e62000285600039600081816103bc015281816109790152610a0f0152600061078f015261293e6000f3fe608060405234801561001057600080fd5b50600436106102485760003560e01c80638aca6a231161013b578063e0ab067e116100b8578063eab9041e1161007c578063eab9041e146106fa578063ec73d90614610725578063f2fde38b14610745578063f763d1ff14610758578063fc0c546a1461078a57600080fd5b8063e0ab067e1461064e578063e24862e814610661578063e30c397814610674578063e4036c6d14610685578063e75ec699146106a557600080fd5b8063b827ab79116100ff578063b827ab7914610543578063bb18d47a14610586578063c06cd02b14610599578063c2c4c5c1146105ff578063c3a6ca131461060757600080fd5b80638aca6a23146104d65780638da5cb5b146104e95780639e08e3ef146104fa5780639fbd4f6614610507578063b05391871461051a57600080fd5b806356cbfac5116101c95780637244d9601161018d5780637244d9601461044d57806372be52761461046057806377bc2ae01461049b57806379ba5097146104bb578063870e3733146104c357600080fd5b806356cbfac5146103f657806365c6046814610409578063688f3f1f1461041c5780636eb2d62c14610425578063715018a61461044557600080fd5b80632783142d116102105780632783142d14610330578063289f338f146103575780632d17469114610377578063362985ab1461038c5780634f2bfe5b146103b757600080fd5b8063057c9cb41461024d57806306aba0e11461028057806310d1ba5814610297578063117610fc146102da57806326f4ed5114610305575b600080fd5b61026d61025b366004612278565b60116020526000908152604090205481565b6040519081526020015b60405180910390f35b60125460009081526011602052604090205461026d565b61026d6102a53660046122a8565b600f81900b60009081526013602090815260408083206001600160801b03909416835260148252808320548352929052205490565b61026d6102e83660046122c3565b600f60209081526000928352604080842090915290825290205481565b61026d610313366004612304565b600860209081526000928352604080842090915290825290205481565b60025461034490600160801b9004600f0b81565b604051600f9190910b8152602001610277565b61026d610365366004612337565b600d6020526000908152604090205481565b61038a610385366004612352565b6107b1565b005b61026d61039a366004612304565b600a60209081526000928352604080842090915290825290205481565b6103de7f000000000000000000000000000000000000000000000000000000000000000081565b6040516001600160a01b039091168152602001610277565b61038a610404366004612444565b610833565b61026d610417366004612352565b6108d2565b61026d60125481565b61026d610433366004612278565b60146020526000908152604090205481565b61038a6108e7565b61038a61045b366004612352565b6108fb565b61026d61046e366004612337565b6001600160a01b03166000908152600b60209081526040808320600d835281842054845290915290205490565b61026d6104a9366004612278565b60106020526000908152604090205481565b61038a61129e565b61038a6104d1366004612504565b611318565b61038a6104e4366004612337565b6113b8565b6000546001600160a01b03166103de565b60025461034490600f0b81565b61038a61051536600461259e565b6113ce565b6103de610528366004612278565b6004602052600090815260409020546001600160a01b031681565b61026d6105513660046122a8565b600f81900b6000908152600e602090815260408083206001600160801b03909416835260108252808320548352929052205490565b61026d610594366004612352565b61169a565b6105df6105a73660046125da565b600960209081526000938452604080852082529284528284209052825290208054600182015460028301546003909301549192909184565b604080519485526020850193909352918301526060820152608001610277565b61038a6116b9565b610639610615366004612352565b600b6020908152600092835260408084209091529082529020805460019091015482565b60408051928352602083019190915201610277565b61038a61065c3660046122c3565b6116c1565b61034461066f366004612337565b6116d3565b6001546001600160a01b03166103de565b6106986106933660046122a8565b611738565b604051610277919061264c565b6106df6106b3366004612304565b600660209081526000928352604080842090915290825290208054600182015460029092015490919083565b60408051938452602084019290925290820152606001610277565b61026d6107083660046122c3565b601360209081526000928352604080842090915290825290205481565b61026d610733366004612337565b60076020526000908152604090205481565b61038a610753366004612337565b6117d2565b6106396107663660046122c3565b600e6020908152600092835260408084209091529082529020805460019091015482565b6103de7f000000000000000000000000000000000000000000000000000000000000000081565b6107b96118c5565b6001600160a01b0382166000908152600560205260408120546107e190600190600f0b612675565b9050600081600f0b12156108245760405162461bcd60e51b8152602060048201526005602482015264047433030360dc1b60448201526064015b60405180910390fd5b61082e838361191f565b505050565b805182511461086c5760405162461bcd60e51b8152602060048201526005602482015264474330303760d81b604482015260640161081b565b60005b82518110801561087f5750608081105b1561082e576108c0838281518110610899576108996126a2565b60200260200101518383815181106108b3576108b36126a2565b60200260200101516108fb565b806108ca816126b8565b91505061086f565b60006108de8383611aac565b90505b92915050565b6108ef6118c5565b6108f96000611b76565b565b6001600160a01b03821660009081526005602052604081205461092390600190600f0b612675565b9050600081600f0b12156109615760405162461bcd60e51b8152602060048201526005602482015264047433030360dc1b604482015260640161081b565b604051631e74dac160e31b81523360048201526000907f00000000000000000000000000000000000000000000000000000000000000006001600160a01b03169063f3a6d60890602401602060405180830381865afa1580156109c8573d6000803e3d6000fd5b505050506040513d601f19601f820116820180604052508101906109ec91906126d1565b6040516326f57e5760e11b81523360048201529091506000906001600160a01b037f00000000000000000000000000000000000000000000000000000000000000001690634deafcae90602401602060405180830381865afa158015610a56573d6000803e3d6000fd5b505050506040513d601f19601f82011682018060405250810190610a7a91906126d1565b90506000610a9e610a8f6201518060076126ea565b610a999042612701565b611843565b9050808211610ad75760405162461bcd60e51b8152602060048201526005602482015264474330303360d81b604482015260640161081b565b612710851115610b115760405162461bcd60e51b815260206004820152600560248201526411d0cc0c0d60da1b604482015260640161081b565b610b1f62015180600a6126ea565b3360009081526008602090815260408083206001600160a01b038b168452909152902054610b4d9190612701565b421015610b845760405162461bcd60e51b8152602060048201526005602482015264474330303560d81b604482015260640161081b565b610b8c6121cf565b3360009081526006602090815260408083206001600160a01b038b16845282528083208151606081018352815481526001820154938101939093526002015482820190815291845283019190915251821015610bf957805160400151610bf3908390612714565b60408201525b6040810151815151610c0b91906126ea565b60608083019190915260408051918201905280612710610c2b89886126ea565b610c359190612727565b815260208082018990526040909101859052820152610c548284612714565b60808201819052602082015151610c6b91906126ea565b60a08201908152604080516080810182529151825260208084018051518285015283830186905243606085015260c08501939093523360009081526007825291909120548351820151925190910151909190610cc79083612701565b610cd19190612714565b3360009081526007602052604090208190559050612710811115610d1f5760405162461bcd60e51b815260206004820152600560248201526423a198181b60d91b604482015260640161081b565b6000610d2a89611b8f565b6001600160a01b038a166000908152600b60209081526040808320888452909152812060010154919250610d5d89611d1c565b600f8a900b6000908152600e602090815260408083208a8452909152902060010154606087015160a08801519293509091610da690610d9c9087612701565b8860600151611e92565b610db09190612714565b6001600160a01b038d166000908152600b602090815260408083208b8452909152902055606086015160a0870151610dec90610d9c9085612701565b610df69190612714565b600f8b900b6000908152600e602090815260408083208b8452909152908190209190915586510151871015610ebf57855151602087015151610e4490610e3c9086612701565b885151611e92565b610e4e9190612714565b6001600160a01b038d166000908152600b602090815260408083208b84528252909120600101919091558651519087015151610e8e90610e3c9084612701565b610e989190612714565b600f8b900b6000908152600e602090815260408083208b8452909152902060010155610f3d565b602080870151516001600160a01b038e166000908152600b835260408082208b8352909352918220600101805491929091610efb908490612701565b909155505060208087015151600f8c900b6000908152600e835260408082208b8352909352918220600101805491929091610f37908490612701565b90915550505b855160400151421015610fc3578551516001600160a01b038d166000908152600c602090815260408083208a51820151845290915281208054909190610f84908490612714565b9091555050855151600f8b810b6000908152602091825260408082208a5182015183529092529081208054909190610fbd908490612714565b90915550505b60208087018051516001600160a01b038f166000908152600c845260408082209351810151825292909352908220805491929091611002908490612701565b90915550506020808701805151600f8d810b600090815290845260408082209351810151825292909352908220805491929091611040908490612701565b9091555061104e9050611ea8565b50856020015160066000336001600160a01b03166001600160a01b0316815260200190815260200160002060008e6001600160a01b03166001600160a01b031681526020019081526020016000206000820151816000015560208201518160010155604082015181600201559050504260086000336001600160a01b03166001600160a01b0316815260200190815260200160002060008e6001600160a01b03166001600160a01b03168152602001908152602001600020819055506000600a6000336001600160a01b03166001600160a01b0316815260200190815260200160002060008e6001600160a01b03166001600160a01b031681526020019081526020016000205460016111619190612701565b90508660c0015160096000336001600160a01b03166001600160a01b0316815260200190815260200160002060008f6001600160a01b03166001600160a01b0316815260200190815260200160002060008381526020019081526020016000206000820151816000015560208201518160010155604082015181600201556060820151816003015590505080600a6000336001600160a01b03166001600160a01b0316815260200190815260200160002060008f6001600160a01b03166001600160a01b03168152602001908152602001600020819055508c6001600160a01b0316336001600160a01b03167f1c7e73dc96bf8bde51bba810e91ebd6a448c78b41ba72cadae0c1c5a287bbb29428f604051611287929190918252602082015260400190565b60405180910390a350505050505050505050505050565b60015433906001600160a01b0316811461130c5760405162461bcd60e51b815260206004820152602960248201527f4f776e61626c6532537465703a2063616c6c6572206973206e6f7420746865206044820152683732bb9037bbb732b960b91b606482015260840161081b565b61131581611b76565b50565b6113206118c5565b600254600f0b600081815260036020526040902061133e84826127d1565b5061134a816001612891565b600280546001600160801b0319166001600160801b0392909216919091179055811561137a5761137a8183612010565b7f6fbe76157c712f16b5a3c44ed48baa04e3450bc3fab0c020e848aca72bbccc8483826040516113ab9291906128be565b60405180910390a1505050565b6113c181611b8f565b506113ca611ea8565b5050565b6113d66118c5565b600082600f0b121580156113f35750600254600f90810b9083900b125b6114275760405162461bcd60e51b8152602060048201526005602482015264474330303160d81b604482015260640161081b565b6001600160a01b038316600090815260056020526040902054600f0b156114785760405162461bcd60e51b815260206004820152600560248201526423a198181960d91b604482015260640161081b565b600254600160801b9004600f0b611490816001612891565b600280546001600160801b03928316600160801b02921691909117905583600460006114c2846001600160801b031690565b8152602081019190915260400160002080546001600160a01b0319166001600160a01b03929092169190911790556114fb836001612891565b6001600160a01b038516600090815260056020526040812080546001600160801b0319166001600160801b039390931692909217909155611543610a8f6201518060076126ea565b905082156115ff57600061155685612105565b9050600061156386611d1c565b9050600061156f611ea8565b905061157b8287612701565b600f88900b6000908152600e602090815260408083208884528252808320939093556001600160801b038a16825260109052208490556115bb86846126ea565b6115c59082612701565b60008581526011602090815260408083209390935560128790556001600160a01b038b168252600b81528282208783529052208690555050505b6001600160801b038416600090815260106020526040812054900361163a576001600160801b03841660009081526010602052604090208190555b6001600160a01b0385166000818152600d60209081526040918290208490558151600f88900b81529081018690527ffd55b3191f9c9dd92f4f134dd700e7d76f6a0c836a08687023d6d38f03ebd877910160405180910390a25050505050565b60006116a583611b8f565b506116ae611ea8565b506108de8383611aac565b611315611ea8565b6116c96118c5565b6113ca8282612010565b6001600160a01b038116600090815260056020526040812054600f0b8082036117265760405162461bcd60e51b8152602060048201526005602482015264043453030360dc1b604482015260640161081b565b611731600182612675565b9392505050565b6003602052600090815260409020805461175190612749565b80601f016020809104026020016040519081016040528092919081815260200182805461177d90612749565b80156117ca5780601f1061179f576101008083540402835291602001916117ca565b820191906000526020600020905b8154815290600101906020018083116117ad57829003601f168201915b505050505081565b6117da6118c5565b600180546001600160a01b0383166001600160a01b0319909116811790915561180b6000546001600160a01b031690565b6001600160a01b03167f38d16b8cac22d99fc7c124b9cd0de2d3fa1faef420bfe791d8c362d765e2270060405160405180910390a350565b60006118536201518060076126ea565b6118616201518060076126ea565b61186b9084612727565b6108e191906126ea565b600080546001600160a01b038381166001600160a01b0319831681178455604051919092169283917f8be0079c531659141344cd1fd0a4f28419497f9722a3daafe3b4186f6b6457e09190a35050565b6000546001600160a01b031633146108f95760405162461bcd60e51b815260206004820181905260248201527f4f776e61626c653a2063616c6c6572206973206e6f7420746865206f776e6572604482015260640161081b565b6001600160a01b03821660009081526005602052604081205461194790600190600f0b612675565b9050600061195484611b8f565b9050600061196183612105565b9050600061196e84611d1c565b9050600061197a611ea8565b9050600061198f610a8f6201518060076126ea565b6001600160a01b0389166000818152600b6020908152604080832085845282528083208c9055928252600d9052908120829055909150856119d08986612701565b6119da9190612714565b600f88900b6000908152600e6020908152604080832086845282528083208490556001600160801b038b168352601090915290208390559050611a1d85856126ea565b611a2786836126ea565b611a319085612701565b611a3b9190612714565b600083815260116020908152604091829020839055601285905581514281529081018b90529081018290529093506001600160a01b038a16907f54c0cf3647e6cdb2fc0a7876e60ba77563fceedf2e06c01c597f8dccb9e6bd729060600160405180910390a2505050505050505050565b600080611ab883611843565b60008181526011602052604090205490915080611ada576000925050506108e1565b6001600160a01b038516600090815260056020526040812054611b0290600190600f0b612675565b600f81900b60009081526013602090815260408083208784528252808320546001600160a01b038b168452600b835281842088855290925290912054919250908381611b5684670de0b6b3a76400006126ea565b611b6091906126ea565b611b6a9190612727565b98975050505050505050565b600180546001600160a01b031916905561131581611875565b6001600160a01b0381166000908152600d602052604081205480611bb65750600092915050565b6001600160a01b0383166000908152600b6020908152604080832084845282528083208151808301909252805482526001015491810191909152905b6101f4811015611d1357428311611d1357611c116201518060076126ea565b611c1b9084612701565b92506000611c2d6201518060076126ea565b8360200151611c3c91906126ea565b90508083600001511115611ca0578083600001818151611c5c9190612714565b9052506001600160a01b0386166000908152600c602090815260408083208784528252909120549084018051829190611c96908390612714565b905250611cab9050565b600080845260208401525b6001600160a01b0386166000908152600b602090815260408083208784528252909120845181559084015160019091015542841115611d00576001600160a01b0386166000908152600d602052604090208490555b5080611d0b816126b8565b915050611bf2565b50519392505050565b6001600160801b03811660008181526010602052604081205490919080611d47575060009392505050565b600f84900b6000908152600e6020908152604080832084845282528083208151808301909252805482526001015491810191909152905b6101f4811015611e8857428311611e8857611d9d6201518060076126ea565b611da79084612701565b92506000611db96201518060076126ea565b8360200151611dc891906126ea565b90508083600001511115611e24578083600001818151611de89190612714565b905250600f87810b60009081526020918252604080822087835283529020549084018051829190611e1a908390612714565b905250611e2f9050565b600080845260208401525b600f87900b6000908152600e602090815260408083208784528252909120845181559084015160019091015542841115611e755760008581526010602052604090208490555b5080611e80816126b8565b915050611d7e565b5051949350505050565b6000818311611ea157816108de565b5090919050565b60125460025460009190600f0b42821115611ed857611ecb6201518060076126ea565b611ed59083612714565b91505b600082815260116020526040812054905b606481600f0b1215611f295782600f0b81600f0b0315611f2957611f0c81611d1c565b50611f1681612105565b5080611f21816128e3565b915050611ee9565b5060005b6101f48110156120085742841161200857611f4c6201518060076126ea565b611f569085612701565b93506000915060005b606481600f0b1215611fd65783600f0b81600f0b0315611fd657600f81900b6000818152600e6020908152604080832089845282528083205493835260138252808320898452909152902054611fb581836126ea565b611fbf9086612701565b945050508080611fce906128e3565b915050611f5f565b50600084815260116020526040902082905542841115611ff65760128490555b80612000816126b8565b915050611f2d565b509392505050565b600061201b83612105565b9050600061202884611d1c565b90506000612034611ea8565b90506000612049610a8f6201518060076126ea565b905061205584846126ea565b61205f86856126ea565b6120699084612701565b6120739190612714565b6000828152601160209081526040808320849055600f8a900b8084526013835281842086855283528184208a905560128690556001600160801b038b168452601483529281902085905580518581529182018990528101839052919350907e170bcdc909b6ac6e12d020fe8942256312cdcd555fb6d712899eba56d2f9019060600160405180910390a2505050505050565b6001600160801b0381166000908152601460205260408120548061212c5750600092915050565b600f83900b6000908152601360209081526040808320848452909152812054905b6101f4811015612008574283116120085761216c6201518060076126ea565b6121769084612701565b600f86900b600090815260136020908152604080832084845290915290208390559250428311156121bd576001600160801b03851660009081526014602052604090208390555b806121c7816126b8565b91505061214d565b6040518060e001604052806121fe60405180606001604052806000815260200160008152602001600081525090565b815260200161222760405180606001604052806000815260200160008152602001600081525090565b8152602001600081526020016000815260200160008152602001600081526020016122736040518060800160405280600081526020016000815260200160008152602001600081525090565b905290565b60006020828403121561228a57600080fd5b5035919050565b8035600f81900b81146122a357600080fd5b919050565b6000602082840312156122ba57600080fd5b6108de82612291565b600080604083850312156122d657600080fd5b6122df83612291565b946020939093013593505050565b80356001600160a01b03811681146122a357600080fd5b6000806040838503121561231757600080fd5b612320836122ed565b915061232e602084016122ed565b90509250929050565b60006020828403121561234957600080fd5b6108de826122ed565b6000806040838503121561236557600080fd5b6122df836122ed565b634e487b7160e01b600052604160045260246000fd5b604051601f8201601f1916810167ffffffffffffffff811182821017156123ad576123ad61236e565b604052919050565b600067ffffffffffffffff8211156123cf576123cf61236e565b5060051b60200190565b600082601f8301126123ea57600080fd5b813560206123ff6123fa836123b5565b612384565b82815260059290921b8401810191818101908684111561241e57600080fd5b8286015b848110156124395780358352918301918301612422565b509695505050505050565b6000806040838503121561245757600080fd5b823567ffffffffffffffff8082111561246f57600080fd5b818501915085601f83011261248357600080fd5b813560206124936123fa836123b5565b82815260059290921b840181019181810190898411156124b257600080fd5b948201945b838610156124d7576124c8866122ed565b825294820194908201906124b7565b965050860135925050808211156124ed57600080fd5b506124fa858286016123d9565b9150509250929050565b6000806040838503121561251757600080fd5b823567ffffffffffffffff8082111561252f57600080fd5b818501915085601f83011261254357600080fd5b81356020828211156125575761255761236e565b612569601f8301601f19168201612384565b9250818352878183860101111561257f57600080fd5b8181850182850137600091830181019190915290969401359450505050565b6000806000606084860312156125b357600080fd5b6125bc846122ed565b92506125ca60208501612291565b9150604084013590509250925092565b6000806000606084860312156125ef57600080fd5b6125f8846122ed565b92506125ca602085016122ed565b6000815180845260005b8181101561262c57602081850181015186830182015201612610565b506000602082860101526020601f19601f83011685010191505092915050565b6020815260006108de6020830184612606565b634e487b7160e01b600052601160045260246000fd5b600f82810b9082900b0360016001607f1b0319811260016001607f1b03821317156108e1576108e161265f565b634e487b7160e01b600052603260045260246000fd5b6000600182016126ca576126ca61265f565b5060010190565b6000602082840312156126e357600080fd5b5051919050565b80820281158282048414176108e1576108e161265f565b808201808211156108e1576108e161265f565b818103818111156108e1576108e161265f565b60008261274457634e487b7160e01b600052601260045260246000fd5b500490565b600181811c9082168061275d57607f821691505b60208210810361277d57634e487b7160e01b600052602260045260246000fd5b50919050565b601f82111561082e57600081815260208120601f850160051c810160208610156127aa5750805b601f850160051c820191505b818110156127c9578281556001016127b6565b505050505050565b815167ffffffffffffffff8111156127eb576127eb61236e565b6127ff816127f98454612749565b84612783565b602080601f831160018114612834576000841561281c5750858301515b600019600386901b1c1916600185901b1785556127c9565b600085815260208120601f198616915b8281101561286357888601518255948401946001909101908401612844565b50858210156128815787850151600019600388901b60f8161c191681555b5050505050600190811b01905550565b600f81810b9083900b0160016001607f1b03811360016001607f1b0319821217156108e1576108e161265f565b6040815260006128d16040830185612606565b905082600f0b60208301529392505050565b600081600f0b60016001607f1b0381036128ff576128ff61265f565b6001019291505056fea26469706673582212205213d37316470d4449f1df3312e0d95e2c1849d2f683bab21c9d6d3a2701d70264736f6c63430008110033",
  "linkReferences": {},
  "deployedLinkReferences": {}
}