{
  "_format": "hh-sol-artifact-1",
  "contractName": "GaugeFeeDistributor",
  "sourceName": "contracts/feeDistributor/GaugeFeeDistributor.sol",
  "abi": [
    {
      "anonymous": false,
      "inputs": [
        {
          "indexed": false,
          "internalType": "uint256",
          "name": "time",
          "type": "uint256"
        },
        {
          "indexed": false,
          "internalType": "uint256",
          "name": "tokens",
          "type": "uint256"
        }
      ],
      "name": "CheckpointToken",
      "type": "event"
    },
    {
      "anonymous": false,
      "inputs": [
        {
          "indexed": true,
          "internalType": "address",
          "name": "gauge",
          "type": "address"
        },
        {
          "indexed": true,
          "internalType": "address",
          "name": "recipient",
          "type": "address"
        },
        {
          "indexed": false,
          "internalType": "uint256",
          "name": "amount",
          "type": "uint256"
        },
        {
          "indexed": false,
          "internalType": "uint256",
          "name": "claimEpoch",
          "type": "uint256"
        },
        {
          "indexed": false,
          "internalType": "uint256",
          "name": "maxEpoch",
          "type": "uint256"
        }
      ],
      "name": "Claimed",
      "type": "event"
    },
    {
      "anonymous": false,
      "inputs": [
        {
          "indexed": false,
          "internalType": "uint8",
          "name": "version",
          "type": "uint8"
        }
      ],
      "name": "Initialized",
      "type": "event"
    },
    {
      "anonymous": false,
      "inputs": [
        {
          "indexed": true,
          "internalType": "address",
          "name": "previousOwner",
          "type": "address"
        },
        {
          "indexed": true,
          "internalType": "address",
          "name": "newOwner",
          "type": "address"
        }
      ],
      "name": "OwnershipTransferStarted",
      "type": "event"
    },
    {
      "anonymous": false,
      "inputs": [
        {
          "indexed": true,
          "internalType": "address",
          "name": "previousOwner",
          "type": "address"
        },
        {
          "indexed": true,
          "internalType": "address",
          "name": "newOwner",
          "type": "address"
        }
      ],
      "name": "OwnershipTransferred",
      "type": "event"
    },
    {
      "anonymous": false,
      "inputs": [
        {
          "indexed": false,
          "internalType": "address",
          "name": "account",
          "type": "address"
        }
      ],
      "name": "Paused",
      "type": "event"
    },
    {
      "anonymous": false,
      "inputs": [
        {
          "indexed": true,
          "internalType": "address",
          "name": "token",
          "type": "address"
        },
        {
          "indexed": true,
          "internalType": "address",
          "name": "emergencyReturn",
          "type": "address"
        },
        {
          "indexed": false,
          "internalType": "uint256",
          "name": "amount",
          "type": "uint256"
        }
      ],
      "name": "RecoverBalance",
      "type": "event"
    },
    {
      "anonymous": false,
      "inputs": [
        {
          "indexed": true,
          "internalType": "address",
          "name": "emergencyReturn",
          "type": "address"
        }
      ],
      "name": "SetEmergencyReturn",
      "type": "event"
    },
    {
      "anonymous": false,
      "inputs": [
        {
          "indexed": false,
          "internalType": "bool",
          "name": "toggleFlag",
          "type": "bool"
        }
      ],
      "name": "ToggleAllowCheckpointToken",
      "type": "event"
    },
    {
      "anonymous": false,
      "inputs": [
        {
          "indexed": false,
          "internalType": "address",
          "name": "account",
          "type": "address"
        }
      ],
      "name": "Unpaused",
      "type": "event"
    },
    {
      "inputs": [],
      "name": "acceptOwnership",
      "outputs": [],
      "stateMutability": "nonpayable",
      "type": "function"
    },
    {
      "inputs": [
        {
          "internalType": "uint256",
          "name": "amount",
          "type": "uint256"
        }
      ],
      "name": "burn",
      "outputs": [
        {
          "internalType": "bool",
          "name": "",
          "type": "bool"
        }
      ],
      "stateMutability": "nonpayable",
      "type": "function"
    },
    {
      "inputs": [],
      "name": "canCheckpointToken",
      "outputs": [
        {
          "internalType": "bool",
          "name": "",
          "type": "bool"
        }
      ],
      "stateMutability": "view",
      "type": "function"
    },
    {
      "inputs": [],
      "name": "checkpointToken",
      "outputs": [],
      "stateMutability": "nonpayable",
      "type": "function"
    },
    {
      "inputs": [
        {
          "internalType": "address",
          "name": "gauge",
          "type": "address"
        },
        {
          "internalType": "address",
          "name": "_addr",
          "type": "address"
        }
      ],
      "name": "claim",
      "outputs": [
        {
          "internalType": "uint256",
          "name": "",
          "type": "uint256"
        }
      ],
      "stateMutability": "nonpayable",
      "type": "function"
    },
    {
      "inputs": [
        {
          "internalType": "address",
          "name": "gauge",
          "type": "address"
        },
        {
          "internalType": "address[]",
          "name": "_receivers",
          "type": "address[]"
        }
      ],
      "name": "claimMany",
      "outputs": [
        {
          "internalType": "uint256",
          "name": "",
          "type": "uint256"
        }
      ],
      "stateMutability": "nonpayable",
      "type": "function"
    },
    {
      "inputs": [
        {
          "internalType": "address[]",
          "name": "gaugeList",
          "type": "address[]"
        },
        {
          "internalType": "address",
          "name": "receiver",
          "type": "address"
        }
      ],
      "name": "claimManyGauge",
      "outputs": [
        {
          "internalType": "uint256",
          "name": "",
          "type": "uint256"
        }
      ],
      "stateMutability": "nonpayable",
      "type": "function"
    },
    {
      "inputs": [
        {
          "internalType": "address[]",
          "name": "gaugeList",
          "type": "address[]"
        },
        {
          "internalType": "address",
          "name": "receiver",
          "type": "address"
        }
      ],
      "name": "claimableTokenManyGauge",
      "outputs": [
        {
          "internalType": "uint256",
          "name": "",
          "type": "uint256"
        }
      ],
      "stateMutability": "nonpayable",
      "type": "function"
    },
    {
      "inputs": [
        {
          "internalType": "address",
          "name": "gauge",
          "type": "address"
        },
        {
          "internalType": "address",
          "name": "_addr",
          "type": "address"
        }
      ],
      "name": "claimableTokens",
      "outputs": [
        {
          "internalType": "uint256",
          "name": "",
          "type": "uint256"
        }
      ],
      "stateMutability": "nonpayable",
      "type": "function"
    },
    {
      "inputs": [],
      "name": "emergencyReturn",
      "outputs": [
        {
          "internalType": "address",
          "name": "",
          "type": "address"
        }
      ],
      "stateMutability": "view",
      "type": "function"
    },
    {
      "inputs": [
        {
          "internalType": "address",
          "name": "_gauge",
          "type": "address"
        },
        {
          "internalType": "uint256",
          "name": "_weekCursor",
          "type": "uint256"
        }
      ],
      "name": "gaugeBalancePreWeek",
      "outputs": [
        {
          "internalType": "uint256",
          "name": "",
          "type": "uint256"
        }
      ],
      "stateMutability": "view",
      "type": "function"
    },
    {
      "inputs": [],
      "name": "gaugeController",
      "outputs": [
        {
          "internalType": "address",
          "name": "",
          "type": "address"
        }
      ],
      "stateMutability": "view",
      "type": "function"
    },
    {
      "inputs": [
        {
          "internalType": "address",
          "name": "_gaugeController",
          "type": "address"
        },
        {
          "internalType": "uint256",
          "name": "_startTime",
          "type": "uint256"
        },
        {
          "internalType": "address",
          "name": "_token",
          "type": "address"
        },
        {
          "internalType": "address",
          "name": "_stHOPE",
          "type": "address"
        },
        {
          "internalType": "address",
          "name": "_emergencyReturn",
          "type": "address"
        }
      ],
      "name": "initialize",
      "outputs": [],
      "stateMutability": "nonpayable",
      "type": "function"
    },
    {
      "inputs": [],
      "name": "lastTokenTime",
      "outputs": [
        {
          "internalType": "uint256",
          "name": "",
          "type": "uint256"
        }
      ],
      "stateMutability": "view",
      "type": "function"
    },
    {
      "inputs": [],
      "name": "owner",
      "outputs": [
        {
          "internalType": "address",
          "name": "",
          "type": "address"
        }
      ],
      "stateMutability": "view",
      "type": "function"
    },
    {
      "inputs": [],
      "name": "pause",
      "outputs": [],
      "stateMutability": "nonpayable",
      "type": "function"
    },
    {
      "inputs": [],
      "name": "paused",
      "outputs": [
        {
          "internalType": "bool",
          "name": "",
          "type": "bool"
        }
      ],
      "stateMutability": "view",
      "type": "function"
    },
    {
      "inputs": [],
      "name": "pendingOwner",
      "outputs": [
        {
          "internalType": "address",
          "name": "",
          "type": "address"
        }
      ],
      "stateMutability": "view",
      "type": "function"
    },
    {
      "inputs": [],
      "name": "recoverBalance",
      "outputs": [
        {
          "internalType": "bool",
          "name": "",
          "type": "bool"
        }
      ],
      "stateMutability": "nonpayable",
      "type": "function"
    },
    {
      "inputs": [],
      "name": "renounceOwnership",
      "outputs": [],
      "stateMutability": "nonpayable",
      "type": "function"
    },
    {
      "inputs": [
        {
          "internalType": "address",
          "name": "_addr",
          "type": "address"
        }
      ],
      "name": "setEmergencyReturn",
      "outputs": [],
      "stateMutability": "nonpayable",
      "type": "function"
    },
    {
      "inputs": [],
      "name": "stHOPE",
      "outputs": [
        {
          "internalType": "address",
          "name": "",
          "type": "address"
        }
      ],
      "stateMutability": "view",
      "type": "function"
    },
    {
      "inputs": [],
      "name": "startTime",
      "outputs": [
        {
          "internalType": "uint256",
          "name": "",
          "type": "uint256"
        }
      ],
      "stateMutability": "view",
      "type": "function"
    },
    {
      "inputs": [],
      "name": "timeCursor",
      "outputs": [
        {
          "internalType": "uint256",
          "name": "",
          "type": "uint256"
        }
      ],
      "stateMutability": "view",
      "type": "function"
    },
    {
      "inputs": [
        {
          "internalType": "address",
          "name": "",
          "type": "address"
        },
        {
          "internalType": "address",
          "name": "",
          "type": "address"
        }
      ],
      "name": "timeCursorOf",
      "outputs": [
        {
          "internalType": "uint256",
          "name": "",
          "type": "uint256"
        }
      ],
      "stateMutability": "view",
      "type": "function"
    },
    {
      "inputs": [],
      "name": "toggleAllowCheckpointToken",
      "outputs": [],
      "stateMutability": "nonpayable",
      "type": "function"
    },
    {
      "inputs": [],
      "name": "token",
      "outputs": [
        {
          "internalType": "address",
          "name": "",
          "type": "address"
        }
      ],
      "stateMutability": "view",
      "type": "function"
    },
    {
      "inputs": [],
      "name": "tokenLastBalance",
      "outputs": [
        {
          "internalType": "uint256",
          "name": "",
          "type": "uint256"
        }
      ],
      "stateMutability": "view",
      "type": "function"
    },
    {
      "inputs": [
        {
          "internalType": "uint256",
          "name": "",
          "type": "uint256"
        }
      ],
      "name": "tokensPerWeek",
      "outputs": [
        {
          "internalType": "uint256",
          "name": "",
          "type": "uint256"
        }
      ],
      "stateMutability": "view",
      "type": "function"
    },
    {
      "inputs": [
        {
          "internalType": "address",
          "name": "newOwner",
          "type": "address"
        }
      ],
      "name": "transferOwnership",
      "outputs": [],
      "stateMutability": "nonpayable",
      "type": "function"
    },
    {
      "inputs": [],
      "name": "unpause",
      "outputs": [],
      "stateMutability": "nonpayable",
      "type": "function"
    },
    {
      "inputs": [
        {
          "internalType": "address",
          "name": "",
          "type": "address"
        },
        {
          "internalType": "address",
          "name": "",
          "type": "address"
        }
      ],
      "name": "userEpochOf",
      "outputs": [
        {
          "internalType": "uint256",
          "name": "",
          "type": "uint256"
        }
      ],
      "stateMutability": "view",
      "type": "function"
    },
    {
      "inputs": [
        {
          "internalType": "address",
          "name": "_gauge",
          "type": "address"
        },
        {
          "internalType": "address",
          "name": "_user",
          "type": "address"
        },
        {
          "internalType": "uint256",
          "name": "_timestamp",
          "type": "uint256"
        }
      ],
      "name": "veForAt",
      "outputs": [
        {
          "internalType": "uint256",
          "name": "",
          "type": "uint256"
        }
      ],
      "stateMutability": "view",
      "type": "function"
    },
    {
      "inputs": [
        {
          "internalType": "address",
          "name": "_gauge",
          "type": "address"
        },
        {
          "internalType": "address",
          "name": "_user",
          "type": "address"
        },
        {
          "internalType": "uint256",
          "name": "_timestamp",
          "type": "uint256"
        }
      ],
      "name": "vePrecentageForAt",
      "outputs": [
        {
          "internalType": "uint256",
          "name": "",
          "type": "uint256"
        }
      ],
      "stateMutability": "nonpayable",
      "type": "function"
    }
  ],
  "bytecode": "0x608060405234801561001057600080fd5b50612705806100206000396000f3fe608060405234801561001057600080fd5b50600436106102065760003560e01c80638721b7851161011a5780639aabdf89116100ad578063b26bb8c41161007c578063b26bb8c414610439578063bee5dc321461044c578063e30c397814610454578063f2fde38b14610465578063fc0c546a1461047857600080fd5b80639aabdf89146103f8578063a01ef25f1461040b578063a143e2da1461041e578063b1850e941461043157600080fd5b80638ec8468a116100e95780638ec8468a146103c05780638f4ddcfd146103c9578063939ea66b146103dc57806399eecb3b146103e557600080fd5b80638721b7851461037e5780638736659b14610386578063899519be1461038f5780638da5cb5b146103af57600080fd5b80634d1dd0331161019d578063715018a61161016c578063715018a61461034a57806378e979251461035257806379ba50971461035b57806380302060146103635780638456cb591461037657600080fd5b80634d1dd033146102ee5780635a4b8c1d146103015780635c571d8a1461032c5780635c975abb1461033f57600080fd5b806326f283d7116101d957806326f283d71461029357806338b74b47146102a65780633f4ba83a146102d157806342966c68146102db57600080fd5b8063071cb5ad1461020b5780630cc672e414610249578063171acc831461026d57806321c0b34214610280575b600080fd5b6102366102193660046121b8565b60cc60209081526000928352604080842090915290825290205481565b6040519081526020015b60405180910390f35b60d25461025d90600160a01b900460ff1681565b6040519015158152602001610240565b61023661027b3660046121eb565b61048b565b61023661028e3660046121b8565b6105bf565b6102366102a13660046122df565b6106bd565b6102366102b43660046121b8565b60cb60209081526000928352604080842090915290825290205481565b6102d961072f565b005b61025d6102e9366004612324565b610741565b6102366102fc36600461233d565b61084e565b60d354610314906001600160a01b031681565b6040516001600160a01b039091168152602001610240565b61023661033a3660046122df565b610905565b60975460ff1661025d565b6102d9610a67565b61023660c95481565b6102d9610a79565b610236610371366004612367565b610af3565b6102d9610c52565b6102d9610c62565b61023660ca5481565b61023661039d366004612324565b60ce6020526000908152604090205481565b6033546001600160a01b0316610314565b61023660d15481565b6102366103d73660046121eb565b610cc0565b61023660cd5481565b60d254610314906001600160a01b031681565b6102366104063660046121b8565b610e50565b6102d96104193660046123b5565b610f18565b60d054610314906001600160a01b031681565b61025d611104565b6102d9610447366004612413565b6111ec565b6102d961123e565b6065546001600160a01b0316610314565b6102d9610473366004612413565b6112b6565b60cf54610314906001600160a01b031681565b60d25460405163362985ab60e01b81526001600160a01b0384811660048301528581166024830152600092839291169063362985ab90604401602060405180830381865afa1580156104e1573d6000803e3d6000fd5b505050506040513d601f19601f82011682018060405250810190610505919061242e565b9050600061051586868685611327565b60d25460405163c06cd02b60e01b81529192506000916001600160a01b039091169063c06cd02b9061054f9089908b908790600401612447565b608060405180830381865afa15801561056c573d6000803e3d6000fd5b505050506040513d601f19601f82011682018060405250810190610590919061246b565b8051602082015160408301519293506105b2926105ad90896124e7565b611420565b93505050505b9392505050565b60006105c961144d565b6001600160a01b0382166105db573391505b60cd5460d254600160a01b900460ff16801561060257506105ff62015180826124fa565b42115b156106125761060f611493565b50425b61061b816116a6565b60d254604051638aca6a2360e01b81526001600160a01b038781166004830152929350911690638aca6a2390602401600060405180830381600087803b15801561066457600080fd5b505af1158015610678573d6000803e3d6000fd5b5050505060006106898585846116d8565b905080156106b35761069b8482611cdd565b8060d160008282546106ad91906124e7565b90915550505b9150505b92915050565b60006106c761144d565b604051632e2b8ec560e11b81523090635c571d8a906106ec908690869060040161250d565b6020604051808303816000875af115801561070b573d6000803e3d6000fd5b505050506040513d601f19601f820116820180604052508101906105b8919061242e565b610737611e7e565b61073f611ed8565b565b600061074b61144d565b81156108455760cf546040516323b872dd60e01b81526001600160a01b03909116906323b872dd9061078590339030908790600401612447565b6020604051808303816000875af11580156107a4573d6000803e3d6000fd5b505050506040513d601f19601f820116820180604052508101906107c8919061256a565b6108105760405162461bcd60e51b81526020600482015260146024820152731514905394d1915497d19493d357d1905253115160621b60448201526064015b60405180910390fd5b60d254600160a01b900460ff16801561083857506201518060cd5461083591906124fa565b42115b1561084557610845611493565b5060015b919050565b6000610859826116a6565b60d254604051630cb8c08d60e31b81526001600160a01b03868116600483015260248201849052929450600092909116906365c6046890604401602060405180830381865afa1580156108b0573d6000803e3d6000fd5b505050506040513d601f19601f820116820180604052508101906108d4919061242e565b600084815260ce6020526040902054909150670de0b6b3a7640000906108fb90839061258c565b6106b391906125a3565b600061090f61144d565b60cd5460d254600160a01b900460ff168015610936575061093362015180826124fa565b42115b1561094657610943611493565b50425b61094f816116a6565b90506000805b8551811080156109655750603281105b15610a3e57600086828151811061097e5761097e6125c5565b6020026020010151905060006001600160a01b0316816001600160a01b0316036109a85750610a3e565b60d254604051638aca6a2360e01b81526001600160a01b03838116600483015290911690638aca6a2390602401600060405180830381600087803b1580156109ef57600080fd5b505af1158015610a03573d6000803e3d6000fd5b505050506000610a148288876116d8565b90508015610a2957610a2681856124fa565b93505b50508080610a36906125db565b915050610955565b5080156106b3578060d16000828254610a5791906124e7565b909155506106b390508482611cdd565b610a6f611e7e565b61073f6000611f2a565b60655433906001600160a01b03168114610ae75760405162461bcd60e51b815260206004820152602960248201527f4f776e61626c6532537465703a2063616c6c6572206973206e6f7420746865206044820152683732bb9037bbb732b960b91b6064820152608401610807565b610af081611f2a565b50565b6000610afd61144d565b60cd5460d254600160a01b900460ff168015610b245750610b2162015180826124fa565b42115b15610b3457610b31611493565b50425b610b3d816116a6565b60d254604051638aca6a2360e01b81526001600160a01b03878116600483015292935060009290911690638aca6a2390602401600060405180830381600087803b158015610b8a57600080fd5b505af1158015610b9e573d6000803e3d6000fd5b5050505060005b845181108015610bb55750603281105b15610c39576000858281518110610bce57610bce6125c5565b6020026020010151905060006001600160a01b0316816001600160a01b031603610bf85750610c39565b6000610c058883876116d8565b90508015610c2457610c178282611cdd565b610c2181856124fa565b93505b50508080610c31906125db565b915050610ba5565b5080156106b3578060d160008282546106ad91906124e7565b610c5a611e7e565b61073f611f43565b610c6a611e7e565b60d2805460ff60a01b198116600160a01b9182900460ff1615918202179091556040518181527fdbe6ac1081ebd8e648718341126659456f4009fcadfe1c23f66f5e61522610b29060200160405180910390a150565b60d254604051638aca6a2360e01b81526001600160a01b0385811660048301526000921690638aca6a2390602401600060405180830381600087803b158015610d0857600080fd5b505af1158015610d1c573d6000803e3d6000fd5b50505050610d29826116a6565b60405163171acc8360e01b8152909250600090309063171acc8390610d5690889088908890600401612447565b602060405180830381865afa158015610d73573d6000803e3d6000fd5b505050506040513d601f19601f82011682018060405250810190610d97919061242e565b60d25460405163c3a6ca1360e01b81526001600160a01b038881166004830152602482018790529293506000929091169063c3a6ca13906044016040805180830381865afa158015610ded573d6000803e3d6000fd5b505050506040513d601f19601f82011682018060405250810190610e1191906125f4565b8051909150600003610e28576000925050506105b8565b8051610e3c83670de0b6b3a764000061258c565b610e4691906125a3565b9695505050505050565b6000610e5a61144d565b6001600160a01b038216610e6c573391505b60cd5460d254600160a01b900460ff168015610e935750610e9062015180826124fa565b42115b15610ea357610ea0611493565b50425b610eac816116a6565b60d254604051638aca6a2360e01b81526001600160a01b038781166004830152929350911690638aca6a2390602401600060405180830381600087803b158015610ef557600080fd5b505af1158015610f09573d6000803e3d6000fd5b505050506106b38484836116d8565b600054610100900460ff1615808015610f385750600054600160ff909116105b80610f525750303b158015610f52575060005460ff166001145b610fb55760405162461bcd60e51b815260206004820152602e60248201527f496e697469616c697a61626c653a20636f6e747261637420697320616c72656160448201526d191e481a5b9a5d1a585b1a5e995960921b6064820152608401610807565b6000805460ff191660011790558015610fd8576000805461ff0019166101001790555b6001600160a01b038616610ffe5760405162461bcd60e51b815260040161080790612643565b6001600160a01b0384166110245760405162461bcd60e51b815260040161080790612643565b6001600160a01b03831661104a5760405162461bcd60e51b815260040161080790612643565b611052611f80565b600061105d866116a6565b60c981905560cd81905560cf80546001600160a01b038089166001600160a01b03199283161790925560d0805488841690831617905560ca9290925560d280548a831690841617905560d38054918616919092161790555080156110fc576000805461ff0019169055604051600181527f7f26b83ff96e1f2b6a682f133852f6798a09c465da95921460cefb3847402498906020015b60405180910390a15b505050505050565b600061110e611e7e565b60cf546040516370a0823160e01b81523060048201526000916001600160a01b0316906370a0823190602401602060405180830381865afa158015611157573d6000803e3d6000fd5b505050506040513d601f19601f8201168201806040525081019061117b919061242e565b60cf5460d35491925061119b916001600160a01b03918216911683611faf565b60d35460cf546040518381526001600160a01b0392831692909116907fd0a849a4b4c83176fa52813aff6ed8aa60f8756be6d3cc5cdf086614e3db6af49060200160405180910390a3600191505090565b6111f4611e7e565b60d380546001600160a01b0319166001600160a01b0383169081179091556040517fddf14d4001805d5c8783316f14c83a234cdb129ef6d8f0fc823cc2ee0828590a90600090a250565b6033546001600160a01b031633148061127a575060d254600160a01b900460ff16801561127a57506201518060cd5461127791906124fa565b42115b6112ae5760405162461bcd60e51b8152602060048201526005602482015264464430303160d81b6044820152606401610807565b61073f611493565b6112be611e7e565b606580546001600160a01b0383166001600160a01b031990911681179091556112ef6033546001600160a01b031690565b6001600160a01b03167f38d16b8cac22d99fc7c124b9cd0de2d3fa1faef420bfe791d8c362d765e2270060405160405180910390a350565b60008082815b60808112156114145781831015611414576000600261134c84866124fa565b6113579060026124fa565b61136191906125a3565b60d25460405163c06cd02b60e01b81529192506000916001600160a01b039091169063c06cd02b9061139b908c908e908790600401612447565b608060405180830381865afa1580156113b8573d6000803e3d6000fd5b505050506040513d601f19601f820116820180604052508101906113dc919061246b565b9050878160400151116113f1578194506113ff565b6113fc6001836124e7565b93505b5050808061140c9061266c565b91505061132d565b50909695505050505050565b60008061142d838561258c565b90508480821115611443576000925050506105b8565b610e4682826124e7565b60975460ff161561073f5760405162461bcd60e51b815260206004820152601060248201526f14185d5cd8589b194e881c185d5cd95960821b6044820152606401610807565b60cf546040516370a0823160e01b81523060048201526000916001600160a01b0316906370a0823190602401602060405180830381865afa1580156114dc573d6000803e3d6000fd5b505050506040513d601f19601f82011682018060405250810190611500919061242e565b9050600060d1548261151291906124e7565b60d183905560cd54909150600061152982426124e7565b4260cd559050600061153a836116a6565b90506000805b601481101561166f5761155662093a80846124fa565b9150814210156115d8578315801561156d57508442145b1561159b57600083815260ce6020526040812080548892906115909084906124fa565b9091555061166f9050565b836115a686426124e7565b6115b0908861258c565b6115ba91906125a3565b600084815260ce6020526040812080549091906115909084906124fa565b831580156115e557508482145b1561161357600083815260ce6020526040812080548892906116089084906124fa565b909155506116569050565b8361161e86846124e7565b611628908861258c565b61163291906125a3565b600084815260ce6020526040812080549091906116509084906124fa565b90915550505b8194508192508080611667906125db565b915050611540565b5060408051428152602081018790527fce749457b74e10f393f2c6b1ce4261b78791376db5a3f501477a809f03f500d691016110f3565b60006116b662015180600761258c565b6116c462015180600761258c565b6116ce90846125a3565b6106b7919061258c565b60006116e261211a565b6000808252602082015260d25460405163362985ab60e01b81526001600160a01b03868116600483015287811660248301529091169063362985ab90604401602060405180830381865afa15801561173e573d6000803e3d6000fd5b505050506040513d601f19601f82011682018060405250810190611762919061242e565b6040820181905260c9549060000361177f576000925050506105b8565b6001600160a01b03808716600090815260cb602090815260408083209389168352929052908120546060840181905290036117cb576117c48686838560400151611327565b82526117f4565b6001600160a01b03808716600090815260cc602090815260408083209389168352929052205482525b815160000361180257600182525b60d254825160405163c06cd02b60e01b81526001600160a01b039092169163c06cd02b916118369189918b91600401612447565b608060405180830381865afa158015611853573d6000803e3d6000fd5b505050506040513d601f19601f82011682018060405250810190611877919061246b565b608083015260608201516000036118b9576118b3600162093a808460800151604001516118a491906124fa565b6118ae91906124e7565b6116a6565b60608301525b838260600151106118cf576000925050506105b8565b80826060015110156118e357606082018190525b604080516080810182526000808252602082018190529181018290526060810182905260a08401525b6032811215611c1f578483606001511015611c1f5782608001516040015183606001511015801561194257506040830151835111155b15611a255760018360000181815161195a91906124fa565b905250608083015160a08401526040830151835111156119a657604051806080016040528060008152602001600081526020016000815260200160008152508360800181905250611c0d565b60d254835160405163c06cd02b60e01b81526001600160a01b039092169163c06cd02b916119da918a918c91600401612447565b608060405180830381865afa1580156119f7573d6000803e3d6000fd5b505050506040513d601f19601f82011682018060405250810190611a1b919061246b565b6080840152611c0d565b60008360a00151604001518460600151611a3f91906124e7565b90506000611a5e8560a00151600001518660a001516020015184611420565b905080158015611a72575060408501518551115b15611a7e575050611c1f565b8015611bf25760d254606086015160405163c3a6ca1360e01b81526000926001600160a01b03169163c3a6ca1391611ace918e916004016001600160a01b03929092168252602082015260400190565b6040805180830381865afa158015611aea573d6000803e3d6000fd5b505050506040513d601f19601f82011682018060405250810190611b0e91906125f4565b60d2546060880151604051630cb8c08d60e31b81526001600160a01b038e8116600483015260248201929092529293506000929116906365c6046890604401602060405180830381865afa158015611b6a573d6000803e3d6000fd5b505050506040513d601f19601f82011682018060405250810190611b8e919061242e565b82516060890151600090815260ce6020526040902054919250670de0b6b3a7640000918390611bbd908761258c565b611bc7919061258c565b611bd191906125a3565b611bdb91906125a3565b87602001818151611bec91906124fa565b90525050505b62093a8085606001818151611c0791906124fa565b90525050505b80611c178161266c565b91505061190c565b50611c3e826040015160018460000151611c3991906124e7565b611fc1565b8083526001600160a01b03878116600081815260cc60209081526040808320948b168084529482528083209590955560608088015184845260cb8352868420868552835292869020929092558087015187518689015187519283529282015294850152919290917fd795915374024be1f03204e052bd584b33bb85c9128ede9c54adbe0bbdc22095910160405180910390a35060200151949350505050565b60cf5460d05460405163095ea7b360e01b81526001600160a01b0391821660048201526024810184905291169063095ea7b3906044016020604051808303816000875af1158015611d32573d6000803e3d6000fd5b505050506040513d601f19601f82011682018060405250810190611d56919061256a565b611d935760405162461bcd60e51b815260206004820152600e60248201526d1054141493d59157d1905253115160921b6044820152606401610807565b60d0546040516373dd055560e01b815260048101839052600060248201819052604482018190526080606483015260848201819052916001600160a01b0316906373dd05559060a4016020604051808303816000875af1158015611dfb573d6000803e3d6000fd5b505050506040513d601f19601f82011682018060405250810190611e1f919061256a565b905080611e625760405162461bcd60e51b81526020600482015260116024820152701cdd185ada5b99c81a1bdc194819985a5b607a1b6044820152606401610807565b60d054611e79906001600160a01b03168484611faf565b505050565b6033546001600160a01b0316331461073f5760405162461bcd60e51b815260206004820181905260248201527f4f776e61626c653a2063616c6c6572206973206e6f7420746865206f776e65726044820152606401610807565b611ee0611fd7565b6097805460ff191690557f5db9ee0a495bf2e6ff9c91a7834c1ba4fdd244a5e8aa4e537bd38aeae4b073aa335b6040516001600160a01b03909116815260200160405180910390a1565b606580546001600160a01b0319169055610af081612020565b611f4b61144d565b6097805460ff191660011790557f62e78cea01bee320cd4e420270b5ea74000d11b0c9f74754ebdbfc544b05a258611f0d3390565b600054610100900460ff16611fa75760405162461bcd60e51b815260040161080790612684565b61073f612072565b82611fbb8184846120a2565b50505050565b6000818310611fd057816105b8565b5090919050565b60975460ff1661073f5760405162461bcd60e51b815260206004820152601460248201527314185d5cd8589b194e881b9bdd081c185d5cd95960621b6044820152606401610807565b603380546001600160a01b038381166001600160a01b0319831681179093556040519116919082907f8be0079c531659141344cd1fd0a4f28419497f9722a3daafe3b4186f6b6457e090600090a35050565b600054610100900460ff166120995760405162461bcd60e51b815260040161080790612684565b61073f33611f2a565b600060405163a9059cbb60e01b8152836004820152826024820152602060006044836000895af13d15601f3d1160016000511416171691505080611fbb5760405162461bcd60e51b815260206004820152600f60248201526e1514905394d1915497d19052531151608a1b6044820152606401610807565b6040518060c001604052806000815260200160008152602001600081526020016000815260200161216c6040518060800160405280600081526020016000815260200160008152602001600081525090565b815260200161219c6040518060800160405280600081526020016000815260200160008152602001600081525090565b905290565b80356001600160a01b038116811461084957600080fd5b600080604083850312156121cb57600080fd5b6121d4836121a1565b91506121e2602084016121a1565b90509250929050565b60008060006060848603121561220057600080fd5b612209846121a1565b9250612217602085016121a1565b9150604084013590509250925092565b634e487b7160e01b600052604160045260246000fd5b600082601f83011261224e57600080fd5b8135602067ffffffffffffffff8083111561226b5761226b612227565b8260051b604051601f19603f8301168101818110848211171561229057612290612227565b6040529384528581018301938381019250878511156122ae57600080fd5b83870191505b848210156122d4576122c5826121a1565b835291830191908301906122b4565b979650505050505050565b600080604083850312156122f257600080fd5b823567ffffffffffffffff81111561230957600080fd5b6123158582860161223d565b9250506121e2602084016121a1565b60006020828403121561233657600080fd5b5035919050565b6000806040838503121561235057600080fd5b612359836121a1565b946020939093013593505050565b6000806040838503121561237a57600080fd5b612383836121a1565b9150602083013567ffffffffffffffff81111561239f57600080fd5b6123ab8582860161223d565b9150509250929050565b600080600080600060a086880312156123cd57600080fd5b6123d6866121a1565b9450602086013593506123eb604087016121a1565b92506123f9606087016121a1565b9150612407608087016121a1565b90509295509295909350565b60006020828403121561242557600080fd5b6105b8826121a1565b60006020828403121561244057600080fd5b5051919050565b6001600160a01b039384168152919092166020820152604081019190915260600190565b60006080828403121561247d57600080fd5b6040516080810181811067ffffffffffffffff821117156124a0576124a0612227565b8060405250825181526020830151602082015260408301516040820152606083015160608201528091505092915050565b634e487b7160e01b600052601160045260246000fd5b818103818111156106b7576106b76124d1565b808201808211156106b7576106b76124d1565b604080825283519082018190526000906020906060840190828701845b8281101561254f5781516001600160a01b03168452928401929084019060010161252a565b5050506001600160a01b039490941692019190915250919050565b60006020828403121561257c57600080fd5b815180151581146105b857600080fd5b80820281158282048414176106b7576106b76124d1565b6000826125c057634e487b7160e01b600052601260045260246000fd5b500490565b634e487b7160e01b600052603260045260246000fd5b6000600182016125ed576125ed6124d1565b5060010190565b60006040828403121561260657600080fd5b6040516040810181811067ffffffffffffffff8211171561262957612629612227565b604052825181526020928301519281019290925250919050565b6020808252600f908201526e496e76616c6964204164647265737360881b604082015260600190565b60006001600160ff1b0182016125ed576125ed6124d1565b6020808252602b908201527f496e697469616c697a61626c653a20636f6e7472616374206973206e6f74206960408201526a6e697469616c697a696e6760a81b60608201526080019056fea26469706673582212203b2402a9ca4fbe696acce41bac6961b2cc9d08b8eba11bbca8121ad3b7ed6bea64736f6c63430008110033",
  "linkReferences": {},
  "deployedLinkReferences": {}
}