{
  "_format": "hh-sol-artifact-1",
  "contractName": "Minter",
  "sourceName": "contracts/Minter.sol",
  "abi": [
    {
      "inputs": [
        {
          "internalType": "address",
          "name": "_token",
          "type": "address"
        },
        {
          "internalType": "address",
          "name": "_controller",
          "type": "address"
        }
      ],
      "stateMutability": "nonpayable",
      "type": "constructor"
    },
    {
      "anonymous": false,
      "inputs": [
        {
          "indexed": true,
          "internalType": "address",
          "name": "recipient",
          "type": "address"
        },
        {
          "indexed": false,
          "internalType": "address",
          "name": "gauge",
          "type": "address"
        },
        {
          "indexed": false,
          "internalType": "uint256",
          "name": "minted",
          "type": "uint256"
        }
      ],
      "name": "Minted",
      "type": "event"
    },
    {
      "anonymous": false,
      "inputs": [
        {
          "indexed": false,
          "internalType": "address",
          "name": "sender",
          "type": "address"
        },
        {
          "indexed": true,
          "internalType": "address",
          "name": "mintingUser",
          "type": "address"
        },
        {
          "indexed": false,
          "internalType": "bool",
          "name": "status",
          "type": "bool"
        }
      ],
      "name": "ToogleApproveMint",
      "type": "event"
    },
    {
      "inputs": [
        {
          "internalType": "address",
          "name": "",
          "type": "address"
        },
        {
          "internalType": "address",
          "name": "",
          "type": "address"
        }
      ],
      "name": "allowedToMintFor",
      "outputs": [
        {
          "internalType": "bool",
          "name": "",
          "type": "bool"
        }
      ],
      "stateMutability": "view",
      "type": "function"
    },
    {
      "inputs": [],
      "name": "controller",
      "outputs": [
        {
          "internalType": "address",
          "name": "",
          "type": "address"
        }
      ],
      "stateMutability": "view",
      "type": "function"
    },
    {
      "inputs": [
        {
          "internalType": "address",
          "name": "gaugeAddress",
          "type": "address"
        }
      ],
      "name": "mint",
      "outputs": [],
      "stateMutability": "nonpayable",
      "type": "function"
    },
    {
      "inputs": [
        {
          "internalType": "address",
          "name": "gaugeAddress",
          "type": "address"
        },
        {
          "internalType": "address",
          "name": "_for",
          "type": "address"
        }
      ],
      "name": "mintFor",
      "outputs": [],
      "stateMutability": "nonpayable",
      "type": "function"
    },
    {
      "inputs": [
        {
          "internalType": "address[]",
          "name": "gaugeAddressList",
          "type": "address[]"
        }
      ],
      "name": "mintMany",
      "outputs": [],
      "stateMutability": "nonpayable",
      "type": "function"
    },
    {
      "inputs": [
        {
          "internalType": "address",
          "name": "",
          "type": "address"
        },
        {
          "internalType": "address",
          "name": "",
          "type": "address"
        }
      ],
      "name": "minted",
      "outputs": [
        {
          "internalType": "uint256",
          "name": "",
          "type": "uint256"
        }
      ],
      "stateMutability": "view",
      "type": "function"
    },
    {
      "inputs": [
        {
          "internalType": "address",
          "name": "mintingUser",
          "type": "address"
        }
      ],
      "name": "toggleApproveMint",
      "outputs": [],
      "stateMutability": "nonpayable",
      "type": "function"
    },
    {
      "inputs": [],
      "name": "token",
      "outputs": [
        {
          "internalType": "address",
          "name": "",
          "type": "address"
        }
      ],
      "stateMutability": "view",
      "type": "function"
    }
  ],
  "bytecode": "0x60c060405234801561001057600080fd5b5060405161095e38038061095e83398101604081905261002f91610062565b6001600160a01b039182166080521660a052610095565b80516001600160a01b038116811461005d57600080fd5b919050565b6000806040838503121561007557600080fd5b61007e83610046565b915061008c60208401610046565b90509250929050565b60805160a0516108966100c8600039600081816101590152610317015260008181610198015261055f01526108966000f3fe608060405234801561001057600080fd5b50600436106100885760003560e01c80637504a15d1161005b5780637504a15d1461010b5780638b752bb01461011e578063f77c479114610154578063fc0c546a1461019357600080fd5b80630f3ec9981461008d578063388de6ce146100a2578063397ada21146100e55780636a627842146100f8575b600080fd5b6100a061009b366004610674565b6101ba565b005b6100d06100b0366004610696565b600160209081526000928352604080842090915290825290205460ff1681565b60405190151581526020015b60405180910390f35b6100a06100f33660046106df565b610231565b6100a0610106366004610674565b6102b6565b6100a0610119366004610696565b6102c3565b61014661012c366004610696565b600060208181529281526040808220909352908152205481565b6040519081526020016100dc565b61017b7f000000000000000000000000000000000000000000000000000000000000000081565b6040516001600160a01b0390911681526020016100dc565b61017b7f000000000000000000000000000000000000000000000000000000000000000081565b6001600160a01b03811660008181526001602090815260408083203380855290835292819020805460ff8116801560ff1990921682179092558251948552928401929092529092917f328a156285132f909915921730bfbf5ca38f5689956669bab3ce64ff4c45523e910160405180910390a25050565b60005b8151811080156102445750608081105b156102b25760006001600160a01b0316828281518110610266576102666107a4565b60200260200101516001600160a01b031603156102a0576102a0828281518110610292576102926107a4565b6020026020010151336102f5565b806102aa816107d0565b915050610234565b5050565b6102c081336102f5565b50565b3360009081526001602090815260408083206001600160a01b038516845290915290205460ff16156102b2576102b282825b604051631c490c5d60e31b81526001600160a01b0383811660048301526000917f00000000000000000000000000000000000000000000000000000000000000009091169063e24862e890602401602060405180830381865afa158015610360573d6000803e3d6000fd5b505050506040513d601f19601f8201168201806040525081019061038491906107e9565b600f0b12156103c25760405162461bcd60e51b8152602060048201526005602482015264043453030360dc1b60448201526064015b60405180910390fd5b60405163b07b709b60e01b81526001600160a01b0382811660048301526000919084169063b07b709b906024016020604051808303816000875af115801561040e573d6000803e3d6000fd5b505050506040513d601f19601f82011682018060405250810190610432919061080c565b9050806104705760405162461bcd60e51b815260206004820152600c60248201526b10d21150d2c811905253115160a21b60448201526064016103b9565b60405163caa0b9ed60e01b81526001600160a01b0383811660048301526000919085169063caa0b9ed90602401602060405180830381865afa1580156104ba573d6000803e3d6000fd5b505050506040513d601f19601f820116820180604052508101906104de919061082e565b6001600160a01b03808516600090815260208181526040808320938916835292905290812054919250906105129083610847565b90508015610651576001600160a01b038481166000818152602081815260408083208a86168452909152808220869055516340c10f1960e01b8152600481019290925260248201849052917f000000000000000000000000000000000000000000000000000000000000000016906340c10f19906044016020604051808303816000875af11580156105a8573d6000803e3d6000fd5b505050506040513d601f19601f820116820180604052508101906105cc919061080c565b9050806106095760405162461bcd60e51b815260206004820152600b60248201526a135253950811905253115160aa1b60448201526064016103b9565b604080516001600160a01b038881168252602082018590528716917f9d228d69b5fdb8d273a2336f8fb8612d039631024ea9bf09c424a9503aa078f0910160405180910390a2505b5050505050565b80356001600160a01b038116811461066f57600080fd5b919050565b60006020828403121561068657600080fd5b61068f82610658565b9392505050565b600080604083850312156106a957600080fd5b6106b283610658565b91506106c060208401610658565b90509250929050565b634e487b7160e01b600052604160045260246000fd5b600060208083850312156106f257600080fd5b823567ffffffffffffffff8082111561070a57600080fd5b818501915085601f83011261071e57600080fd5b813581811115610730576107306106c9565b8060051b604051601f19603f83011681018181108582111715610755576107556106c9565b60405291825284820192508381018501918883111561077357600080fd5b938501935b828510156107985761078985610658565b84529385019392850192610778565b98975050505050505050565b634e487b7160e01b600052603260045260246000fd5b634e487b7160e01b600052601160045260246000fd5b6000600182016107e2576107e26107ba565b5060010190565b6000602082840312156107fb57600080fd5b815180600f0b811461068f57600080fd5b60006020828403121561081e57600080fd5b8151801515811461068f57600080fd5b60006020828403121561084057600080fd5b5051919050565b8181038181111561085a5761085a6107ba565b9291505056fea26469706673582212204b339aaceed4e50d511c6347edc03b11c2a75c02e3880af81e0455528190181c64736f6c63430008110033",
  "linkReferences": {},
  "deployedLinkReferences": {}
}