{
  "_format": "hh-sol-artifact-1",
  "contractName": "MockGauge",
  "sourceName": "contracts/mock/MockGuage.sol",
  "abi": [
    {
      "inputs": [
        {
          "internalType": "address",
          "name": "addr",
          "type": "address"
        }
      ],
      "name": "integrateFraction",
      "outputs": [
        {
          "internalType": "uint256",
          "name": "",
          "type": "uint256"
        }
      ],
      "stateMutability": "view",
      "type": "function"
    },
    {
      "inputs": [
        {
          "internalType": "address",
          "name": "addr",
          "type": "address"
        }
      ],
      "name": "userCheckpoint",
      "outputs": [
        {
          "internalType": "bool",
          "name": "",
          "type": "bool"
        }
      ],
      "stateMutability": "nonpayable",
      "type": "function"
    }
  ],
  "bytecode": "0x608060405234801561001057600080fd5b50610116806100206000396000f3fe6080604052348015600f57600080fd5b506004361060325760003560e01c8063b07b709b146037578063caa0b9ed14607f575b600080fd5b606a604236600460b2565b6001600160a01b0316600090815260208190526040902068056bc75e2d631000009055600190565b60405190151581526020015b60405180910390f35b60a5608a36600460b2565b6001600160a01b031660009081526020819052604090205490565b6040519081526020016076565b60006020828403121560c357600080fd5b81356001600160a01b038116811460d957600080fd5b939250505056fea264697066735822122016b691c4e4d0f1d8a0c09bd2813264cc6784da37098ae64ca9ceb2e337c04b3f64736f6c63430008110033",
  "linkReferences": {},
  "deployedLinkReferences": {}
}