{
  "_format": "hh-sol-artifact-1",
  "contractName": "SmartWalletWhitelist",
  "sourceName": "contracts/SmartWalletWhitelist.sol",
  "abi": [
    {
      "anonymous": false,
      "inputs": [
        {
          "indexed": false,
          "internalType": "address",
          "name": "",
          "type": "address"
        }
      ],
      "name": "ApproveWallet",
      "type": "event"
    },
    {
      "anonymous": false,
      "inputs": [
        {
          "indexed": true,
          "internalType": "address",
          "name": "previousOwner",
          "type": "address"
        },
        {
          "indexed": true,
          "internalType": "address",
          "name": "newOwner",
          "type": "address"
        }
      ],
      "name": "OwnershipTransferStarted",
      "type": "event"
    },
    {
      "anonymous": false,
      "inputs": [
        {
          "indexed": true,
          "internalType": "address",
          "name": "previousOwner",
          "type": "address"
        },
        {
          "indexed": true,
          "internalType": "address",
          "name": "newOwner",
          "type": "address"
        }
      ],
      "name": "OwnershipTransferred",
      "type": "event"
    },
    {
      "anonymous": false,
      "inputs": [
        {
          "indexed": false,
          "internalType": "address",
          "name": "",
          "type": "address"
        }
      ],
      "name": "RevokeWallet",
      "type": "event"
    },
    {
      "inputs": [],
      "name": "acceptOwnership",
      "outputs": [],
      "stateMutability": "nonpayable",
      "type": "function"
    },
    {
      "inputs": [],
      "name": "applySetChecker",
      "outputs": [],
      "stateMutability": "nonpayable",
      "type": "function"
    },
    {
      "inputs": [
        {
          "internalType": "address",
          "name": "_wallet",
          "type": "address"
        }
      ],
      "name": "approveWallet",
      "outputs": [],
      "stateMutability": "nonpayable",
      "type": "function"
    },
    {
      "inputs": [
        {
          "internalType": "address",
          "name": "_wallet",
          "type": "address"
        }
      ],
      "name": "check",
      "outputs": [
        {
          "internalType": "bool",
          "name": "",
          "type": "bool"
        }
      ],
      "stateMutability": "view",
      "type": "function"
    },
    {
      "inputs": [],
      "name": "checker",
      "outputs": [
        {
          "internalType": "address",
          "name": "",
          "type": "address"
        }
      ],
      "stateMutability": "view",
      "type": "function"
    },
    {
      "inputs": [
        {
          "internalType": "address",
          "name": "_checker",
          "type": "address"
        }
      ],
      "name": "commitSetChecker",
      "outputs": [],
      "stateMutability": "nonpayable",
      "type": "function"
    },
    {
      "inputs": [],
      "name": "future_checker",
      "outputs": [
        {
          "internalType": "address",
          "name": "",
          "type": "address"
        }
      ],
      "stateMutability": "view",
      "type": "function"
    },
    {
      "inputs": [],
      "name": "owner",
      "outputs": [
        {
          "internalType": "address",
          "name": "",
          "type": "address"
        }
      ],
      "stateMutability": "view",
      "type": "function"
    },
    {
      "inputs": [],
      "name": "pendingOwner",
      "outputs": [
        {
          "internalType": "address",
          "name": "",
          "type": "address"
        }
      ],
      "stateMutability": "view",
      "type": "function"
    },
    {
      "inputs": [],
      "name": "renounceOwnership",
      "outputs": [],
      "stateMutability": "nonpayable",
      "type": "function"
    },
    {
      "inputs": [
        {
          "internalType": "address",
          "name": "_wallet",
          "type": "address"
        }
      ],
      "name": "revokeWallet",
      "outputs": [],
      "stateMutability": "nonpayable",
      "type": "function"
    },
    {
      "inputs": [
        {
          "internalType": "address",
          "name": "newOwner",
          "type": "address"
        }
      ],
      "name": "transferOwnership",
      "outputs": [],
      "stateMutability": "nonpayable",
      "type": "function"
    },
    {
      "inputs": [
        {
          "internalType": "address",
          "name": "",
          "type": "address"
        }
      ],
      "name": "wallets",
      "outputs": [
        {
          "internalType": "bool",
          "name": "",
          "type": "bool"
        }
      ],
      "stateMutability": "view",
      "type": "function"
    }
  ],
  "bytecode": "0x608060405234801561001057600080fd5b5061001a3361001f565b610096565b600180546001600160a01b031916905561004381610046602090811b6104ae17901c565b50565b600080546001600160a01b038381166001600160a01b0319831681178455604051919092169283917f8be0079c531659141344cd1fd0a4f28419497f9722a3daafe3b4186f6b6457e09190a35050565b6105f2806100a56000396000f3fe608060405234801561001057600080fd5b50600436106100cf5760003560e01c80638da5cb5b1161008c578063c23697a811610066578063c23697a814610197578063cf5303cf146101aa578063e30c3978146101bd578063f2fde38b146101ce57600080fd5b80638da5cb5b1461014c5780638fcdecc814610171578063943f35a41461018457600080fd5b80630fcb0ae5146100d457806326b42b1a146100e9578063715018a6146100f157806379ba5097146100f9578063808a9d401461010157806389b08f1114610114575b600080fd5b6100e76100e2366004610571565b6101e1565b005b6100e7610244565b6100e7610270565b6100e7610284565b6100e761010f366004610571565b610303565b610137610122366004610571565b60026020526000908152604090205460ff1681565b60405190151581526020015b60405180910390f35b6000546001600160a01b03165b6040516001600160a01b039091168152602001610143565b600454610159906001600160a01b031681565b6100e7610192366004610571565b61035c565b6101376101a5366004610571565b610386565b600354610159906001600160a01b031681565b6001546001600160a01b0316610159565b6100e76101dc366004610571565b61043d565b6101e96104fe565b6001600160a01b038116600081815260026020908152604091829020805460ff1916600117905590519182527fc1e7aae3f3125e58cfc69ab2a872a655dbb9427614aa85b29bb5abeaca4d6a9291015b60405180910390a150565b61024c6104fe565b600454600380546001600160a01b0319166001600160a01b03909216919091179055565b6102786104fe565b6102826000610558565b565b60015433906001600160a01b031681146102f75760405162461bcd60e51b815260206004820152602960248201527f4f776e61626c6532537465703a2063616c6c6572206973206e6f7420746865206044820152683732bb9037bbb732b960b91b60648201526084015b60405180910390fd5b61030081610558565b50565b61030b6104fe565b6001600160a01b038116600081815260026020908152604091829020805460ff1916905590519182527f1b676c3cc753786cb95aff57280fd7406f1da74e2a8b9755fdd395aded3e16dd9101610239565b6103646104fe565b600480546001600160a01b0319166001600160a01b0392909216919091179055565b6001600160a01b03811660009081526002602052604081205460ff1680156103ae5792915050565b6003546001600160a01b03161561043457600354604051631846d2f560e31b81526001600160a01b0385811660048301529091169063c23697a890602401602060405180830381865afa158015610409573d6000803e3d6000fd5b505050506040513d601f19601f8201168201806040525081019061042d919061059a565b9392505050565b50600092915050565b6104456104fe565b600180546001600160a01b0383166001600160a01b031990911681179091556104766000546001600160a01b031690565b6001600160a01b03167f38d16b8cac22d99fc7c124b9cd0de2d3fa1faef420bfe791d8c362d765e2270060405160405180910390a350565b600080546001600160a01b038381166001600160a01b0319831681178455604051919092169283917f8be0079c531659141344cd1fd0a4f28419497f9722a3daafe3b4186f6b6457e09190a35050565b6000546001600160a01b031633146102825760405162461bcd60e51b815260206004820181905260248201527f4f776e61626c653a2063616c6c6572206973206e6f7420746865206f776e657260448201526064016102ee565b600180546001600160a01b0319169055610300816104ae565b60006020828403121561058357600080fd5b81356001600160a01b038116811461042d57600080fd5b6000602082840312156105ac57600080fd5b8151801515811461042d57600080fdfea2646970667358221220e15dd3ae01b2a78a8ed002e88195cee0ebb11ffab0c2bcf12cd048288ed0f26564736f6c63430008110033",
  "linkReferences": {},
  "deployedLinkReferences": {}
}