{
  "_format": "hh-sol-artifact-1",
  "contractName": "StakingHOPE",
  "sourceName": "contracts/StakingHOPE.sol",
  "abi": [
    {
      "inputs": [
        {
          "internalType": "address",
          "name": "_stakedToken",
          "type": "address"
        },
        {
          "internalType": "address",
          "name": "_minter",
          "type": "address"
        },
        {
          "internalType": "address",
          "name": "_permit2Address",
          "type": "address"
        }
      ],
      "stateMutability": "nonpayable",
      "type": "constructor"
    },
    {
      "anonymous": false,
      "inputs": [
        {
          "indexed": true,
          "internalType": "address",
          "name": "owner",
          "type": "address"
        },
        {
          "indexed": true,
          "internalType": "address",
          "name": "spender",
          "type": "address"
        },
        {
          "indexed": false,
          "internalType": "uint256",
          "name": "value",
          "type": "uint256"
        }
      ],
      "name": "Approval",
      "type": "event"
    },
    {
      "anonymous": false,
      "inputs": [
        {
          "indexed": true,
          "internalType": "address",
          "name": "provider",
          "type": "address"
        },
        {
          "indexed": false,
          "internalType": "uint256",
          "name": "value",
          "type": "uint256"
        }
      ],
      "name": "Deposit",
      "type": "event"
    },
    {
      "anonymous": false,
      "inputs": [
        {
          "indexed": true,
          "internalType": "address",
          "name": "previousOwner",
          "type": "address"
        },
        {
          "indexed": true,
          "internalType": "address",
          "name": "newOwner",
          "type": "address"
        }
      ],
      "name": "OwnershipTransferStarted",
      "type": "event"
    },
    {
      "anonymous": false,
      "inputs": [
        {
          "indexed": true,
          "internalType": "address",
          "name": "previousOwner",
          "type": "address"
        },
        {
          "indexed": true,
          "internalType": "address",
          "name": "newOwner",
          "type": "address"
        }
      ],
      "name": "OwnershipTransferred",
      "type": "event"
    },
    {
      "anonymous": false,
      "inputs": [
        {
          "indexed": true,
          "internalType": "address",
          "name": "user",
          "type": "address"
        },
        {
          "indexed": false,
          "internalType": "uint256",
          "name": "amount",
          "type": "uint256"
        }
      ],
      "name": "Redeem",
      "type": "event"
    },
    {
      "anonymous": false,
      "inputs": [
        {
          "indexed": false,
          "internalType": "address",
          "name": "user",
          "type": "address"
        },
        {
          "indexed": false,
          "internalType": "uint256",
          "name": "amount",
          "type": "uint256"
        }
      ],
      "name": "RewardsAccrued",
      "type": "event"
    },
    {
      "anonymous": false,
      "inputs": [
        {
          "indexed": true,
          "internalType": "address",
          "name": "user",
          "type": "address"
        },
        {
          "indexed": false,
          "internalType": "uint256",
          "name": "amount",
          "type": "uint256"
        }
      ],
      "name": "RewardsClaimed",
      "type": "event"
    },
    {
      "anonymous": false,
      "inputs": [
        {
          "indexed": false,
          "internalType": "address",
          "name": "oldAddress",
          "type": "address"
        },
        {
          "indexed": false,
          "internalType": "address",
          "name": "newAddress",
          "type": "address"
        }
      ],
      "name": "SetPermit2Address",
      "type": "event"
    },
    {
      "anonymous": false,
      "inputs": [
        {
          "indexed": true,
          "internalType": "address",
          "name": "user",
          "type": "address"
        },
        {
          "indexed": false,
          "internalType": "uint256",
          "name": "amount",
          "type": "uint256"
        }
      ],
      "name": "Staking",
      "type": "event"
    },
    {
      "anonymous": false,
      "inputs": [
        {
          "indexed": true,
          "internalType": "address",
          "name": "from",
          "type": "address"
        },
        {
          "indexed": true,
          "internalType": "address",
          "name": "to",
          "type": "address"
        },
        {
          "indexed": false,
          "internalType": "uint256",
          "name": "value",
          "type": "uint256"
        }
      ],
      "name": "Transfer",
      "type": "event"
    },
    {
      "anonymous": false,
      "inputs": [
        {
          "indexed": true,
          "internalType": "address",
          "name": "user",
          "type": "address"
        },
        {
          "indexed": false,
          "internalType": "uint256",
          "name": "amount",
          "type": "uint256"
        }
      ],
      "name": "Unstaking",
      "type": "event"
    },
    {
      "anonymous": false,
      "inputs": [
        {
          "indexed": false,
          "internalType": "address",
          "name": "user",
          "type": "address"
        },
        {
          "indexed": false,
          "internalType": "uint256",
          "name": "originalBalance",
          "type": "uint256"
        },
        {
          "indexed": false,
          "internalType": "uint256",
          "name": "originalSupply",
          "type": "uint256"
        },
        {
          "indexed": false,
          "internalType": "uint256",
          "name": "workingBalance",
          "type": "uint256"
        },
        {
          "indexed": false,
          "internalType": "uint256",
          "name": "workingSupply",
          "type": "uint256"
        },
        {
          "indexed": false,
          "internalType": "uint256",
          "name": "votingBalance",
          "type": "uint256"
        },
        {
          "indexed": false,
          "internalType": "uint256",
          "name": "votingTotal",
          "type": "uint256"
        }
      ],
      "name": "UpdateLiquidityLimit",
      "type": "event"
    },
    {
      "anonymous": false,
      "inputs": [
        {
          "indexed": true,
          "internalType": "address",
          "name": "provider",
          "type": "address"
        },
        {
          "indexed": false,
          "internalType": "uint256",
          "name": "value",
          "type": "uint256"
        }
      ],
      "name": "Withdraw",
      "type": "event"
    },
    {
      "inputs": [],
      "name": "acceptOwnership",
      "outputs": [],
      "stateMutability": "nonpayable",
      "type": "function"
    },
    {
      "inputs": [
        {
          "internalType": "address",
          "name": "owner",
          "type": "address"
        },
        {
          "internalType": "address",
          "name": "spender",
          "type": "address"
        }
      ],
      "name": "allowance",
      "outputs": [
        {
          "internalType": "uint256",
          "name": "",
          "type": "uint256"
        }
      ],
      "stateMutability": "view",
      "type": "function"
    },
    {
      "inputs": [
        {
          "internalType": "address",
          "name": "spender",
          "type": "address"
        },
        {
          "internalType": "uint256",
          "name": "amount",
          "type": "uint256"
        }
      ],
      "name": "approve",
      "outputs": [
        {
          "internalType": "bool",
          "name": "",
          "type": "bool"
        }
      ],
      "stateMutability": "nonpayable",
      "type": "function"
    },
    {
      "inputs": [
        {
          "internalType": "address",
          "name": "account",
          "type": "address"
        }
      ],
      "name": "balanceOf",
      "outputs": [
        {
          "internalType": "uint256",
          "name": "",
          "type": "uint256"
        }
      ],
      "stateMutability": "view",
      "type": "function"
    },
    {
      "inputs": [
        {
          "internalType": "address",
          "name": "_addr",
          "type": "address"
        }
      ],
      "name": "claimableTokens",
      "outputs": [
        {
          "internalType": "uint256",
          "name": "",
          "type": "uint256"
        }
      ],
      "stateMutability": "nonpayable",
      "type": "function"
    },
    {
      "inputs": [],
      "name": "controller",
      "outputs": [
        {
          "internalType": "contract IGaugeController",
          "name": "",
          "type": "address"
        }
      ],
      "stateMutability": "view",
      "type": "function"
    },
    {
      "inputs": [],
      "name": "decimals",
      "outputs": [
        {
          "internalType": "uint8",
          "name": "",
          "type": "uint8"
        }
      ],
      "stateMutability": "view",
      "type": "function"
    },
    {
      "inputs": [
        {
          "internalType": "address",
          "name": "spender",
          "type": "address"
        },
        {
          "internalType": "uint256",
          "name": "subtractedValue",
          "type": "uint256"
        }
      ],
      "name": "decreaseAllowance",
      "outputs": [
        {
          "internalType": "bool",
          "name": "",
          "type": "bool"
        }
      ],
      "stateMutability": "nonpayable",
      "type": "function"
    },
    {
      "inputs": [],
      "name": "futureEpochTime",
      "outputs": [
        {
          "internalType": "uint256",
          "name": "",
          "type": "uint256"
        }
      ],
      "stateMutability": "view",
      "type": "function"
    },
    {
      "inputs": [
        {
          "internalType": "address",
          "name": "spender",
          "type": "address"
        },
        {
          "internalType": "uint256",
          "name": "addedValue",
          "type": "uint256"
        }
      ],
      "name": "increaseAllowance",
      "outputs": [
        {
          "internalType": "bool",
          "name": "",
          "type": "bool"
        }
      ],
      "stateMutability": "nonpayable",
      "type": "function"
    },
    {
      "inputs": [],
      "name": "inflationRate",
      "outputs": [
        {
          "internalType": "uint256",
          "name": "",
          "type": "uint256"
        }
      ],
      "stateMutability": "view",
      "type": "function"
    },
    {
      "inputs": [],
      "name": "integrateCheckpoint",
      "outputs": [
        {
          "internalType": "uint256",
          "name": "",
          "type": "uint256"
        }
      ],
      "stateMutability": "view",
      "type": "function"
    },
    {
      "inputs": [
        {
          "internalType": "address",
          "name": "",
          "type": "address"
        }
      ],
      "name": "integrateCheckpointOf",
      "outputs": [
        {
          "internalType": "uint256",
          "name": "",
          "type": "uint256"
        }
      ],
      "stateMutability": "view",
      "type": "function"
    },
    {
      "inputs": [
        {
          "internalType": "address",
          "name": "",
          "type": "address"
        }
      ],
      "name": "integrateFraction",
      "outputs": [
        {
          "internalType": "uint256",
          "name": "",
          "type": "uint256"
        }
      ],
      "stateMutability": "view",
      "type": "function"
    },
    {
      "inputs": [
        {
          "internalType": "address",
          "name": "",
          "type": "address"
        }
      ],
      "name": "integrateInvSupplyOf",
      "outputs": [
        {
          "internalType": "uint256",
          "name": "",
          "type": "uint256"
        }
      ],
      "stateMutability": "view",
      "type": "function"
    },
    {
      "inputs": [],
      "name": "isKilled",
      "outputs": [
        {
          "internalType": "bool",
          "name": "",
          "type": "bool"
        }
      ],
      "stateMutability": "view",
      "type": "function"
    },
    {
      "inputs": [
        {
          "internalType": "address",
          "name": "_addr",
          "type": "address"
        }
      ],
      "name": "kick",
      "outputs": [],
      "stateMutability": "nonpayable",
      "type": "function"
    },
    {
      "inputs": [
        {
          "internalType": "address",
          "name": "_addr",
          "type": "address"
        }
      ],
      "name": "lpBalanceOf",
      "outputs": [
        {
          "internalType": "uint256",
          "name": "",
          "type": "uint256"
        }
      ],
      "stateMutability": "view",
      "type": "function"
    },
    {
      "inputs": [],
      "name": "lpToken",
      "outputs": [
        {
          "internalType": "address",
          "name": "",
          "type": "address"
        }
      ],
      "stateMutability": "view",
      "type": "function"
    },
    {
      "inputs": [],
      "name": "lpTotalSupply",
      "outputs": [
        {
          "internalType": "uint256",
          "name": "",
          "type": "uint256"
        }
      ],
      "stateMutability": "view",
      "type": "function"
    },
    {
      "inputs": [],
      "name": "ltToken",
      "outputs": [
        {
          "internalType": "contract ILT",
          "name": "",
          "type": "address"
        }
      ],
      "stateMutability": "view",
      "type": "function"
    },
    {
      "inputs": [],
      "name": "minter",
      "outputs": [
        {
          "internalType": "contract IMinter",
          "name": "",
          "type": "address"
        }
      ],
      "stateMutability": "view",
      "type": "function"
    },
    {
      "inputs": [],
      "name": "name",
      "outputs": [
        {
          "internalType": "string",
          "name": "",
          "type": "string"
        }
      ],
      "stateMutability": "view",
      "type": "function"
    },
    {
      "inputs": [],
      "name": "owner",
      "outputs": [
        {
          "internalType": "address",
          "name": "",
          "type": "address"
        }
      ],
      "stateMutability": "view",
      "type": "function"
    },
    {
      "inputs": [],
      "name": "pendingOwner",
      "outputs": [
        {
          "internalType": "address",
          "name": "",
          "type": "address"
        }
      ],
      "stateMutability": "view",
      "type": "function"
    },
    {
      "inputs": [],
      "name": "period",
      "outputs": [
        {
          "internalType": "uint256",
          "name": "",
          "type": "uint256"
        }
      ],
      "stateMutability": "view",
      "type": "function"
    },
    {
      "inputs": [
        {
          "internalType": "uint256",
          "name": "",
          "type": "uint256"
        }
      ],
      "name": "periodTimestamp",
      "outputs": [
        {
          "internalType": "uint256",
          "name": "",
          "type": "uint256"
        }
      ],
      "stateMutability": "view",
      "type": "function"
    },
    {
      "inputs": [],
      "name": "permit2Address",
      "outputs": [
        {
          "internalType": "address",
          "name": "",
          "type": "address"
        }
      ],
      "stateMutability": "view",
      "type": "function"
    },
    {
      "inputs": [],
      "name": "redeemAll",
      "outputs": [
        {
          "internalType": "uint256",
          "name": "",
          "type": "uint256"
        }
      ],
      "stateMutability": "nonpayable",
      "type": "function"
    },
    {
      "inputs": [
        {
          "internalType": "uint256",
          "name": "maxIndex",
          "type": "uint256"
        }
      ],
      "name": "redeemByMaxIndex",
      "outputs": [
        {
          "internalType": "uint256",
          "name": "",
          "type": "uint256"
        }
      ],
      "stateMutability": "nonpayable",
      "type": "function"
    },
    {
      "inputs": [],
      "name": "renounceOwnership",
      "outputs": [],
      "stateMutability": "nonpayable",
      "type": "function"
    },
    {
      "inputs": [
        {
          "internalType": "bool",
          "name": "_isKilled",
          "type": "bool"
        }
      ],
      "name": "setKilled",
      "outputs": [],
      "stateMutability": "nonpayable",
      "type": "function"
    },
    {
      "inputs": [
        {
          "internalType": "address",
          "name": "newAddress",
          "type": "address"
        }
      ],
      "name": "setPermit2Address",
      "outputs": [],
      "stateMutability": "nonpayable",
      "type": "function"
    },
    {
      "inputs": [
        {
          "internalType": "uint256",
          "name": "amount",
          "type": "uint256"
        },
        {
          "internalType": "uint256",
          "name": "nonce",
          "type": "uint256"
        },
        {
          "internalType": "uint256",
          "name": "deadline",
          "type": "uint256"
        },
        {
          "internalType": "bytes",
          "name": "signature",
          "type": "bytes"
        }
      ],
      "name": "staking",
      "outputs": [
        {
          "internalType": "bool",
          "name": "",
          "type": "bool"
        }
      ],
      "stateMutability": "nonpayable",
      "type": "function"
    },
    {
      "inputs": [],
      "name": "symbol",
      "outputs": [
        {
          "internalType": "string",
          "name": "",
          "type": "string"
        }
      ],
      "stateMutability": "view",
      "type": "function"
    },
    {
      "inputs": [],
      "name": "totalNotRedeemAmount",
      "outputs": [
        {
          "internalType": "uint256",
          "name": "",
          "type": "uint256"
        }
      ],
      "stateMutability": "view",
      "type": "function"
    },
    {
      "inputs": [],
      "name": "totalSupply",
      "outputs": [
        {
          "internalType": "uint256",
          "name": "",
          "type": "uint256"
        }
      ],
      "stateMutability": "view",
      "type": "function"
    },
    {
      "inputs": [
        {
          "internalType": "address",
          "name": "_to",
          "type": "address"
        },
        {
          "internalType": "uint256",
          "name": "_amount",
          "type": "uint256"
        }
      ],
      "name": "transfer",
      "outputs": [
        {
          "internalType": "bool",
          "name": "",
          "type": "bool"
        }
      ],
      "stateMutability": "nonpayable",
      "type": "function"
    },
    {
      "inputs": [
        {
          "internalType": "address",
          "name": "_from",
          "type": "address"
        },
        {
          "internalType": "address",
          "name": "_to",
          "type": "address"
        },
        {
          "internalType": "uint256",
          "name": "_amount",
          "type": "uint256"
        }
      ],
      "name": "transferFrom",
      "outputs": [
        {
          "internalType": "bool",
          "name": "",
          "type": "bool"
        }
      ],
      "stateMutability": "nonpayable",
      "type": "function"
    },
    {
      "inputs": [
        {
          "internalType": "address",
          "name": "newOwner",
          "type": "address"
        }
      ],
      "name": "transferOwnership",
      "outputs": [],
      "stateMutability": "nonpayable",
      "type": "function"
    },
    {
      "inputs": [
        {
          "internalType": "address",
          "name": "_addr",
          "type": "address"
        }
      ],
      "name": "unstakedBalanceOf",
      "outputs": [
        {
          "internalType": "uint256",
          "name": "",
          "type": "uint256"
        }
      ],
      "stateMutability": "view",
      "type": "function"
    },
    {
      "inputs": [],
      "name": "unstakedTotal",
      "outputs": [
        {
          "internalType": "uint256",
          "name": "",
          "type": "uint256"
        }
      ],
      "stateMutability": "view",
      "type": "function"
    },
    {
      "inputs": [
        {
          "internalType": "uint256",
          "name": "amount",
          "type": "uint256"
        }
      ],
      "name": "unstaking",
      "outputs": [],
      "stateMutability": "nonpayable",
      "type": "function"
    },
    {
      "inputs": [
        {
          "internalType": "address",
          "name": "_addr",
          "type": "address"
        }
      ],
      "name": "unstakingBalanceOf",
      "outputs": [
        {
          "internalType": "uint256",
          "name": "",
          "type": "uint256"
        }
      ],
      "stateMutability": "view",
      "type": "function"
    },
    {
      "inputs": [
        {
          "internalType": "uint256",
          "name": "",
          "type": "uint256"
        }
      ],
      "name": "unstakingDayHistory",
      "outputs": [
        {
          "internalType": "uint256",
          "name": "",
          "type": "uint256"
        }
      ],
      "stateMutability": "view",
      "type": "function"
    },
    {
      "inputs": [
        {
          "internalType": "address",
          "name": "",
          "type": "address"
        }
      ],
      "name": "unstakingMap",
      "outputs": [
        {
          "internalType": "uint256",
          "name": "notRedeemAmount",
          "type": "uint256"
        },
        {
          "internalType": "uint256",
          "name": "index",
          "type": "uint256"
        }
      ],
      "stateMutability": "view",
      "type": "function"
    },
    {
      "inputs": [],
      "name": "unstakingTotal",
      "outputs": [
        {
          "internalType": "uint256",
          "name": "",
          "type": "uint256"
        }
      ],
      "stateMutability": "view",
      "type": "function"
    },
    {
      "inputs": [
        {
          "internalType": "address",
          "name": "_addr",
          "type": "address"
        }
      ],
      "name": "userCheckpoint",
      "outputs": [
        {
          "internalType": "bool",
          "name": "",
          "type": "bool"
        }
      ],
      "stateMutability": "nonpayable",
      "type": "function"
    },
    {
      "inputs": [],
      "name": "votingEscrow",
      "outputs": [
        {
          "internalType": "contract IVotingEscrow",
          "name": "",
          "type": "address"
        }
      ],
      "stateMutability": "view",
      "type": "function"
    },
    {
      "inputs": [
        {
          "internalType": "address",
          "name": "",
          "type": "address"
        }
      ],
      "name": "workingBalances",
      "outputs": [
        {
          "internalType": "uint256",
          "name": "",
          "type": "uint256"
        }
      ],
      "stateMutability": "view",
      "type": "function"
    },
    {
      "inputs": [],
      "name": "workingSupply",
      "outputs": [
        {
          "internalType": "uint256",
          "name": "",
          "type": "uint256"
        }
      ],
      "stateMutability": "view",
      "type": "function"
    }
  ],
  "bytecode": "0x60806040523480156200001157600080fd5b506040516200353238038062003532833981016040819052620000349162000664565b6040518060400160405280600c81526020016b484f5045205374616b696e6760a01b815250604051806040016040528060068152602001657374484f504560d01b815250816003908162000089919062000753565b50600462000098828262000753565b505050620000b5620000af620001b560201b60201c565b620001b9565b6001600160a01b038316620001195760405162461bcd60e51b815260206004820152603060248201526000805160206200351283398151915260448201526f207374616b696e67206164647265737360801b60648201526084015b60405180910390fd5b6001600160a01b038116620001795760405162461bcd60e51b815260206004820152603060248201526000805160206200351283398151915260448201526f207065726d697432206164647265737360801b606482015260840162000110565b62000186838333620001e3565b601680546001600160a01b0390921661010002610100600160a81b0319909216919091179055506200085e9050565b3390565b600680546001600160a01b0319169055620001e081620005f5602090811b6200181117901c565b50565b6001600160a01b038316620002235760405162461bcd60e51b8152602060048201526005602482015264043453030360dc1b604482015260640162000110565b6001600160a01b038216620002635760405162461bcd60e51b8152602060048201526005602482015264043453030360dc1b604482015260640162000110565b6001600160a01b038116620002a35760405162461bcd60e51b8152602060048201526005602482015264043453030360dc1b604482015260640162000110565b60165460ff16156200030f5760405162461bcd60e51b815260206004820152602e60248201527f496e697469616c697a61626c653a20636f6e747261637420697320616c72656160448201526d191e481a5b9a5d1a585b1a5e995960921b606482015260840162000110565b6016805460ff191660011790556200032781620001b9565b600780546001600160a01b038086166001600160a01b03199283161790925560088054928516929091168217905560408051637e062a3560e11b815290516000929163fc0c546a9160048083019260209291908290030181865afa15801562000394573d6000803e3d6000fd5b505050506040513d601f19601f82011682018060405250810190620003ba91906200081f565b600980546001600160a01b0319166001600160a01b03838116919091179091556008546040805163f77c479160e01b8152905193945091169163f77c4791916004808201926020929091908290030181865afa1580156200041f573d6000803e3d6000fd5b505050506040513d601f19601f820116820180604052508101906200044591906200081f565b600a80546001600160a01b0319166001600160a01b0392909216918217905560408051634f2bfe5b60e01b81529051634f2bfe5b916004808201926020929091908290030181865afa158015620004a0573d6000803e3d6000fd5b505050506040513d601f19601f82011682018060405250810190620004c691906200081f565b600b80546001600160a01b0319166001600160a01b039283161790556000805260106020908152427f6e0956cda88cad152e89927e53611735b61a5c762d1428573c6931b0a5efcb015560095460408051631627391760e11b815290519190931692632c4e722e9260048083019391928290030181865afa15801562000550573d6000803e3d6000fd5b505050506040513d601f19601f8201168201806040525081019062000576919062000844565b6015556009546040805163277dbafb60e01b815290516001600160a01b039092169163277dbafb9160048082019260209290919082900301816000875af1158015620005c6573d6000803e3d6000fd5b505050506040513d601f19601f82011682018060405250810190620005ec919062000844565b600c5550505050565b600580546001600160a01b038381166001600160a01b0319831681179093556040519116919082907f8be0079c531659141344cd1fd0a4f28419497f9722a3daafe3b4186f6b6457e090600090a35050565b80516001600160a01b03811681146200065f57600080fd5b919050565b6000806000606084860312156200067a57600080fd5b620006858462000647565b9250620006956020850162000647565b9150620006a56040850162000647565b90509250925092565b634e487b7160e01b600052604160045260246000fd5b600181811c90821680620006d957607f821691505b602082108103620006fa57634e487b7160e01b600052602260045260246000fd5b50919050565b601f8211156200074e57600081815260208120601f850160051c81016020861015620007295750805b601f850160051c820191505b818110156200074a5782815560010162000735565b5050505b505050565b81516001600160401b038111156200076f576200076f620006ae565b6200078781620007808454620006c4565b8462000700565b602080601f831160018114620007bf5760008415620007a65750858301515b600019600386901b1c1916600185901b1785556200074a565b600085815260208120601f198616915b82811015620007f057888601518255948401946001909101908401620007cf565b50858210156200080f5787850151600019600388901b60f8161c191681555b5050505050600190811b01905550565b6000602082840312156200083257600080fd5b6200083d8262000647565b9392505050565b6000602082840312156200085757600080fd5b5051919050565b612ca4806200086e6000396000f3fe608060405234801561001057600080fd5b50600436106102f15760003560e01c80638b45a6731161019d578063b07b709b116100e9578063caa0b9ed116100a2578063ef78d4fd1161007c578063ef78d4fd146106c5578063f2fde38b146106ce578063f77c4791146106e1578063fc566d52146106f457600080fd5b8063caa0b9ed14610681578063dd62ed3e146106a1578063e30c3978146106b457600080fd5b8063b07b709b14610611578063b1bd608614610624578063bdc83b1f14610644578063c52249831461064d578063c826860414610665578063c8562f721461067857600080fd5b806396c5517511610156578063a154f1bb11610130578063a154f1bb146105c5578063a457c2d7146105d8578063a5870d6b146105eb578063a9059cbb146105fe57600080fd5b806396c55175146105965780639c46665c146105a95780639e48d35e146105bc57600080fd5b80638b45a673146105235780638da5cb5b146105365780638fe8a1011461054757806390827da71461055b578063958da8de1461056e57806395d89b411461058e57600080fd5b80634f2bfe5b1161025c578063715018a6116102155780637915b1c3116101ef5780637915b1c3146104e057806379ba5097146105005780637b4dacef1461050857806384d242261461051057600080fd5b8063715018a6146104a557806373dd0555146104ad5780637699b4cd146104c057600080fd5b80634f2bfe5b146103fb578063505362c41461040e57806353f7425f146104255780635fcbd2851461046157806366be23221461047457806370a082311461047c57600080fd5b806323b872dd116102ae57806323b872dd146103955780632f4350c2146103a8578063313ce567146103b057806331e202cc146103bf57806331f9e35b146103df57806339509351146103e857600080fd5b806306fdde03146102f65780630754617214610314578063095995041461033f578063095ea7b31461035457806317a3c3701461037757806318160ddd1461038d575b600080fd5b6102fe610707565b60405161030b9190612894565b60405180910390f35b600854610327906001600160a01b031681565b6040516001600160a01b03909116815260200161030b565b61035261034d3660046128a7565b610799565b005b6103676103623660046128e5565b6107bf565b604051901515815260200161030b565b61037f6107d9565b60405190815260200161030b565b60025461037f565b6103676103a336600461290f565b6107f5565b61037f61087d565b6040516012815260200161030b565b61037f6103cd36600461294b565b60106020526000908152604090205481565b61037f60155481565b6103676103f63660046128e5565b610a19565b600b54610327906001600160a01b031681565b600f5460009081526010602052604090205461037f565b61044c610433366004612964565b6018602052600090815260409020805460019091015482565b6040805192835260208301919091520161030b565b600754610327906001600160a01b031681565b61037f610a3b565b61037f61048a366004612964565b6001600160a01b031660009081526020819052604090205490565b610352610a53565b6103676104bb366004612995565b610a67565b61037f6104ce366004612964565b60136020526000908152604090205481565b61037f6104ee36600461294b565b60196020526000908152604090205481565b610352610c00565b61037f610c7a565b61037f61051e366004612964565b610d00565b61037f610531366004612964565b610da2565b6005546001600160a01b0316610327565b60065461036790600160a01b900460ff1681565b61035261056936600461294b565b610e37565b61037f61057c366004612964565b600d6020526000908152604090205481565b6102fe61104e565b6103526105a4366004612964565b61105d565b61037f6105b7366004612964565b6112b8565b61037f600c5481565b6103526105d3366004612964565b6112e5565b6103676105e63660046128e5565b611396565b600954610327906001600160a01b031681565b61036761060c3660046128e5565b61141c565b61036761061f366004612964565b611485565b61037f610632366004612964565b60126020526000908152604090205481565b61037f60175481565b6016546103279061010090046001600160a01b031681565b61037f610673366004612964565b611506565b61037f600e5481565b61037f61068f366004612964565b60146020526000908152604090205481565b61037f6106af366004612a63565b611593565b6006546001600160a01b0316610327565b61037f600f5481565b6103526106dc366004612964565b6115be565b600a54610327906001600160a01b031681565b61037f61070236600461294b565b61162f565b60606003805461071690612a96565b80601f016020809104026020016040519081016040528092919081815260200182805461074290612a96565b801561078f5780601f106107645761010080835404028352916020019161078f565b820191906000526020600020905b81548152906001019060200180831161077257829003601f168201915b5050505050905090565b6107a1611863565b60068054911515600160a01b0260ff60a01b19909216919091179055565b6000336107cd8185856118bd565b60019150505b92915050565b60006107e3610c7a565b601a546107f09190612ae6565b905090565b600080610801856112b8565b90508281101561082c5760405162461bcd60e51b815260040161082390612af9565b60405180910390fd5b610835856119e2565b61083e846119e2565b600061084b868686611efb565b90506108678661085a886112b8565b610862610a3b565b611f14565b6108748561085a876112b8565b95945050505050565b6000338161088a82610da2565b9050806000036108d35760405162461bcd60e51b8152602060048201526014602482015273139bc81c995919595b58589b1948185b5bdd5b9d60621b6044820152606401610823565b6108dc826119e2565b6001600160a01b038216600090815260186020526040902060018101545b801561099457600081815260028084016020526040909120015460ff166109945760008181526002830160205260409020600101544211156109825760008181526002808401602052604090912080549101805460ff191660011790558254610964908290612ae6565b83556017805482919060009061097b908490612ae6565b9091555050505b8061098c81612b3f565b9150506108fa565b5061099f838361211f565b6007546109b6906001600160a01b03168484612249565b6109c38361085a856112b8565b81601a546109d19190612ae6565b601a556040518281526001600160a01b038416907f222838db2794d11532d940e8dec38ae307ed0b63cd97c233322e221f998767a69060200160405180910390a25092915050565b6000336107cd818585610a2c8383611593565b610a369190612b56565b6118bd565b6000601754610a4960025490565b6107f09190612ae6565b610a5b611863565b610a656000612255565b565b600084600003610aaf5760405162461bcd60e51b81526020600482015260136024820152721253959053125117d6915493d7d05353d55395606a1b6044820152606401610823565b6000336007546040516370a0823160e01b81526001600160a01b038084166004830152929350600092909116906370a0823190602401602060405180830381865afa158015610b02573d6000803e3d6000fd5b505050506040513d601f19601f82011682018060405250810190610b269190612b69565b905086811015610b695760405162461bcd60e51b815260206004820152600e60248201526d1253959053125117d05353d5539560921b6044820152606401610823565b601654600754610b8f916001600160a01b036101009091048116911689858a8a8a61226e565b50610b99826119e2565b610ba3828861245c565b610bb08261085a846112b8565b816001600160a01b03167fb831f69f1cebc12b23cd864ce5bfea2669d01956050a0147d71d418074559c2188604051610beb91815260200190565b60405180910390a25060019695505050505050565b60065433906001600160a01b03168114610c6e5760405162461bcd60e51b815260206004820152602960248201527f4f776e61626c6532537465703a2063616c6c6572206973206e6f7420746865206044820152683732bb9037bbb732b960b91b6064820152608401610823565b610c7781612255565b50565b600080806201518080610c8d8142612b56565b610c979190612b82565b610ca19190612ba4565b905060005b601c811015610cf85760196000610cc08362015180612ba4565b610cca9085612ae6565b81526020019081526020016000205483610ce49190612b56565b925080610cf081612bbb565b915050610ca6565b509092915050565b6000610d0b826119e2565b6008546040516308b752bb60e41b81526001600160a01b03848116600483015230602483015290911690638b752bb090604401602060405180830381865afa158015610d5b573d6000803e3d6000fd5b505050506040513d601f19601f82011682018060405250810190610d7f9190612b69565b6001600160a01b0383166000908152601460205260409020546107d39190612ae6565b6001600160a01b038116600090815260186020526040812060018101548291905b8015610e2e57600081815260028084016020526040909120015460ff16610e2e5760008181526002830160205260409020600101544210610e1c576000818152600283016020526040902054610e199084612b56565b92505b80610e2681612b3f565b915050610dc3565b50909392505050565b80600003610e7d5760405162461bcd60e51b81526020600482015260136024820152721253959053125117d6915493d7d05353d55395606a1b6044820152606401610823565b336000610e89826112b8565b905082811015610ecc5760405162461bcd60e51b815260206004820152600e60248201526d1253959053125117d05353d5539560921b6044820152606401610823565b610ed5826119e2565b60006201518080610ee68142612b56565b610ef09190612b82565b610efa9190612ba4565b90506000610f0c601c62015180612ba4565b610f169083612b56565b600083815260196020526040902054909150610f33908690612b56565b600083815260196020526040902055601a54610f50908690612b56565b601a556001600160a01b03841660009081526018602052604090208054610f78908790612b56565b8155600180820154610f8991612b56565b600182810182905560408051606081018252898152602080820187815260008385018181529681526002808901909352938420925183555193820193909355925192909101805460ff19169215159290921790915560178054889290610ff0908490612b56565b9091555061100390508561085a816112b8565b846001600160a01b03167ff2619dcba9802bb8ec071016f659320c48304701ba220f0420bed16f87139a668760405161103e91815260200190565b60405180910390a2505050505050565b60606004805461071690612a96565b6001600160a01b0381811660008181526013602052604080822054600b5491516381fc83bb60e01b8152600481019490945293919291169063eac6a66790859083906381fc83bb90602401602060405180830381865afa1580156110c5573d6000803e3d6000fd5b505050506040513d601f19601f820116820180604052508101906110e99190612b69565b6040516001600160e01b031960e085901b1681526001600160a01b0390921660048301526024820152604401602060405180830381865afa158015611132573d6000803e3d6000fd5b505050506040513d601f19601f820116820180604052508101906111569190612b69565b90506000611163846112b8565b600b54604051633037408d60e01b81526001600160a01b038781166004830152426024830152929350911690633037408d90604401602060405180830381865afa1580156111b5573d6000803e3d6000fd5b505050506040513d601f19601f820116820180604052508101906111d99190612b69565b15806111e457508282115b6112285760405162461bcd60e51b815260206004820152601560248201527419195d8e881ada58dac81b9bdd08185b1b1bddd959605a1b6044820152606401610823565b6064611235602883612ba4565b61123f9190612b82565b6001600160a01b0385166000908152600d60205260409020541161129c5760405162461bcd60e51b815260206004820152601460248201527319195d8e881ada58dac81b9bdd081b995959195960621b6044820152606401610823565b6112a5846119e2565b6112b28461085a866112b8565b50505050565b6001600160a01b038116600090815260186020908152604080832054918390528220546107d39190612ae6565b6112ed611863565b6001600160a01b03811661132b5760405162461bcd60e51b8152602060048201526005602482015264043453030360dc1b6044820152606401610823565b601680546001600160a01b03838116610100818102610100600160a81b031985161790945560408051949093049091168084526020840191909152917f35f7c25f313d8b378045946ab43056cd8fbf3cb403496ebaa0beef117936ec32910160405180910390a15050565b600033816113a48286611593565b9050838110156114045760405162461bcd60e51b815260206004820152602560248201527f45524332303a2064656372656173656420616c6c6f77616e63652062656c6f77604482015264207a65726f60d81b6064820152608401610823565b61141182868684036118bd565b506001949350505050565b60003381611429826112b8565b90508381101561144b5760405162461bcd60e51b815260040161082390612af9565b611454826119e2565b61145d856119e2565b6000611469868661251b565b90506114788361085a856112b8565b6108748661085a886112b8565b6000336001600160a01b03831614806114a857506008546001600160a01b031633145b6114e85760405162461bcd60e51b815260206004820152601160248201527019195d8e881d5b985d5d1a1bdc9a5e9959607a1b6044820152606401610823565b6114f1826119e2565b6114fe8261085a846112b8565b506001919050565b6001600160a01b038116600090815260186020526040812060018101548291905b8015610e2e57600081815260028084016020526040909120015460ff16610e2e57600081815260028301602052604090206001015442101561158157600081815260028301602052604090205461157e9084612b56565b92505b8061158b81612b3f565b915050611527565b6001600160a01b03918216600090815260016020908152604080832093909416825291909152205490565b6115c6611863565b600680546001600160a01b0383166001600160a01b031990911681179091556115f76005546001600160a01b031690565b6001600160a01b03167f38d16b8cac22d99fc7c124b9cd0de2d3fa1faef420bfe791d8c362d765e2270060405160405180910390a350565b6000338161163c82610da2565b9050806000036116855760405162461bcd60e51b8152602060048201526014602482015273139bc81c995919595b58589b1948185b5bdd5b9d60621b6044820152606401610823565b6000611690836119e2565b6001600160a01b03831660009081526018602052604081209060015b826001015481116117815787821015611781576000818152600284016020526040902060010154421180156116f55750600081815260028085016020526040909120015460ff16155b1561176f5760008181526002840160205260409020546117158186612b56565b60008381526002808701602052604090912001805460ff191660011790558454909550611743908290612ae6565b84556017805482919060009061175a908490612ae6565b9091555083905061176a81612bbb565b935050505b8061177981612bbb565b9150506116ac565b50821561180657611792858461211f565b6007546117a9906001600160a01b03168685612249565b6117b68561085a876112b8565b82601a546117c49190612ae6565b601a556040518381526001600160a01b038616907f222838db2794d11532d940e8dec38ae307ed0b63cd97c233322e221f998767a69060200160405180910390a25b509095945050505050565b600580546001600160a01b038381166001600160a01b0319831681179093556040519116919082907f8be0079c531659141344cd1fd0a4f28419497f9722a3daafe3b4186f6b6457e090600090a35050565b6005546001600160a01b03163314610a655760405162461bcd60e51b815260206004820181905260248201527f4f776e61626c653a2063616c6c6572206973206e6f7420746865206f776e65726044820152606401610823565b6001600160a01b03831661191f5760405162461bcd60e51b8152602060048201526024808201527f45524332303a20617070726f76652066726f6d20746865207a65726f206164646044820152637265737360e01b6064820152608401610823565b6001600160a01b0382166119805760405162461bcd60e51b815260206004820152602260248201527f45524332303a20617070726f766520746f20746865207a65726f206164647265604482015261737360f01b6064820152608401610823565b6001600160a01b0383811660008181526001602090815260408083209487168084529482529182902085905590518481527f8c5be1e5ebec7d5bd14f71427d1e84f3dd0314c0f7b2291e5b200ac8c7c3b92591015b60405180910390a3505050565b611a1b6040518060c001604052806000815260200160008152602001600081526020016000815260200160008152602001600081525090565b600f54808252600090815260106020908152604080832054828501908152845184526011909252918290205491830191909152601554606083018190526080830152600c5460a08301819052905111611b6357600960009054906101000a90046001600160a01b03166001600160a01b031663277dbafb6040518163ffffffff1660e01b81526004016020604051808303816000875af1158015611ac3573d6000803e3d6000fd5b505050506040513d601f19601f82011682018060405250810190611ae79190612b69565b600c5560095460408051631627391760e11b815290516001600160a01b0390921691632c4e722e916004808201926020929091908290030181865afa158015611b34573d6000803e3d6000fd5b505050506040513d601f19601f82011682018060405250810190611b589190612b69565b608082018190526015555b600a54604051638aca6a2360e01b81523060048201526001600160a01b0390911690638aca6a2390602401600060405180830381600087803b158015611ba857600080fd5b505af1158015611bbc573d6000803e3d6000fd5b5050600654600160a01b900460ff16159150611bdc905057600060608201525b8060200151421115611e1357600e5460208201516000611c20611c1a611c06620151806007612ba4565b8660200151611c159190612b56565b612529565b4261255b565b905060005b6101f4811015611e0e576000611c3b8484612ae6565b600a549091506000906001600160a01b03166365c6046830611c5c88612529565b6040516001600160e01b031960e085901b1681526001600160a01b0390921660048301526024820152604401602060405180830381865afa158015611ca5573d6000803e3d6000fd5b505050506040513d601f19601f82011682018060405250810190611cc99190612b69565b90508515611dc957848760a0015110158015611ce85750838760a00151105b15611d8e5785858860a00151611cfe9190612ae6565b828960600151611d0e9190612ba4565b611d189190612ba4565b611d229190612b82565b87604001818151611d339190612b56565b9052506080870151606088015260a08701518690611d519086612ae6565b828960600151611d619190612ba4565b611d6b9190612ba4565b611d759190612b82565b87604001818151611d869190612b56565b905250611dc9565b8582828960600151611da09190612ba4565b611daa9190612ba4565b611db49190612b82565b87604001818151611dc59190612b56565b9052505b428403611dd7575050611e0e565b839450611df7620151806007611ded9190612ba4565b611c1a9086612b56565b935050508080611e0690612bbb565b915050611c25565b505050505b600181600001818151611e269190612b56565b9052508051600f819055600090815260106020908152604080832042905580840180518551855260118452828520556001600160a01b0386168452600d835281842054601290935292205491519091670de0b6b3a764000091611e899190612ae6565b611e939083612ba4565b611e9d9190612b82565b6001600160a01b03841660009081526014602052604081208054909190611ec5908490612b56565b9091555050506040908101516001600160a01b039092166000908152601260209081528282209390935560139092529020429055565b600033611f09858285612573565b6114118585856125e7565b600b54604051633037408d60e01b81526001600160a01b0385811660048301524260248301526000921690633037408d90604401602060405180830381865afa158015611f65573d6000803e3d6000fd5b505050506040513d601f19601f82011682018060405250810190611f899190612b69565b600b5460405163d2dcd93360e01b81524260048201529192506000916001600160a01b039091169063d2dcd93390602401602060405180830381865afa158015611fd7573d6000803e3d6000fd5b505050506040513d601f19601f82011682018060405250810190611ffb9190612b69565b90506000606461200c602887612ba4565b6120169190612b82565b905081156120615760648261202c602883612ae6565b6120368688612ba4565b6120409190612ba4565b61204a9190612b82565b6120549190612b82565b61205e9082612b56565b90505b61206b858261255b565b6001600160a01b0387166000908152600d60205260408120805490839055600e5492935091829061209d908590612b56565b6120a79190612ae6565b600e819055604080516001600160a01b038b168152602081018a9052908101889052606081018590526080810182905260a0810187905260c081018690529091507f47211fe8b1eecabef1c013b28eb9caa892fd6bf2d3f1f5111d08cc115de841659060e00160405180910390a15050505050505050565b6001600160a01b03821661217f5760405162461bcd60e51b815260206004820152602160248201527f45524332303a206275726e2066726f6d20746865207a65726f206164647265736044820152607360f81b6064820152608401610823565b6001600160a01b038216600090815260208190526040902054818110156121f35760405162461bcd60e51b815260206004820152602260248201527f45524332303a206275726e20616d6f756e7420657863656564732062616c616e604482015261636560f01b6064820152608401610823565b6001600160a01b0383166000818152602081815260408083208686039055600280548790039055518581529192917fddf252ad1be2c89b69c2b068fc378daa952ba7f163c4a11628f55a4df523b3ef91016119d5565b826112b281848461274c565b600680546001600160a01b0319169055610c7781611811565b6040805160a0810182526001600160a01b0388811660608301908152608083018990528252602080830187905282840186905283518085018552308082529181018a905283515194516370a0823160e01b815260048101929092526000949092909185918316906370a0823190602401602060405180830381865afa1580156122fb573d6000803e3d6000fd5b505050506040513d601f19601f8201168201806040525081019061231f9190612b69565b90508715801561232d575086155b801561233857508551155b1561235657612351828a856000015186602001516127c4565b6123bb565b60405163187945bd60e11b81526001600160a01b038d16906330f28b7a9061238890879087908e908c90600401612bd4565b600060405180830381600087803b1580156123a257600080fd5b505af11580156123b6573d6000803e3d6000fd5b505050505b8351516040516370a0823160e01b81523060048201526000916001600160a01b0316906370a0823190602401602060405180830381865afa158015612404573d6000803e3d6000fd5b505050506040513d601f19601f820116820180604052508101906124289190612b69565b905060006124368383612ae6565b90508460200151811461244b5761244b612c58565b9d9c50505050505050505050505050565b6001600160a01b0382166124b25760405162461bcd60e51b815260206004820152601f60248201527f45524332303a206d696e7420746f20746865207a65726f2061646472657373006044820152606401610823565b80600260008282546124c49190612b56565b90915550506001600160a01b038216600081815260208181526040808320805486019055518481527fddf252ad1be2c89b69c2b068fc378daa952ba7f163c4a11628f55a4df523b3ef910160405180910390a35050565b6000336107cd8185856125e7565b6000612539620151806007612ba4565b612547620151806007612ba4565b6125519084612b82565b6107d39190612ba4565b600081831061256a578161256c565b825b9392505050565b600061257f8484611593565b905060001981146112b257818110156125da5760405162461bcd60e51b815260206004820152601d60248201527f45524332303a20696e73756666696369656e7420616c6c6f77616e63650000006044820152606401610823565b6112b284848484036118bd565b6001600160a01b03831661264b5760405162461bcd60e51b815260206004820152602560248201527f45524332303a207472616e736665722066726f6d20746865207a65726f206164604482015264647265737360d81b6064820152608401610823565b6001600160a01b0382166126ad5760405162461bcd60e51b815260206004820152602360248201527f45524332303a207472616e7366657220746f20746865207a65726f206164647260448201526265737360e81b6064820152608401610823565b6001600160a01b038316600090815260208190526040902054818110156126e65760405162461bcd60e51b815260040161082390612af9565b6001600160a01b03848116600081815260208181526040808320878703905593871680835291849020805487019055925185815290927fddf252ad1be2c89b69c2b068fc378daa952ba7f163c4a11628f55a4df523b3ef910160405180910390a36112b2565b600060405163a9059cbb60e01b8152836004820152826024820152602060006044836000895af13d15601f3d11600160005114161716915050806112b25760405162461bcd60e51b815260206004820152600f60248201526e1514905394d1915497d19052531151608a1b6044820152606401610823565b60006040516323b872dd60e01b81528460048201528360248201528260448201526020600060648360008a5af13d15601f3d11600160005114161716915050806128475760405162461bcd60e51b81526020600482015260146024820152731514905394d1915497d19493d357d1905253115160621b6044820152606401610823565b5050505050565b6000815180845260005b8181101561287457602081850181015186830182015201612858565b506000602082860101526020601f19601f83011685010191505092915050565b60208152600061256c602083018461284e565b6000602082840312156128b957600080fd5b8135801515811461256c57600080fd5b80356001600160a01b03811681146128e057600080fd5b919050565b600080604083850312156128f857600080fd5b612901836128c9565b946020939093013593505050565b60008060006060848603121561292457600080fd5b61292d846128c9565b925061293b602085016128c9565b9150604084013590509250925092565b60006020828403121561295d57600080fd5b5035919050565b60006020828403121561297657600080fd5b61256c826128c9565b634e487b7160e01b600052604160045260246000fd5b600080600080608085870312156129ab57600080fd5b843593506020850135925060408501359150606085013567ffffffffffffffff808211156129d857600080fd5b818701915087601f8301126129ec57600080fd5b8135818111156129fe576129fe61297f565b604051601f8201601f19908116603f01168101908382118183101715612a2657612a2661297f565b816040528281528a6020848701011115612a3f57600080fd5b82602086016020830137600060208483010152809550505050505092959194509250565b60008060408385031215612a7657600080fd5b612a7f836128c9565b9150612a8d602084016128c9565b90509250929050565b600181811c90821680612aaa57607f821691505b602082108103612aca57634e487b7160e01b600052602260045260246000fd5b50919050565b634e487b7160e01b600052601160045260246000fd5b818103818111156107d3576107d3612ad0565b60208082526026908201527f45524332303a207472616e7366657220616d6f756e7420657863656564732062604082015265616c616e636560d01b606082015260800190565b600081612b4e57612b4e612ad0565b506000190190565b808201808211156107d3576107d3612ad0565b600060208284031215612b7b57600080fd5b5051919050565b600082612b9f57634e487b7160e01b600052601260045260246000fd5b500490565b80820281158282048414176107d3576107d3612ad0565b600060018201612bcd57612bcd612ad0565b5060010190565b6000610100612bf783885180516001600160a01b03168252602090810151910152565b6020870151604084015260408701516060840152612c2b608084018780516001600160a01b03168252602090810151910152565b6001600160a01b03851660c084015260e08301819052612c4d8184018561284e565b979650505050505050565b634e487b7160e01b600052600160045260246000fdfea26469706673582212200694b31cb8e720ac871b3b1581c94da00c3d4058ac5d37f2e25115dfe64f401064736f6c634300081100335374616b696e67486f70653a3a696e697469616c697a653a20696e76616c6964",
  "linkReferences": {},
  "deployedLinkReferences": {}
}