{
  "_format": "hh-sol-artifact-1",
  "contractName": "VotingEscrow",
  "sourceName": "contracts/VotingEscrow.sol",
  "abi": [
    {
      "inputs": [
        {
          "internalType": "address",
          "name": "_tokenAddr",
          "type": "address"
        },
        {
          "internalType": "address",
          "name": "_permit2Address",
          "type": "address"
        }
      ],
      "stateMutability": "nonpayable",
      "type": "constructor"
    },
    {
      "anonymous": false,
      "inputs": [
        {
          "indexed": true,
          "internalType": "address",
          "name": "provider",
          "type": "address"
        },
        {
          "indexed": true,
          "internalType": "address",
          "name": "beneficiary",
          "type": "address"
        },
        {
          "indexed": false,
          "internalType": "uint256",
          "name": "value",
          "type": "uint256"
        },
        {
          "indexed": false,
          "internalType": "uint256",
          "name": "afterAmount",
          "type": "uint256"
        },
        {
          "indexed": true,
          "internalType": "uint256",
          "name": "locktime",
          "type": "uint256"
        },
        {
          "indexed": false,
          "internalType": "uint256",
          "name": "_type",
          "type": "uint256"
        },
        {
          "indexed": false,
          "internalType": "uint256",
          "name": "ts",
          "type": "uint256"
        }
      ],
      "name": "Deposit",
      "type": "event"
    },
    {
      "anonymous": false,
      "inputs": [
        {
          "indexed": true,
          "internalType": "address",
          "name": "previousOwner",
          "type": "address"
        },
        {
          "indexed": true,
          "internalType": "address",
          "name": "newOwner",
          "type": "address"
        }
      ],
      "name": "OwnershipTransferStarted",
      "type": "event"
    },
    {
      "anonymous": false,
      "inputs": [
        {
          "indexed": true,
          "internalType": "address",
          "name": "previousOwner",
          "type": "address"
        },
        {
          "indexed": true,
          "internalType": "address",
          "name": "newOwner",
          "type": "address"
        }
      ],
      "name": "OwnershipTransferred",
      "type": "event"
    },
    {
      "anonymous": false,
      "inputs": [
        {
          "indexed": false,
          "internalType": "address",
          "name": "oldAddress",
          "type": "address"
        },
        {
          "indexed": false,
          "internalType": "address",
          "name": "newAddress",
          "type": "address"
        }
      ],
      "name": "SetPermit2Address",
      "type": "event"
    },
    {
      "anonymous": false,
      "inputs": [
        {
          "indexed": false,
          "internalType": "address",
          "name": "sender",
          "type": "address"
        },
        {
          "indexed": true,
          "internalType": "address",
          "name": "newChecker",
          "type": "address"
        },
        {
          "indexed": false,
          "internalType": "address",
          "name": "oldChecker",
          "type": "address"
        }
      ],
      "name": "SetSmartWalletChecker",
      "type": "event"
    },
    {
      "anonymous": false,
      "inputs": [
        {
          "indexed": false,
          "internalType": "uint256",
          "name": "prevSupply",
          "type": "uint256"
        },
        {
          "indexed": false,
          "internalType": "uint256",
          "name": "supply",
          "type": "uint256"
        }
      ],
      "name": "Supply",
      "type": "event"
    },
    {
      "anonymous": false,
      "inputs": [
        {
          "indexed": true,
          "internalType": "address",
          "name": "provider",
          "type": "address"
        },
        {
          "indexed": false,
          "internalType": "uint256",
          "name": "value",
          "type": "uint256"
        },
        {
          "indexed": false,
          "internalType": "uint256",
          "name": "ts",
          "type": "uint256"
        }
      ],
      "name": "Withdraw",
      "type": "event"
    },
    {
      "inputs": [],
      "name": "BASE_RATE",
      "outputs": [
        {
          "internalType": "int256",
          "name": "",
          "type": "int256"
        }
      ],
      "stateMutability": "view",
      "type": "function"
    },
    {
      "inputs": [],
      "name": "MAXTIME",
      "outputs": [
        {
          "internalType": "uint256",
          "name": "",
          "type": "uint256"
        }
      ],
      "stateMutability": "view",
      "type": "function"
    },
    {
      "inputs": [],
      "name": "MULTIPLIER",
      "outputs": [
        {
          "internalType": "uint256",
          "name": "",
          "type": "uint256"
        }
      ],
      "stateMutability": "view",
      "type": "function"
    },
    {
      "inputs": [],
      "name": "WEEK",
      "outputs": [
        {
          "internalType": "uint256",
          "name": "",
          "type": "uint256"
        }
      ],
      "stateMutability": "view",
      "type": "function"
    },
    {
      "inputs": [],
      "name": "_DAY",
      "outputs": [
        {
          "internalType": "uint256",
          "name": "",
          "type": "uint256"
        }
      ],
      "stateMutability": "view",
      "type": "function"
    },
    {
      "inputs": [],
      "name": "acceptOwnership",
      "outputs": [],
      "stateMutability": "nonpayable",
      "type": "function"
    },
    {
      "inputs": [
        {
          "internalType": "address",
          "name": "_addr",
          "type": "address"
        }
      ],
      "name": "balanceOf",
      "outputs": [
        {
          "internalType": "uint256",
          "name": "",
          "type": "uint256"
        }
      ],
      "stateMutability": "view",
      "type": "function"
    },
    {
      "inputs": [
        {
          "internalType": "address",
          "name": "_addr",
          "type": "address"
        },
        {
          "internalType": "uint256",
          "name": "_block",
          "type": "uint256"
        }
      ],
      "name": "balanceOfAt",
      "outputs": [
        {
          "internalType": "uint256",
          "name": "",
          "type": "uint256"
        }
      ],
      "stateMutability": "view",
      "type": "function"
    },
    {
      "inputs": [
        {
          "internalType": "address",
          "name": "_addr",
          "type": "address"
        },
        {
          "internalType": "uint256",
          "name": "_t",
          "type": "uint256"
        }
      ],
      "name": "balanceOfAtTime",
      "outputs": [
        {
          "internalType": "uint256",
          "name": "",
          "type": "uint256"
        }
      ],
      "stateMutability": "view",
      "type": "function"
    },
    {
      "inputs": [],
      "name": "checkpointSupply",
      "outputs": [],
      "stateMutability": "nonpayable",
      "type": "function"
    },
    {
      "inputs": [
        {
          "internalType": "uint256",
          "name": "_value",
          "type": "uint256"
        },
        {
          "internalType": "uint256",
          "name": "_unlockTime",
          "type": "uint256"
        },
        {
          "internalType": "uint256",
          "name": "nonce",
          "type": "uint256"
        },
        {
          "internalType": "uint256",
          "name": "deadline",
          "type": "uint256"
        },
        {
          "internalType": "bytes",
          "name": "signature",
          "type": "bytes"
        }
      ],
      "name": "createLock",
      "outputs": [],
      "stateMutability": "nonpayable",
      "type": "function"
    },
    {
      "inputs": [
        {
          "internalType": "address",
          "name": "_beneficiary",
          "type": "address"
        },
        {
          "internalType": "uint256",
          "name": "_value",
          "type": "uint256"
        },
        {
          "internalType": "uint256",
          "name": "_unlockTime",
          "type": "uint256"
        },
        {
          "internalType": "uint256",
          "name": "nonce",
          "type": "uint256"
        },
        {
          "internalType": "uint256",
          "name": "deadline",
          "type": "uint256"
        },
        {
          "internalType": "bytes",
          "name": "signature",
          "type": "bytes"
        }
      ],
      "name": "createLockFor",
      "outputs": [],
      "stateMutability": "nonpayable",
      "type": "function"
    },
    {
      "inputs": [],
      "name": "decimals",
      "outputs": [
        {
          "internalType": "uint256",
          "name": "",
          "type": "uint256"
        }
      ],
      "stateMutability": "view",
      "type": "function"
    },
    {
      "inputs": [],
      "name": "epoch",
      "outputs": [
        {
          "internalType": "uint256",
          "name": "",
          "type": "uint256"
        }
      ],
      "stateMutability": "view",
      "type": "function"
    },
    {
      "inputs": [
        {
          "internalType": "address",
          "name": "_addr",
          "type": "address"
        }
      ],
      "name": "getLastUserSlope",
      "outputs": [
        {
          "internalType": "int256",
          "name": "",
          "type": "int256"
        }
      ],
      "stateMutability": "view",
      "type": "function"
    },
    {
      "inputs": [
        {
          "internalType": "address",
          "name": "_userAddress",
          "type": "address"
        },
        {
          "internalType": "uint256",
          "name": "_index",
          "type": "uint256"
        }
      ],
      "name": "getUserPointHistory",
      "outputs": [
        {
          "components": [
            {
              "internalType": "int256",
              "name": "bias",
              "type": "int256"
            },
            {
              "internalType": "int256",
              "name": "slope",
              "type": "int256"
            },
            {
              "internalType": "uint256",
              "name": "ts",
              "type": "uint256"
            },
            {
              "internalType": "uint256",
              "name": "blk",
              "type": "uint256"
            }
          ],
          "internalType": "struct IVotingEscrow.Point",
          "name": "",
          "type": "tuple"
        }
      ],
      "stateMutability": "view",
      "type": "function"
    },
    {
      "inputs": [
        {
          "internalType": "uint256",
          "name": "_value",
          "type": "uint256"
        },
        {
          "internalType": "uint256",
          "name": "nonce",
          "type": "uint256"
        },
        {
          "internalType": "uint256",
          "name": "deadline",
          "type": "uint256"
        },
        {
          "internalType": "bytes",
          "name": "signature",
          "type": "bytes"
        }
      ],
      "name": "increaseAmount",
      "outputs": [],
      "stateMutability": "nonpayable",
      "type": "function"
    },
    {
      "inputs": [
        {
          "internalType": "address",
          "name": "_beneficiary",
          "type": "address"
        },
        {
          "internalType": "uint256",
          "name": "_value",
          "type": "uint256"
        },
        {
          "internalType": "uint256",
          "name": "nonce",
          "type": "uint256"
        },
        {
          "internalType": "uint256",
          "name": "deadline",
          "type": "uint256"
        },
        {
          "internalType": "bytes",
          "name": "signature",
          "type": "bytes"
        }
      ],
      "name": "increaseAmountFor",
      "outputs": [],
      "stateMutability": "nonpayable",
      "type": "function"
    },
    {
      "inputs": [
        {
          "internalType": "uint256",
          "name": "_unlockTime",
          "type": "uint256"
        }
      ],
      "name": "increaseUnlockTime",
      "outputs": [],
      "stateMutability": "nonpayable",
      "type": "function"
    },
    {
      "inputs": [
        {
          "internalType": "address",
          "name": "",
          "type": "address"
        }
      ],
      "name": "locked",
      "outputs": [
        {
          "internalType": "int256",
          "name": "amount",
          "type": "int256"
        },
        {
          "internalType": "uint256",
          "name": "end",
          "type": "uint256"
        }
      ],
      "stateMutability": "view",
      "type": "function"
    },
    {
      "inputs": [
        {
          "internalType": "address",
          "name": "_addr",
          "type": "address"
        }
      ],
      "name": "lockedEnd",
      "outputs": [
        {
          "internalType": "uint256",
          "name": "",
          "type": "uint256"
        }
      ],
      "stateMutability": "view",
      "type": "function"
    },
    {
      "inputs": [],
      "name": "name",
      "outputs": [
        {
          "internalType": "string",
          "name": "",
          "type": "string"
        }
      ],
      "stateMutability": "view",
      "type": "function"
    },
    {
      "inputs": [],
      "name": "owner",
      "outputs": [
        {
          "internalType": "address",
          "name": "",
          "type": "address"
        }
      ],
      "stateMutability": "view",
      "type": "function"
    },
    {
      "inputs": [],
      "name": "pendingOwner",
      "outputs": [
        {
          "internalType": "address",
          "name": "",
          "type": "address"
        }
      ],
      "stateMutability": "view",
      "type": "function"
    },
    {
      "inputs": [],
      "name": "permit2Address",
      "outputs": [
        {
          "internalType": "address",
          "name": "",
          "type": "address"
        }
      ],
      "stateMutability": "view",
      "type": "function"
    },
    {
      "inputs": [],
      "name": "renounceOwnership",
      "outputs": [],
      "stateMutability": "nonpayable",
      "type": "function"
    },
    {
      "inputs": [
        {
          "internalType": "address",
          "name": "newAddress",
          "type": "address"
        }
      ],
      "name": "setPermit2Address",
      "outputs": [],
      "stateMutability": "nonpayable",
      "type": "function"
    },
    {
      "inputs": [
        {
          "internalType": "address",
          "name": "_check",
          "type": "address"
        }
      ],
      "name": "setSmartWalletChecker",
      "outputs": [],
      "stateMutability": "nonpayable",
      "type": "function"
    },
    {
      "inputs": [
        {
          "internalType": "uint256",
          "name": "",
          "type": "uint256"
        }
      ],
      "name": "slopeChanges",
      "outputs": [
        {
          "internalType": "int256",
          "name": "",
          "type": "int256"
        }
      ],
      "stateMutability": "view",
      "type": "function"
    },
    {
      "inputs": [],
      "name": "smartWalletChecker",
      "outputs": [
        {
          "internalType": "address",
          "name": "",
          "type": "address"
        }
      ],
      "stateMutability": "view",
      "type": "function"
    },
    {
      "inputs": [],
      "name": "supply",
      "outputs": [
        {
          "internalType": "uint256",
          "name": "",
          "type": "uint256"
        }
      ],
      "stateMutability": "view",
      "type": "function"
    },
    {
      "inputs": [
        {
          "internalType": "uint256",
          "name": "",
          "type": "uint256"
        }
      ],
      "name": "supplyPointHistory",
      "outputs": [
        {
          "internalType": "int256",
          "name": "bias",
          "type": "int256"
        },
        {
          "internalType": "int256",
          "name": "slope",
          "type": "int256"
        },
        {
          "internalType": "uint256",
          "name": "ts",
          "type": "uint256"
        },
        {
          "internalType": "uint256",
          "name": "blk",
          "type": "uint256"
        }
      ],
      "stateMutability": "view",
      "type": "function"
    },
    {
      "inputs": [],
      "name": "symbol",
      "outputs": [
        {
          "internalType": "string",
          "name": "",
          "type": "string"
        }
      ],
      "stateMutability": "view",
      "type": "function"
    },
    {
      "inputs": [],
      "name": "token",
      "outputs": [
        {
          "internalType": "address",
          "name": "",
          "type": "address"
        }
      ],
      "stateMutability": "view",
      "type": "function"
    },
    {
      "inputs": [],
      "name": "totalSupply",
      "outputs": [
        {
          "internalType": "uint256",
          "name": "",
          "type": "uint256"
        }
      ],
      "stateMutability": "view",
      "type": "function"
    },
    {
      "inputs": [
        {
          "internalType": "uint256",
          "name": "_block",
          "type": "uint256"
        }
      ],
      "name": "totalSupplyAt",
      "outputs": [
        {
          "internalType": "uint256",
          "name": "",
          "type": "uint256"
        }
      ],
      "stateMutability": "view",
      "type": "function"
    },
    {
      "inputs": [
        {
          "internalType": "uint256",
          "name": "_t",
          "type": "uint256"
        }
      ],
      "name": "totalSupplyAtTime",
      "outputs": [
        {
          "internalType": "uint256",
          "name": "",
          "type": "uint256"
        }
      ],
      "stateMutability": "view",
      "type": "function"
    },
    {
      "inputs": [
        {
          "internalType": "address",
          "name": "newOwner",
          "type": "address"
        }
      ],
      "name": "transferOwnership",
      "outputs": [],
      "stateMutability": "nonpayable",
      "type": "function"
    },
    {
      "inputs": [
        {
          "internalType": "address",
          "name": "",
          "type": "address"
        }
      ],
      "name": "userPointEpoch",
      "outputs": [
        {
          "internalType": "uint256",
          "name": "",
          "type": "uint256"
        }
      ],
      "stateMutability": "view",
      "type": "function"
    },
    {
      "inputs": [
        {
          "internalType": "address",
          "name": "",
          "type": "address"
        },
        {
          "internalType": "uint256",
          "name": "",
          "type": "uint256"
        }
      ],
      "name": "userPointHistory",
      "outputs": [
        {
          "internalType": "int256",
          "name": "bias",
          "type": "int256"
        },
        {
          "internalType": "int256",
          "name": "slope",
          "type": "int256"
        },
        {
          "internalType": "uint256",
          "name": "ts",
          "type": "uint256"
        },
        {
          "internalType": "uint256",
          "name": "blk",
          "type": "uint256"
        }
      ],
      "stateMutability": "view",
      "type": "function"
    },
    {
      "inputs": [
        {
          "internalType": "address",
          "name": "_addr",
          "type": "address"
        },
        {
          "internalType": "uint256",
          "name": "_idx",
          "type": "uint256"
        }
      ],
      "name": "userPointHistoryTs",
      "outputs": [
        {
          "internalType": "uint256",
          "name": "",
          "type": "uint256"
        }
      ],
      "stateMutability": "view",
      "type": "function"
    },
    {
      "inputs": [],
      "name": "withdraw",
      "outputs": [],
      "stateMutability": "nonpayable",
      "type": "function"
    }
  ],
  "bytecode": "0x60c06040523480156200001157600080fd5b5060405162002fe838038062002fe88339810160408190526200003491620002d6565b600160005562000044336200023d565b6001600160a01b038116620000875760405162461bcd60e51b8152602060048201526005602482015264043453030360dc1b604482015260640160405180910390fd5b6001600160a01b038281166080818152600380546001600160a01b03191693851693909317909255604080519283018152600080845260208085018281524286850190815243606088019081528480526007845296517f6d5257204ebe7d88fd91ae87941cb2dd9d8062b64ae5a2bd2d28ec40b9fbf6df5590517f6d5257204ebe7d88fd91ae87941cb2dd9d8062b64ae5a2bd2d28ec40b9fbf6e055517f6d5257204ebe7d88fd91ae87941cb2dd9d8062b64ae5a2bd2d28ec40b9fbf6e15593517f6d5257204ebe7d88fd91ae87941cb2dd9d8062b64ae5a2bd2d28ec40b9fbf6e255815163313ce56760e01b81529151909363313ce56792600480820193918290030181865afa158015620001a1573d6000803e3d6000fd5b505050506040513d601f19601f82011682018060405250810190620001c791906200030e565b60ff1660a081905260408051808201909152601081526f159bdd194b595cd8dc9bddd95908131560821b6020820152909150600b90620002089082620003df565b506040805180820190915260048152631d99531560e21b6020820152600c90620002339082620003df565b50505050620004ab565b600280546001600160a01b0319169055620002648162000267602090811b6200148f17901c565b50565b600180546001600160a01b038381166001600160a01b0319831681179093556040519116919082907f8be0079c531659141344cd1fd0a4f28419497f9722a3daafe3b4186f6b6457e090600090a35050565b80516001600160a01b0381168114620002d157600080fd5b919050565b60008060408385031215620002ea57600080fd5b620002f583620002b9565b91506200030560208401620002b9565b90509250929050565b6000602082840312156200032157600080fd5b815160ff811681146200033357600080fd5b9392505050565b634e487b7160e01b600052604160045260246000fd5b600181811c908216806200036557607f821691505b6020821081036200038657634e487b7160e01b600052602260045260246000fd5b50919050565b601f821115620003da57600081815260208120601f850160051c81016020861015620003b55750805b601f850160051c820191505b81811015620003d657828155600101620003c1565b5050505b505050565b81516001600160401b03811115620003fb57620003fb6200033a565b62000413816200040c845462000350565b846200038c565b602080601f8311600181146200044b5760008415620004325750858301515b600019600386901b1c1916600185901b178555620003d6565b600085815260208120601f198616915b828110156200047c578886015182559484019460019091019084016200045b565b50858210156200049b5787850151600019600388901b60f8161c191681555b5050505050600190811b01905550565b60805160a051612b09620004df60003960006102e101526000818161067e015281816109720152611eb10152612b096000f3fe608060405234801561001057600080fd5b506004361061025d5760003560e01c806381fc83bb11610146578063cbf9fe5f116100c3578063ee00ef3a11610087578063ee00ef3a146105f7578063f2fde38b146105ff578063f3a6d60814610612578063f4359ce514610651578063f52a36f714610659578063fc0c546a1461067957600080fd5b8063cbf9fe5f1461054b578063d2dcd93314610587578063db2869681461059a578063e30c3978146105ad578063eac6a667146105be57600080fd5b806395d89b411161010a57806395d89b41146104f7578063981b24d0146104ff578063a154f1bb14610512578063ab6fd71c14610525578063c52249831461053857600080fd5b806381fc83bb1461049757806387ac297e146104b75780638da5cb5b146104ca578063900cf0cf146104db57806393491157146104e457600080fd5b80633ccfd60b116101df57806370a08231116101a357806370a082311461042e578063715018a61461044157806379ba5097146104495780637b7933b4146104515780637c616fe6146104595780637df148541461046c57600080fd5b80633ccfd60b1461039857806341910f90146103a05780634deafcae146103a95780634ee2cd7e146103d5578063643dafde146103e857600080fd5b806318160ddd1161022657806318160ddd146102c15780633037408d146102c9578063313ce567146102dc57806331a8bbce1461030357806334d901a41461035857600080fd5b80625c9be114610262578063030150531461027f578063047fc9aa14610294578063059f8b161461029d57806306fdde03146102ac575b600080fd5b61026c6201518081565b6040519081526020015b60405180910390f35b61029261028d3660046125a4565b6106a0565b005b61026c60045481565b61026c670de0b6b3a764000081565b6102b461070a565b604051610276919061260c565b61026c610798565b61026c6102d736600461261f565b6107ed565b61026c7f000000000000000000000000000000000000000000000000000000000000000081565b610338610311366004612649565b60076020526000908152604090208054600182015460028301546003909301549192909184565b604080519485526020850193909352918301526060820152608001610276565b61033861036636600461261f565b600860209081526000928352604080842090915290825290208054600182015460028301546003909301549192909184565b61029261089f565b61026c61271081565b61026c6103b73660046125a4565b6001600160a01b031660009081526005602052604090206001015490565b61026c6103e336600461261f565b610a26565b6103fb6103f636600461261f565b610d4b565b60405161027691908151815260208083015190820152604080830151908201526060918201519181019190915260800190565b61026c61043c3660046125a4565b610dd0565b610292610e6c565b610292610e7e565b610292610ef8565b610292610467366004612649565b610f30565b600d5461047f906001600160a01b031681565b6040516001600160a01b039091168152602001610276565b61026c6104a53660046125a4565b60096020526000908152604090205481565b6102926104c5366004612705565b6110c7565b6001546001600160a01b031661047f565b61026c60065481565b6102926104f236600461275f565b6110e3565b6102b4611101565b61026c61050d366004612649565b61110e565b6102926105203660046125a4565b6112c8565b6102926105333660046127d2565b61136f565b60035461047f906001600160a01b031681565b6105726105593660046125a4565b6005602052600090815260409020805460019091015482565b60408051928352602083019190915201610276565b61026c610595366004612649565b61138d565b6102926105a8366004612836565b6113f1565b6002546001600160a01b031661047f565b61026c6105cc36600461261f565b6001600160a01b03919091166000908152600860209081526040808320938352929052206002015490565b61026c6113fe565b61029261060d3660046125a4565b611410565b61026c6106203660046125a4565b6001600160a01b03166000908152600960209081526040808320546008835281842090845290915290206001015490565b61026c611481565b61026c610667366004612649565b600a6020526000908152604090205481565b61047f7f000000000000000000000000000000000000000000000000000000000000000081565b6106a86114e1565b600d80546001600160a01b038381166001600160a01b03198316811790935560408051338152919092166020820181905292917f110e4fb601987aad2c8d06ece3232441d81dc8f16bb15115399314fd91597c6f910160405180910390a25050565b600b805461071790612888565b80601f016020809104026020016040519081016040528092919081815260200182805461074390612888565b80156107905780601f1061076557610100808354040283529160200191610790565b820191906000526020600020905b81548152906001019060200180831161077357829003601f168201915b505050505081565b60065460008181526007602090815260408083208151608081018352815481526001820154938101939093526002810154918301919091526003015460608201529091906107e6814261153b565b9250505090565b6000816000036107fb574291505b6001600160a01b03831660009081526009602052604081205490819003610826576000915050610899565b6001600160a01b03841660009081526008602090815260408083208484528252808320815160808101835281546001830154948201859052600283015493820184905260039092015460608201529187039092029091038082529091131561088d57600081525b5191506108999050565b505b92915050565b6108a7611628565b604080518082018252336000818152600560208181529482208054855292909152835260010154918101829052904210156109115760405162461bcd60e51b8152602060048201526005602482015264056453031360dc1b60448201526064015b60405180910390fd5b8051604080518082018252336000818152600560208181529482208054855260018101805487870152868901848152848a5294909352945285519093555190915560045461095f83826128d8565b60045561096d338386611681565b6109987f00000000000000000000000000000000000000000000000000000000000000003385611c73565b6040805184815242602082015233917ff279e6a1f5e320cca91135676d9cb6e44ca8a08c0b88342bcdb1144f6511b568910160405180910390a27f5e2aa66efd74cce82b21852e317e5490d9ecc9e6bb953ae24d90851258cc2f5c816109fe85826128d8565b6040805192835260208301919091520160405180910390a150505050610a246001600055565b565b600043821115610a605760405162461bcd60e51b8152602060048201526005602482015264564530313160d81b6044820152606401610908565b610a926040518060a0016040528060008152602001600081526020016000815260200160008152602001600081525090565b60008082526001600160a01b0385168152600960209081526040822054908301525b60808111610b5257602082015182511015610b52576000600283602001518460000151610ae191906128eb565b610aec9060016128eb565b610af69190612914565b6001600160a01b03871660009081526008602090815260408083208484529091529020600301549091508510610b2e57808352610b3f565b610b396001826128d8565b60208401525b5080610b4a81612928565b915050610ab4565b506001600160a01b0384166000908152600860209081526040808320845184528252808320815160808101835281548152600182015493810193909352600281015483830152600301546060830152600654908401819052909190610bb8908690611c7f565b6000818152600760209081526040808320815160808082018452825482526001830154948201949094526002820154818401526003909101546060808301919091528801849052918701929092529085015191925090821015610ca0576000600781610c258560016128eb565b8152602001908152602001600020604051806080016040529081600082015481526020016001820154815260200160028201548152602001600382015481525050905081606001518160600151610c7c91906128d8565b606086015260408083015190820151610c9591906128d8565b608086015250610cc9565b6060810151610caf90436128d8565b60608501526040810151610cc390426128d8565b60808501525b6040810151606085015115610d13578460600151826060015188610ced91906128d8565b8660800151610cfc9190612941565b610d069190612914565b610d1090826128eb565b90505b604084015160208501518551918303029003808552600013610d3d57505090519250610899915050565b600095505050505050610899565b610d766040518060800160405280600081526020016000815260200160008152602001600081525090565b506001600160a01b0382166000908152600860209081526040808320848452825291829020825160808101845281548152600182015492810192909252600281015492820192909252600390910154606082015292915050565b6001600160a01b0381166000908152600960205260408120544290808303610dfc575060009392505050565b6001600160a01b038416600090815260086020908152604080832084845282528083208151608081018352815460018301549482018590526002830154938201849052600390920154606082015291860390920290910380825290911315610e6357600081525b51949350505050565b610e746114e1565b610a246000611d06565b60025433906001600160a01b03168114610eec5760405162461bcd60e51b815260206004820152602960248201527f4f776e61626c6532537465703a2063616c6c6572206973206e6f7420746865206044820152683732bb9037bbb732b960b91b6064820152608401610908565b610ef581611d06565b50565b60408051808201909152600080825260208201526040805180820190915260008082526020820152610f2c60008383611681565b5050565b610f38611628565b610f4133611d1f565b336000908152600560209081526040918290208251808401909352805483526001015490820152610f76620151806007612941565b610f84620151806007612941565b610f8e9084612914565b610f989190612941565b915042816020015111610fd55760405162461bcd60e51b81526020600482015260056024820152642b2298181b60d91b6044820152606401610908565b805160001261100e5760405162461bcd60e51b8152602060048201526005602482015264564530303760d81b6044820152606401610908565b806020015182116110495760405162461bcd60e51b81526020600482015260056024820152640ac8a6060760db1b6044820152606401610908565b611058620151806105b4612941565b61106290426128eb565b8211156110995760405162461bcd60e51b8152602060048201526005602482015264564530303960d81b6044820152606401610908565b6110bc333360008585600360008060405180602001604052806000815250611e0c565b50610ef56001600055565b6110d033611d1f565b6110dd3385858585611f8d565b50505050565b6110eb6114e1565b6110f986868686868661208c565b505050505050565b600c805461071790612888565b6000438211156111485760405162461bcd60e51b8152602060048201526005602482015264564530313160d81b6044820152606401610908565b60065460006111578483611c7f565b6000818152600760209081526040808320815160808101835281548152600182015493810193909352600281015491830191909152600301546060820152919250838310156112565760006007816111b08660016128eb565b815260200190815260200160002060405180608001604052908160008201548152602001600182015481526020016002820154815260200160038201548152505090508060600151836060015114611250578260600151816060015161121691906128d8565b8360400151826040015161122a91906128d8565b6060850151611239908a6128d8565b6112439190612941565b61124d9190612914565b91505b506112a5565b438260600151146112a557606082015161127090436128d8565b604083015161127f90426128d8565b606084015161128e90896128d8565b6112989190612941565b6112a29190612914565b90505b6112be828284604001516112b991906128eb565b61153b565b9695505050505050565b6112d06114e1565b6001600160a01b03811661130e5760405162461bcd60e51b8152602060048201526005602482015264043453030360dc1b6044820152606401610908565b600380546001600160a01b038381166001600160a01b031983168117909355604080519190921680825260208201939093527f35f7c25f313d8b378045946ab43056cd8fbf3cb403496ebaa0beef117936ec32910160405180910390a15050565b61137833611d1f565b61138633868686868661208c565b5050505050565b60008160000361139b574291505b60065460008181526007602090815260409182902082516080810184528154815260018201549281019290925260028101549282019290925260039091015460608201526113e9818561153b565b949350505050565b6113868585858585611f8d565b61140d620151806105b4612941565b81565b6114186114e1565b600280546001600160a01b0383166001600160a01b031990911681179091556114496001546001600160a01b031690565b6001600160a01b03167f38d16b8cac22d99fc7c124b9cd0de2d3fa1faef420bfe791d8c362d765e2270060405160405180910390a350565b61140d620151806007612941565b600180546001600160a01b038381166001600160a01b0319831681179093556040519116919082907f8be0079c531659141344cd1fd0a4f28419497f9722a3daafe3b4186f6b6457e090600090a35050565b6001546001600160a01b03163314610a245760405162461bcd60e51b815260206004820181905260248201527f4f776e61626c653a2063616c6c6572206973206e6f7420746865206f776e65726044820152606401610908565b6000828161154d620151806007612941565b61155b620151806007612941565b836040015161156a9190612914565b6115749190612941565b905060005b60ff81101561160f57611590620151806007612941565b61159a90836128eb565b91506000858311156115ae578592506115bf565b506000828152600a60205260409020545b60408401516020850151855191850302900384528583036115e0575061160f565b80846020018181516115f29190612958565b90525050604083018290528061160781612928565b915050611579565b5081516000131561161f57600082525b50519392505050565b60026000540361167a5760405162461bcd60e51b815260206004820152601f60248201527f5265656e7472616e637947756172643a207265656e7472616e742063616c6c006044820152606401610908565b6002600055565b611689612507565b60065460808201526001600160a01b038416156117de574283602001511180156116b4575082516000125b1561170e576116c8620151806105b4612941565b83516116d79061271090612980565b6116e19190612980565b81516020908101919091528301516116fa9042906128d8565b81516020015161170a91906129ae565b8151525b428260200151118015611722575081516000125b1561178357611736620151806105b4612941565b82516117459061271090612980565b61174f9190612980565b6020808301518101919091528201516117699042906128d8565b81602001516020015161177c91906129ae565b6020820151525b6020808401516000908152600a82526040908190205490830152820151156117de5782602001518260200151036117c357604081015160608201526117de565b6020808301516000908152600a909152604090205460608201525b6040805160808082018352600080835260208301524292820192909252436060820152908201511561185757600760008360800151815260200190815260200160002060405180608001604052908160008201548152602001600182015481526020016002820154815260200160038201548152505090505b60408101516060820151816000428210156118a957604085015161187b90426128d8565b606086015161188a90436128d8565b61189c90670de0b6b3a7640000612941565b6118a69190612914565b90505b60006118b9620151806007612941565b6118c7620151806007612941565b6118d19087612914565b6118db9190612941565b905060005b60ff811015611a40576118f7620151806007612941565b61190190836128eb565b915060004283111561191557429250611926565b506000828152600a60205260409020545b61193087846128d8565b886020015161193f91906129ae565b885161194b91906129de565b8852602088018051829190611961908390612958565b90525087516000131561197357600088525b60008860200151121561198857600060208901525b604088018390529195508591670de0b6b3a76400006119a786856128d8565b6119b19086612941565b6119bb9190612914565b6119c590876128eb565b6060890152608089018051600191906119df9083906128eb565b9052504283036119f55750436060880152611a40565b60808901516000908152600760209081526040918290208a518155908a0151600182015590890151600282015560608901516003909101555080611a3881612928565b9150506118e0565b5060808701516006556001600160a01b038a1615611ad157866000015160200151876020015160200151611a7491906129de565b86602001818151611a859190612958565b905250865151602088015151611a9b91906129de565b86518790611aaa908390612958565b905250602086015160001315611ac257600060208701525b855160001315611ad157600086525b60808701516000908152600760209081526040918290208851815590880151600182015590870151600282015560608701516003909101556001600160a01b038a1615611c67574289602001511115611b8757865160200151604088018051611b3b908390612958565b9052506020808a01519089015103611b6b5786602001516020015187604001818151611b6791906129de565b9052505b6040808801516020808c01516000908152600a90915291909120555b4288602001511115611bdb57886020015188602001511115611bdb5786602001516020015187606001818151611bbd91906129de565b90525060608701516020808a01516000908152600a90915260409020555b6001600160a01b038a16600090815260096020526040812054611bff9060016128eb565b6001600160a01b038c1660008181526009602090815260408083208590558c8201805142908301528051436060918201529051948452600883528184209584529482529182902083518155908301516001820155908201516002820155910151600390910155505b50505050505050505050565b826110dd81848461221e565b60008082815b60808111611cfc5781831015611cfc5760006002611ca384866128eb565b611cae9060016128eb565b611cb89190612914565b6000818152600760205260409020600301549091508710611cdb57809350611ce9565b611ce66001826128d8565b92505b5080611cf481612928565b915050611c85565b5090949350505050565b600280546001600160a01b0319169055610ef58161148f565b6001600160a01b0381163214610ef557600d546001600160a01b031615611db657600d54604051631846d2f560e31b81526001600160a01b0383811660048301529091169063c23697a890602401602060405180830381865afa158015611d8a573d6000803e3d6000fd5b505050506040513d601f19601f82011682018060405250810190611dae91906129fe565b15611db65750565b60405162461bcd60e51b815260206004820152602560248201527f536d61727420636f6e7472616374206465706f7369746f7273206e6f7420616c6044820152641b1bddd95960da1b6064820152608401610908565b6040805180820182528651815260208088018051828401528351808501909452885184525190830152600454909190611e458a826128eb565b6004558251611e55908b90612958565b83528815611e6557602083018990525b6001600160a01b038b1660009081526005602090815260409091208451815590840151600190910155611e998b8385611681565b8915611edc57600354611eda906001600160a01b03167f00000000000000000000000000000000000000000000000000000000000000008c8f8a8a8a612296565b505b6020808401518451604080518e8152938401919091528201899052426060830152906001600160a01b03808e1691908f16907f193fa1e51a172de243b75f244207219f0fc534504ae9142df54912cc47f5838e9060800160405180910390a47f5e2aa66efd74cce82b21852e317e5490d9ecc9e6bb953ae24d90851258cc2f5c81611f678c826128eb565b6040805192835260208301919091520160405180910390a1505050505050505050505050565b611f95611628565b6001600160a01b038516600090815260056020908152604091829020825180840190935280548352600101549082015284611ffa5760405162461bcd60e51b8152602060048201526005602482015264056453030360dc1b6044820152606401610908565b80516000126120335760405162461bcd60e51b815260206004820152600560248201526415914c0c0d60da1b6044820152606401610908565b4281602001511161206e5760405162461bcd60e51b8152602060048201526005602482015264564530303560d81b6044820152606401610908565b61208133878760008560028a8a8a611e0c565b506113866001600055565b612094611628565b6120a2620151806007612941565b6120b0620151806007612941565b6120ba9086612914565b6120c49190612941565b6001600160a01b03871660009081526005602090815260409182902082518084019093528054835260010154908201529094508561212c5760405162461bcd60e51b8152602060048201526005602482015264056453030360dc1b6044820152606401610908565b8051156121635760405162461bcd60e51b8152602060048201526005602482015264564530303160d81b6044820152606401610908565b612171620151806007612941565b61217b90426128eb565b85116121b15760405162461bcd60e51b81526020600482015260056024820152642b2298181960d91b6044820152606401610908565b6121c0620151806105b4612941565b6121ca90426128eb565b8511156122015760405162461bcd60e51b8152602060048201526005602482015264564530303360d81b6044820152606401610908565b612213338888888560018a8a8a611e0c565b506110f96001600055565b600060405163a9059cbb60e01b8152836004820152826024820152602060006044836000895af13d15601f3d11600160005114161716915050806110dd5760405162461bcd60e51b815260206004820152600f60248201526e1514905394d1915497d19052531151608a1b6044820152606401610908565b6040805160a0810182526001600160a01b0388811660608301908152608083018990528252602080830187905282840186905283518085018552308082529181018a905283515194516370a0823160e01b815260048101929092526000949092909185918316906370a0823190602401602060405180830381865afa158015612323573d6000803e3d6000fd5b505050506040513d601f19601f820116820180604052508101906123479190612a20565b905087158015612355575086155b801561236057508551155b1561237e57612379828a85600001518660200151612484565b6123e3565b60405163187945bd60e11b81526001600160a01b038d16906330f28b7a906123b090879087908e908c90600401612a39565b600060405180830381600087803b1580156123ca57600080fd5b505af11580156123de573d6000803e3d6000fd5b505050505b8351516040516370a0823160e01b81523060048201526000916001600160a01b0316906370a0823190602401602060405180830381865afa15801561242c573d6000803e3d6000fd5b505050506040513d601f19601f820116820180604052508101906124509190612a20565b9050600061245e83836128d8565b90508460200151811461247357612473612abd565b9d9c50505050505050505050505050565b60006040516323b872dd60e01b81528460048201528360248201528260448201526020600060648360008a5af13d15601f3d11600160005114161716915050806113865760405162461bcd60e51b81526020600482015260146024820152731514905394d1915497d19493d357d1905253115160621b6044820152606401610908565b6040518060a0016040528061253d6040518060800160405280600081526020016000815260200160008152602001600081525090565b815260200161256d6040518060800160405280600081526020016000815260200160008152602001600081525090565b81526020016000815260200160008152602001600081525090565b80356001600160a01b038116811461259f57600080fd5b919050565b6000602082840312156125b657600080fd5b6125bf82612588565b9392505050565b6000815180845260005b818110156125ec576020818501810151868301820152016125d0565b506000602082860101526020601f19601f83011685010191505092915050565b6020815260006125bf60208301846125c6565b6000806040838503121561263257600080fd5b61263b83612588565b946020939093013593505050565b60006020828403121561265b57600080fd5b5035919050565b634e487b7160e01b600052604160045260246000fd5b600082601f83011261268957600080fd5b813567ffffffffffffffff808211156126a4576126a4612662565b604051601f8301601f19908116603f011681019082821181831017156126cc576126cc612662565b816040528381528660208588010111156126e557600080fd5b836020870160208301376000602085830101528094505050505092915050565b6000806000806080858703121561271b57600080fd5b843593506020850135925060408501359150606085013567ffffffffffffffff81111561274757600080fd5b61275387828801612678565b91505092959194509250565b60008060008060008060c0878903121561277857600080fd5b61278187612588565b95506020870135945060408701359350606087013592506080870135915060a087013567ffffffffffffffff8111156127b957600080fd5b6127c589828a01612678565b9150509295509295509295565b600080600080600060a086880312156127ea57600080fd5b85359450602086013593506040860135925060608601359150608086013567ffffffffffffffff81111561281d57600080fd5b61282988828901612678565b9150509295509295909350565b600080600080600060a0868803121561284e57600080fd5b61285786612588565b9450602086013593506040860135925060608601359150608086013567ffffffffffffffff81111561281d57600080fd5b600181811c9082168061289c57607f821691505b6020821081036128bc57634e487b7160e01b600052602260045260246000fd5b50919050565b634e487b7160e01b600052601160045260246000fd5b81810381811115610899576108996128c2565b80820180821115610899576108996128c2565b634e487b7160e01b600052601260045260246000fd5b600082612923576129236128fe565b500490565b60006001820161293a5761293a6128c2565b5060010190565b8082028115828204841417610899576108996128c2565b8082018281126000831280158216821582161715612978576129786128c2565b505092915050565b60008261298f5761298f6128fe565b600160ff1b8214600019841416156129a9576129a96128c2565b500590565b80820260008212600160ff1b841416156129ca576129ca6128c2565b8181058314821517610899576108996128c2565b8181036000831280158383131683831282161715610897576108976128c2565b600060208284031215612a1057600080fd5b815180151581146125bf57600080fd5b600060208284031215612a3257600080fd5b5051919050565b6000610100612a5c83885180516001600160a01b03168252602090810151910152565b6020870151604084015260408701516060840152612a90608084018780516001600160a01b03168252602090810151910152565b6001600160a01b03851660c084015260e08301819052612ab2818401856125c6565b979650505050505050565b634e487b7160e01b600052600160045260246000fdfea2646970667358221220658ee11d65f03534c0ada3b05f70c4004f43b4596e37dacec316d190403bd68c64736f6c63430008110033",
  "linkReferences": {},
  "deployedLinkReferences": {}
}